{
	"Funding.sol": {
		"Funding": {
			"abi": [
				{
					"inputs": [
						{
							"internalType": "address",
							"name": "_owner",
							"type": "address"
						},
						{
							"internalType": "string",
							"name": "_name",
							"type": "string"
						},
						{
							"internalType": "string",
							"name": "_description",
							"type": "string"
						},
						{
							"internalType": "uint256",
							"name": "_goal",
							"type": "uint256"
						},
						{
							"internalType": "uint256",
							"name": "_duratyionInDays",
							"type": "uint256"
						}
					],
					"stateMutability": "nonpayable",
					"type": "constructor"
				},
				{
					"inputs": [
						{
							"internalType": "string",
							"name": "_name",
							"type": "string"
						},
						{
							"internalType": "uint256",
							"name": "_amount",
							"type": "uint256"
						}
					],
					"name": "addTier",
					"outputs": [],
					"stateMutability": "nonpayable",
					"type": "function"
				},
				{
					"inputs": [
						{
							"internalType": "address",
							"name": "",
							"type": "address"
						}
					],
					"name": "backers",
					"outputs": [
						{
							"internalType": "uint256",
							"name": "totalContribution",
							"type": "uint256"
						}
					],
					"stateMutability": "view",
					"type": "function"
				},
				{
					"inputs": [],
					"name": "deadline",
					"outputs": [
						{
							"internalType": "uint256",
							"name": "",
							"type": "uint256"
						}
					],
					"stateMutability": "view",
					"type": "function"
				},
				{
					"inputs": [],
					"name": "description",
					"outputs": [
						{
							"internalType": "string",
							"name": "",
							"type": "string"
						}
					],
					"stateMutability": "view",
					"type": "function"
				},
				{
					"inputs": [
						{
							"internalType": "uint256",
							"name": "_daysToAdd",
							"type": "uint256"
						}
					],
					"name": "extendDeadline",
					"outputs": [],
					"stateMutability": "nonpayable",
					"type": "function"
				},
				{
					"inputs": [
						{
							"internalType": "uint256",
							"name": "_tierIndex",
							"type": "uint256"
						}
					],
					"name": "fund",
					"outputs": [],
					"stateMutability": "payable",
					"type": "function"
				},
				{
					"inputs": [],
					"name": "getCampaignStatus",
					"outputs": [
						{
							"internalType": "enum Funding.CampaignState",
							"name": "",
							"type": "uint8"
						}
					],
					"stateMutability": "view",
					"type": "function"
				},
				{
					"inputs": [],
					"name": "getContractBalance",
					"outputs": [
						{
							"internalType": "uint256",
							"name": "",
							"type": "uint256"
						}
					],
					"stateMutability": "view",
					"type": "function"
				},
				{
					"inputs": [],
					"name": "getTiers",
					"outputs": [
						{
							"components": [
								{
									"internalType": "string",
									"name": "name",
									"type": "string"
								},
								{
									"internalType": "uint256",
									"name": "amount",
									"type": "uint256"
								},
								{
									"internalType": "uint256",
									"name": "backers",
									"type": "uint256"
								}
							],
							"internalType": "struct Funding.Tier[]",
							"name": "",
							"type": "tuple[]"
						}
					],
					"stateMutability": "view",
					"type": "function"
				},
				{
					"inputs": [],
					"name": "goal",
					"outputs": [
						{
							"internalType": "uint256",
							"name": "",
							"type": "uint256"
						}
					],
					"stateMutability": "view",
					"type": "function"
				},
				{
					"inputs": [
						{
							"internalType": "address",
							"name": "_backer",
							"type": "address"
						},
						{
							"internalType": "uint256",
							"name": "_tierIndex",
							"type": "uint256"
						}
					],
					"name": "hasFundedTier",
					"outputs": [
						{
							"internalType": "bool",
							"name": "",
							"type": "bool"
						}
					],
					"stateMutability": "view",
					"type": "function"
				},
				{
					"inputs": [],
					"name": "name",
					"outputs": [
						{
							"internalType": "string",
							"name": "",
							"type": "string"
						}
					],
					"stateMutability": "view",
					"type": "function"
				},
				{
					"inputs": [],
					"name": "owner",
					"outputs": [
						{
							"internalType": "address",
							"name": "",
							"type": "address"
						}
					],
					"stateMutability": "view",
					"type": "function"
				},
				{
					"inputs": [],
					"name": "paused",
					"outputs": [
						{
							"internalType": "bool",
							"name": "",
							"type": "bool"
						}
					],
					"stateMutability": "view",
					"type": "function"
				},
				{
					"inputs": [
						{
							"internalType": "uint256",
							"name": "_index",
							"type": "uint256"
						}
					],
					"name": "removeTier",
					"outputs": [],
					"stateMutability": "nonpayable",
					"type": "function"
				},
				{
					"inputs": [],
					"name": "state",
					"outputs": [
						{
							"internalType": "enum Funding.CampaignState",
							"name": "",
							"type": "uint8"
						}
					],
					"stateMutability": "view",
					"type": "function"
				},
				{
					"inputs": [
						{
							"internalType": "uint256",
							"name": "",
							"type": "uint256"
						}
					],
					"name": "tiers",
					"outputs": [
						{
							"internalType": "string",
							"name": "name",
							"type": "string"
						},
						{
							"internalType": "uint256",
							"name": "amount",
							"type": "uint256"
						},
						{
							"internalType": "uint256",
							"name": "backers",
							"type": "uint256"
						}
					],
					"stateMutability": "view",
					"type": "function"
				},
				{
					"inputs": [],
					"name": "togglePause",
					"outputs": [],
					"stateMutability": "nonpayable",
					"type": "function"
				},
				{
					"inputs": [],
					"name": "withdraw",
					"outputs": [],
					"stateMutability": "nonpayable",
					"type": "function"
				}
			],
			"devdoc": {
				"kind": "dev",
				"methods": {},
				"version": 1
			},
			"evm": {
				"assembly": "    /* \"Funding.sol\":57:3733  contract Funding {... */\n  mstore(0x40, 0x80)\n    /* \"Funding.sol\":924:1303  constructor(... */\n  callvalue\n  dup1\n  iszero\n  tag_1\n  jumpi\n  revert(0x00, 0x00)\ntag_1:\n  pop\n  mload(0x40)\n  sub(codesize, bytecodeSize)\n  dup1\n  bytecodeSize\n  dup4\n  codecopy\n  dup2\n  dup2\n  add\n  0x40\n  mstore\n  dup2\n  add\n  swap1\n  tag_2\n  swap2\n  swap1\n  tag_3\n  jump\t// in\ntag_2:\n    /* \"Funding.sol\":1105:1110  _name */\n  dup4\n    /* \"Funding.sol\":1098:1102  name */\n  0x00\n    /* \"Funding.sol\":1098:1110  name = _name */\n  swap1\n  dup2\n  tag_6\n  swap2\n  swap1\n  tag_7\n  jump\t// in\ntag_6:\n  pop\n    /* \"Funding.sol\":1134:1146  _description */\n  dup3\n    /* \"Funding.sol\":1120:1131  description */\n  0x01\n    /* \"Funding.sol\":1120:1146  description = _description */\n  swap1\n  dup2\n  tag_8\n  swap2\n  swap1\n  tag_7\n  jump\t// in\ntag_8:\n  pop\n    /* \"Funding.sol\":1163:1168  _goal */\n  dup2\n    /* \"Funding.sol\":1156:1160  goal */\n  0x02\n    /* \"Funding.sol\":1156:1168  goal = _goal */\n  dup2\n  swap1\n  sstore\n  pop\n    /* \"Funding.sol\":1227:1233  1 days */\n  0x015180\n    /* \"Funding.sol\":1208:1224  _duratyionInDays */\n  dup2\n    /* \"Funding.sol\":1208:1233  _duratyionInDays * 1 days */\n  tag_9\n  swap2\n  swap1\n  tag_10\n  jump\t// in\ntag_9:\n    /* \"Funding.sol\":1189:1204  block.timestamp */\n  timestamp\n    /* \"Funding.sol\":1189:1234  block.timestamp + (_duratyionInDays * 1 days) */\n  tag_11\n  swap2\n  swap1\n  tag_12\n  jump\t// in\ntag_11:\n    /* \"Funding.sol\":1178:1186  deadline */\n  0x03\n    /* \"Funding.sol\":1178:1234  deadline = block.timestamp + (_duratyionInDays * 1 days) */\n  dup2\n  swap1\n  sstore\n  pop\n    /* \"Funding.sol\":1252:1258  _owner */\n  dup5\n    /* \"Funding.sol\":1244:1249  owner */\n  0x04\n  0x00\n    /* \"Funding.sol\":1244:1258  owner = _owner */\n  0x0100\n  exp\n  dup2\n  sload\n  dup2\n  0xffffffffffffffffffffffffffffffffffffffff\n  mul\n  not\n  and\n  swap1\n  dup4\n  0xffffffffffffffffffffffffffffffffffffffff\n  and\n  mul\n  or\n  swap1\n  sstore\n  pop\n    /* \"Funding.sol\":1276:1296  CampaignState.Active */\n  0x00\n    /* \"Funding.sol\":1268:1273  state */\n  0x04\n  0x15\n    /* \"Funding.sol\":1268:1296  state = CampaignState.Active */\n  0x0100\n  exp\n  dup2\n  sload\n  dup2\n  0xff\n  mul\n  not\n  and\n  swap1\n  dup4\n  0x02\n  dup2\n  gt\n  iszero\n  tag_13\n  jumpi\n  tag_14\n  tag_15\n  jump\t// in\ntag_14:\ntag_13:\n  mul\n  or\n  swap1\n  sstore\n  pop\n    /* \"Funding.sol\":924:1303  constructor(... */\n  pop\n  pop\n  pop\n  pop\n  pop\n    /* \"Funding.sol\":57:3733  contract Funding {... */\n  jump(tag_16)\n    /* \"#utility.yul\":7:82   */\ntag_17:\n    /* \"#utility.yul\":40:46   */\n  0x00\n    /* \"#utility.yul\":73:75   */\n  0x40\n    /* \"#utility.yul\":67:76   */\n  mload\n    /* \"#utility.yul\":57:76   */\n  swap1\n  pop\n    /* \"#utility.yul\":7:82   */\n  swap1\n  jump\t// out\n    /* \"#utility.yul\":88:205   */\ntag_18:\n    /* \"#utility.yul\":197:198   */\n  0x00\n    /* \"#utility.yul\":194:195   */\n  0x00\n    /* \"#utility.yul\":187:199   */\n  revert\n    /* \"#utility.yul\":211:328   */\ntag_19:\n    /* \"#utility.yul\":320:321   */\n  0x00\n    /* \"#utility.yul\":317:318   */\n  0x00\n    /* \"#utility.yul\":310:322   */\n  revert\n    /* \"#utility.yul\":334:460   */\ntag_20:\n    /* \"#utility.yul\":371:378   */\n  0x00\n    /* \"#utility.yul\":411:453   */\n  0xffffffffffffffffffffffffffffffffffffffff\n    /* \"#utility.yul\":404:409   */\n  dup3\n    /* \"#utility.yul\":400:454   */\n  and\n    /* \"#utility.yul\":389:454   */\n  swap1\n  pop\n    /* \"#utility.yul\":334:460   */\n  swap2\n  swap1\n  pop\n  jump\t// out\n    /* \"#utility.yul\":466:562   */\ntag_21:\n    /* \"#utility.yul\":503:510   */\n  0x00\n    /* \"#utility.yul\":532:556   */\n  tag_62\n    /* \"#utility.yul\":550:555   */\n  dup3\n    /* \"#utility.yul\":532:556   */\n  tag_20\n  jump\t// in\ntag_62:\n    /* \"#utility.yul\":521:556   */\n  swap1\n  pop\n    /* \"#utility.yul\":466:562   */\n  swap2\n  swap1\n  pop\n  jump\t// out\n    /* \"#utility.yul\":568:690   */\ntag_22:\n    /* \"#utility.yul\":641:665   */\n  tag_64\n    /* \"#utility.yul\":659:664   */\n  dup2\n    /* \"#utility.yul\":641:665   */\n  tag_21\n  jump\t// in\ntag_64:\n    /* \"#utility.yul\":634:639   */\n  dup2\n    /* \"#utility.yul\":631:666   */\n  eq\n    /* \"#utility.yul\":621:684   */\n  tag_65\n  jumpi\n    /* \"#utility.yul\":680:681   */\n  0x00\n    /* \"#utility.yul\":677:678   */\n  0x00\n    /* \"#utility.yul\":670:682   */\n  revert\n    /* \"#utility.yul\":621:684   */\ntag_65:\n    /* \"#utility.yul\":568:690   */\n  pop\n  jump\t// out\n    /* \"#utility.yul\":696:839   */\ntag_23:\n    /* \"#utility.yul\":753:758   */\n  0x00\n    /* \"#utility.yul\":784:790   */\n  dup2\n    /* \"#utility.yul\":778:791   */\n  mload\n    /* \"#utility.yul\":769:791   */\n  swap1\n  pop\n    /* \"#utility.yul\":800:833   */\n  tag_67\n    /* \"#utility.yul\":827:832   */\n  dup2\n    /* \"#utility.yul\":800:833   */\n  tag_22\n  jump\t// in\ntag_67:\n    /* \"#utility.yul\":696:839   */\n  swap3\n  swap2\n  pop\n  pop\n  jump\t// out\n    /* \"#utility.yul\":845:962   */\ntag_24:\n    /* \"#utility.yul\":954:955   */\n  0x00\n    /* \"#utility.yul\":951:952   */\n  0x00\n    /* \"#utility.yul\":944:956   */\n  revert\n    /* \"#utility.yul\":968:1085   */\ntag_25:\n    /* \"#utility.yul\":1077:1078   */\n  0x00\n    /* \"#utility.yul\":1074:1075   */\n  0x00\n    /* \"#utility.yul\":1067:1079   */\n  revert\n    /* \"#utility.yul\":1091:1193   */\ntag_26:\n    /* \"#utility.yul\":1132:1138   */\n  0x00\n    /* \"#utility.yul\":1183:1185   */\n  0x1f\n    /* \"#utility.yul\":1179:1186   */\n  not\n    /* \"#utility.yul\":1174:1176   */\n  0x1f\n    /* \"#utility.yul\":1167:1172   */\n  dup4\n    /* \"#utility.yul\":1163:1177   */\n  add\n    /* \"#utility.yul\":1159:1187   */\n  and\n    /* \"#utility.yul\":1149:1187   */\n  swap1\n  pop\n    /* \"#utility.yul\":1091:1193   */\n  swap2\n  swap1\n  pop\n  jump\t// out\n    /* \"#utility.yul\":1199:1379   */\ntag_27:\n    /* \"#utility.yul\":1247:1324   */\n  0x4e487b7100000000000000000000000000000000000000000000000000000000\n    /* \"#utility.yul\":1244:1245   */\n  0x00\n    /* \"#utility.yul\":1237:1325   */\n  mstore\n    /* \"#utility.yul\":1344:1348   */\n  0x41\n    /* \"#utility.yul\":1341:1342   */\n  0x04\n    /* \"#utility.yul\":1334:1349   */\n  mstore\n    /* \"#utility.yul\":1368:1372   */\n  0x24\n    /* \"#utility.yul\":1365:1366   */\n  0x00\n    /* \"#utility.yul\":1358:1373   */\n  revert\n    /* \"#utility.yul\":1385:1666   */\ntag_28:\n    /* \"#utility.yul\":1468:1495   */\n  tag_73\n    /* \"#utility.yul\":1490:1494   */\n  dup3\n    /* \"#utility.yul\":1468:1495   */\n  tag_26\n  jump\t// in\ntag_73:\n    /* \"#utility.yul\":1460:1466   */\n  dup2\n    /* \"#utility.yul\":1456:1496   */\n  add\n    /* \"#utility.yul\":1598:1604   */\n  dup2\n    /* \"#utility.yul\":1586:1596   */\n  dup2\n    /* \"#utility.yul\":1583:1605   */\n  lt\n    /* \"#utility.yul\":1562:1580   */\n  0xffffffffffffffff\n    /* \"#utility.yul\":1550:1560   */\n  dup3\n    /* \"#utility.yul\":1547:1581   */\n  gt\n    /* \"#utility.yul\":1544:1606   */\n  or\n    /* \"#utility.yul\":1541:1629   */\n  iszero\n  tag_74\n  jumpi\n    /* \"#utility.yul\":1609:1627   */\n  tag_75\n  tag_27\n  jump\t// in\ntag_75:\n    /* \"#utility.yul\":1541:1629   */\ntag_74:\n    /* \"#utility.yul\":1649:1659   */\n  dup1\n    /* \"#utility.yul\":1645:1647   */\n  0x40\n    /* \"#utility.yul\":1638:1660   */\n  mstore\n    /* \"#utility.yul\":1428:1666   */\n  pop\n    /* \"#utility.yul\":1385:1666   */\n  pop\n  pop\n  jump\t// out\n    /* \"#utility.yul\":1672:1801   */\ntag_29:\n    /* \"#utility.yul\":1706:1712   */\n  0x00\n    /* \"#utility.yul\":1733:1753   */\n  tag_77\n  tag_17\n  jump\t// in\ntag_77:\n    /* \"#utility.yul\":1723:1753   */\n  swap1\n  pop\n    /* \"#utility.yul\":1762:1795   */\n  tag_78\n    /* \"#utility.yul\":1790:1794   */\n  dup3\n    /* \"#utility.yul\":1782:1788   */\n  dup3\n    /* \"#utility.yul\":1762:1795   */\n  tag_28\n  jump\t// in\ntag_78:\n    /* \"#utility.yul\":1672:1801   */\n  swap2\n  swap1\n  pop\n  jump\t// out\n    /* \"#utility.yul\":1807:2115   */\ntag_30:\n    /* \"#utility.yul\":1869:1873   */\n  0x00\n    /* \"#utility.yul\":1959:1977   */\n  0xffffffffffffffff\n    /* \"#utility.yul\":1951:1957   */\n  dup3\n    /* \"#utility.yul\":1948:1978   */\n  gt\n    /* \"#utility.yul\":1945:2001   */\n  iszero\n  tag_80\n  jumpi\n    /* \"#utility.yul\":1981:1999   */\n  tag_81\n  tag_27\n  jump\t// in\ntag_81:\n    /* \"#utility.yul\":1945:2001   */\ntag_80:\n    /* \"#utility.yul\":2019:2048   */\n  tag_82\n    /* \"#utility.yul\":2041:2047   */\n  dup3\n    /* \"#utility.yul\":2019:2048   */\n  tag_26\n  jump\t// in\ntag_82:\n    /* \"#utility.yul\":2011:2048   */\n  swap1\n  pop\n    /* \"#utility.yul\":2103:2107   */\n  0x20\n    /* \"#utility.yul\":2097:2101   */\n  dup2\n    /* \"#utility.yul\":2093:2108   */\n  add\n    /* \"#utility.yul\":2085:2108   */\n  swap1\n  pop\n    /* \"#utility.yul\":1807:2115   */\n  swap2\n  swap1\n  pop\n  jump\t// out\n    /* \"#utility.yul\":2121:2260   */\ntag_31:\n    /* \"#utility.yul\":2210:2216   */\n  dup3\n    /* \"#utility.yul\":2205:2208   */\n  dup2\n    /* \"#utility.yul\":2200:2203   */\n  dup4\n    /* \"#utility.yul\":2194:2217   */\n  mcopy\n    /* \"#utility.yul\":2251:2252   */\n  0x00\n    /* \"#utility.yul\":2242:2248   */\n  dup4\n    /* \"#utility.yul\":2237:2240   */\n  dup4\n    /* \"#utility.yul\":2233:2249   */\n  add\n    /* \"#utility.yul\":2226:2253   */\n  mstore\n    /* \"#utility.yul\":2121:2260   */\n  pop\n  pop\n  pop\n  jump\t// out\n    /* \"#utility.yul\":2266:2700   */\ntag_32:\n    /* \"#utility.yul\":2355:2360   */\n  0x00\n    /* \"#utility.yul\":2380:2446   */\n  tag_85\n    /* \"#utility.yul\":2396:2445   */\n  tag_86\n    /* \"#utility.yul\":2438:2444   */\n  dup5\n    /* \"#utility.yul\":2396:2445   */\n  tag_30\n  jump\t// in\ntag_86:\n    /* \"#utility.yul\":2380:2446   */\n  tag_29\n  jump\t// in\ntag_85:\n    /* \"#utility.yul\":2371:2446   */\n  swap1\n  pop\n    /* \"#utility.yul\":2469:2475   */\n  dup3\n    /* \"#utility.yul\":2462:2467   */\n  dup2\n    /* \"#utility.yul\":2455:2476   */\n  mstore\n    /* \"#utility.yul\":2507:2511   */\n  0x20\n    /* \"#utility.yul\":2500:2505   */\n  dup2\n    /* \"#utility.yul\":2496:2512   */\n  add\n    /* \"#utility.yul\":2545:2548   */\n  dup5\n    /* \"#utility.yul\":2536:2542   */\n  dup5\n    /* \"#utility.yul\":2531:2534   */\n  dup5\n    /* \"#utility.yul\":2527:2543   */\n  add\n    /* \"#utility.yul\":2524:2549   */\n  gt\n    /* \"#utility.yul\":2521:2633   */\n  iszero\n  tag_87\n  jumpi\n    /* \"#utility.yul\":2552:2631   */\n  tag_88\n  tag_25\n  jump\t// in\ntag_88:\n    /* \"#utility.yul\":2521:2633   */\ntag_87:\n    /* \"#utility.yul\":2642:2694   */\n  tag_89\n    /* \"#utility.yul\":2687:2693   */\n  dup5\n    /* \"#utility.yul\":2682:2685   */\n  dup3\n    /* \"#utility.yul\":2677:2680   */\n  dup6\n    /* \"#utility.yul\":2642:2694   */\n  tag_31\n  jump\t// in\ntag_89:\n    /* \"#utility.yul\":2361:2700   */\n  pop\n    /* \"#utility.yul\":2266:2700   */\n  swap4\n  swap3\n  pop\n  pop\n  pop\n  jump\t// out\n    /* \"#utility.yul\":2720:3075   */\ntag_33:\n    /* \"#utility.yul\":2787:2792   */\n  0x00\n    /* \"#utility.yul\":2836:2839   */\n  dup3\n    /* \"#utility.yul\":2829:2833   */\n  0x1f\n    /* \"#utility.yul\":2821:2827   */\n  dup4\n    /* \"#utility.yul\":2817:2834   */\n  add\n    /* \"#utility.yul\":2813:2840   */\n  slt\n    /* \"#utility.yul\":2803:2925   */\n  tag_91\n  jumpi\n    /* \"#utility.yul\":2844:2923   */\n  tag_92\n  tag_24\n  jump\t// in\ntag_92:\n    /* \"#utility.yul\":2803:2925   */\ntag_91:\n    /* \"#utility.yul\":2954:2960   */\n  dup2\n    /* \"#utility.yul\":2948:2961   */\n  mload\n    /* \"#utility.yul\":2979:3069   */\n  tag_93\n    /* \"#utility.yul\":3065:3068   */\n  dup5\n    /* \"#utility.yul\":3057:3063   */\n  dup3\n    /* \"#utility.yul\":3050:3054   */\n  0x20\n    /* \"#utility.yul\":3042:3048   */\n  dup7\n    /* \"#utility.yul\":3038:3055   */\n  add\n    /* \"#utility.yul\":2979:3069   */\n  tag_32\n  jump\t// in\ntag_93:\n    /* \"#utility.yul\":2970:3069   */\n  swap2\n  pop\n    /* \"#utility.yul\":2793:3075   */\n  pop\n    /* \"#utility.yul\":2720:3075   */\n  swap3\n  swap2\n  pop\n  pop\n  jump\t// out\n    /* \"#utility.yul\":3081:3158   */\ntag_34:\n    /* \"#utility.yul\":3118:3125   */\n  0x00\n    /* \"#utility.yul\":3147:3152   */\n  dup2\n    /* \"#utility.yul\":3136:3152   */\n  swap1\n  pop\n    /* \"#utility.yul\":3081:3158   */\n  swap2\n  swap1\n  pop\n  jump\t// out\n    /* \"#utility.yul\":3164:3286   */\ntag_35:\n    /* \"#utility.yul\":3237:3261   */\n  tag_96\n    /* \"#utility.yul\":3255:3260   */\n  dup2\n    /* \"#utility.yul\":3237:3261   */\n  tag_34\n  jump\t// in\ntag_96:\n    /* \"#utility.yul\":3230:3235   */\n  dup2\n    /* \"#utility.yul\":3227:3262   */\n  eq\n    /* \"#utility.yul\":3217:3280   */\n  tag_97\n  jumpi\n    /* \"#utility.yul\":3276:3277   */\n  0x00\n    /* \"#utility.yul\":3273:3274   */\n  0x00\n    /* \"#utility.yul\":3266:3278   */\n  revert\n    /* \"#utility.yul\":3217:3280   */\ntag_97:\n    /* \"#utility.yul\":3164:3286   */\n  pop\n  jump\t// out\n    /* \"#utility.yul\":3292:3435   */\ntag_36:\n    /* \"#utility.yul\":3349:3354   */\n  0x00\n    /* \"#utility.yul\":3380:3386   */\n  dup2\n    /* \"#utility.yul\":3374:3387   */\n  mload\n    /* \"#utility.yul\":3365:3387   */\n  swap1\n  pop\n    /* \"#utility.yul\":3396:3429   */\n  tag_99\n    /* \"#utility.yul\":3423:3428   */\n  dup2\n    /* \"#utility.yul\":3396:3429   */\n  tag_35\n  jump\t// in\ntag_99:\n    /* \"#utility.yul\":3292:3435   */\n  swap3\n  swap2\n  pop\n  pop\n  jump\t// out\n    /* \"#utility.yul\":3441:4764   */\ntag_3:\n    /* \"#utility.yul\":3567:3573   */\n  0x00\n    /* \"#utility.yul\":3575:3581   */\n  0x00\n    /* \"#utility.yul\":3583:3589   */\n  0x00\n    /* \"#utility.yul\":3591:3597   */\n  0x00\n    /* \"#utility.yul\":3599:3605   */\n  0x00\n    /* \"#utility.yul\":3648:3651   */\n  0xa0\n    /* \"#utility.yul\":3636:3645   */\n  dup7\n    /* \"#utility.yul\":3627:3634   */\n  dup9\n    /* \"#utility.yul\":3623:3646   */\n  sub\n    /* \"#utility.yul\":3619:3652   */\n  slt\n    /* \"#utility.yul\":3616:3736   */\n  iszero\n  tag_101\n  jumpi\n    /* \"#utility.yul\":3655:3734   */\n  tag_102\n  tag_18\n  jump\t// in\ntag_102:\n    /* \"#utility.yul\":3616:3736   */\ntag_101:\n    /* \"#utility.yul\":3775:3776   */\n  0x00\n    /* \"#utility.yul\":3800:3864   */\n  tag_103\n    /* \"#utility.yul\":3856:3863   */\n  dup9\n    /* \"#utility.yul\":3847:3853   */\n  dup3\n    /* \"#utility.yul\":3836:3845   */\n  dup10\n    /* \"#utility.yul\":3832:3854   */\n  add\n    /* \"#utility.yul\":3800:3864   */\n  tag_23\n  jump\t// in\ntag_103:\n    /* \"#utility.yul\":3790:3864   */\n  swap6\n  pop\n    /* \"#utility.yul\":3746:3874   */\n  pop\n    /* \"#utility.yul\":3934:3936   */\n  0x20\n    /* \"#utility.yul\":3923:3932   */\n  dup7\n    /* \"#utility.yul\":3919:3937   */\n  add\n    /* \"#utility.yul\":3913:3938   */\n  mload\n    /* \"#utility.yul\":3965:3983   */\n  0xffffffffffffffff\n    /* \"#utility.yul\":3957:3963   */\n  dup2\n    /* \"#utility.yul\":3954:3984   */\n  gt\n    /* \"#utility.yul\":3951:4068   */\n  iszero\n  tag_104\n  jumpi\n    /* \"#utility.yul\":3987:4066   */\n  tag_105\n  tag_19\n  jump\t// in\ntag_105:\n    /* \"#utility.yul\":3951:4068   */\ntag_104:\n    /* \"#utility.yul\":4092:4166   */\n  tag_106\n    /* \"#utility.yul\":4158:4165   */\n  dup9\n    /* \"#utility.yul\":4149:4155   */\n  dup3\n    /* \"#utility.yul\":4138:4147   */\n  dup10\n    /* \"#utility.yul\":4134:4156   */\n  add\n    /* \"#utility.yul\":4092:4166   */\n  tag_33\n  jump\t// in\ntag_106:\n    /* \"#utility.yul\":4082:4166   */\n  swap5\n  pop\n    /* \"#utility.yul\":3884:4176   */\n  pop\n    /* \"#utility.yul\":4236:4238   */\n  0x40\n    /* \"#utility.yul\":4225:4234   */\n  dup7\n    /* \"#utility.yul\":4221:4239   */\n  add\n    /* \"#utility.yul\":4215:4240   */\n  mload\n    /* \"#utility.yul\":4267:4285   */\n  0xffffffffffffffff\n    /* \"#utility.yul\":4259:4265   */\n  dup2\n    /* \"#utility.yul\":4256:4286   */\n  gt\n    /* \"#utility.yul\":4253:4370   */\n  iszero\n  tag_107\n  jumpi\n    /* \"#utility.yul\":4289:4368   */\n  tag_108\n  tag_19\n  jump\t// in\ntag_108:\n    /* \"#utility.yul\":4253:4370   */\ntag_107:\n    /* \"#utility.yul\":4394:4468   */\n  tag_109\n    /* \"#utility.yul\":4460:4467   */\n  dup9\n    /* \"#utility.yul\":4451:4457   */\n  dup3\n    /* \"#utility.yul\":4440:4449   */\n  dup10\n    /* \"#utility.yul\":4436:4458   */\n  add\n    /* \"#utility.yul\":4394:4468   */\n  tag_33\n  jump\t// in\ntag_109:\n    /* \"#utility.yul\":4384:4468   */\n  swap4\n  pop\n    /* \"#utility.yul\":4186:4478   */\n  pop\n    /* \"#utility.yul\":4517:4519   */\n  0x60\n    /* \"#utility.yul\":4543:4607   */\n  tag_110\n    /* \"#utility.yul\":4599:4606   */\n  dup9\n    /* \"#utility.yul\":4590:4596   */\n  dup3\n    /* \"#utility.yul\":4579:4588   */\n  dup10\n    /* \"#utility.yul\":4575:4597   */\n  add\n    /* \"#utility.yul\":4543:4607   */\n  tag_36\n  jump\t// in\ntag_110:\n    /* \"#utility.yul\":4533:4607   */\n  swap3\n  pop\n    /* \"#utility.yul\":4488:4617   */\n  pop\n    /* \"#utility.yul\":4656:4659   */\n  0x80\n    /* \"#utility.yul\":4683:4747   */\n  tag_111\n    /* \"#utility.yul\":4739:4746   */\n  dup9\n    /* \"#utility.yul\":4730:4736   */\n  dup3\n    /* \"#utility.yul\":4719:4728   */\n  dup10\n    /* \"#utility.yul\":4715:4737   */\n  add\n    /* \"#utility.yul\":4683:4747   */\n  tag_36\n  jump\t// in\ntag_111:\n    /* \"#utility.yul\":4673:4747   */\n  swap2\n  pop\n    /* \"#utility.yul\":4627:4757   */\n  pop\n    /* \"#utility.yul\":3441:4764   */\n  swap3\n  swap6\n  pop\n  swap3\n  swap6\n  swap1\n  swap4\n  pop\n  jump\t// out\n    /* \"#utility.yul\":4770:4869   */\ntag_37:\n    /* \"#utility.yul\":4822:4828   */\n  0x00\n    /* \"#utility.yul\":4856:4861   */\n  dup2\n    /* \"#utility.yul\":4850:4862   */\n  mload\n    /* \"#utility.yul\":4840:4862   */\n  swap1\n  pop\n    /* \"#utility.yul\":4770:4869   */\n  swap2\n  swap1\n  pop\n  jump\t// out\n    /* \"#utility.yul\":4875:5055   */\ntag_38:\n    /* \"#utility.yul\":4923:5000   */\n  0x4e487b7100000000000000000000000000000000000000000000000000000000\n    /* \"#utility.yul\":4920:4921   */\n  0x00\n    /* \"#utility.yul\":4913:5001   */\n  mstore\n    /* \"#utility.yul\":5020:5024   */\n  0x22\n    /* \"#utility.yul\":5017:5018   */\n  0x04\n    /* \"#utility.yul\":5010:5025   */\n  mstore\n    /* \"#utility.yul\":5044:5048   */\n  0x24\n    /* \"#utility.yul\":5041:5042   */\n  0x00\n    /* \"#utility.yul\":5034:5049   */\n  revert\n    /* \"#utility.yul\":5061:5381   */\ntag_39:\n    /* \"#utility.yul\":5105:5111   */\n  0x00\n    /* \"#utility.yul\":5142:5143   */\n  0x02\n    /* \"#utility.yul\":5136:5140   */\n  dup3\n    /* \"#utility.yul\":5132:5144   */\n  div\n    /* \"#utility.yul\":5122:5144   */\n  swap1\n  pop\n    /* \"#utility.yul\":5189:5190   */\n  0x01\n    /* \"#utility.yul\":5183:5187   */\n  dup3\n    /* \"#utility.yul\":5179:5191   */\n  and\n    /* \"#utility.yul\":5210:5228   */\n  dup1\n    /* \"#utility.yul\":5200:5281   */\n  tag_115\n  jumpi\n    /* \"#utility.yul\":5266:5270   */\n  0x7f\n    /* \"#utility.yul\":5258:5264   */\n  dup3\n    /* \"#utility.yul\":5254:5271   */\n  and\n    /* \"#utility.yul\":5244:5271   */\n  swap2\n  pop\n    /* \"#utility.yul\":5200:5281   */\ntag_115:\n    /* \"#utility.yul\":5328:5330   */\n  0x20\n    /* \"#utility.yul\":5320:5326   */\n  dup3\n    /* \"#utility.yul\":5317:5331   */\n  lt\n    /* \"#utility.yul\":5297:5315   */\n  dup2\n    /* \"#utility.yul\":5294:5332   */\n  sub\n    /* \"#utility.yul\":5291:5375   */\n  tag_116\n  jumpi\n    /* \"#utility.yul\":5347:5365   */\n  tag_117\n  tag_38\n  jump\t// in\ntag_117:\n    /* \"#utility.yul\":5291:5375   */\ntag_116:\n    /* \"#utility.yul\":5112:5381   */\n  pop\n    /* \"#utility.yul\":5061:5381   */\n  swap2\n  swap1\n  pop\n  jump\t// out\n    /* \"#utility.yul\":5387:5528   */\ntag_40:\n    /* \"#utility.yul\":5436:5440   */\n  0x00\n    /* \"#utility.yul\":5459:5462   */\n  dup2\n    /* \"#utility.yul\":5451:5462   */\n  swap1\n  pop\n    /* \"#utility.yul\":5482:5485   */\n  dup2\n    /* \"#utility.yul\":5479:5480   */\n  0x00\n    /* \"#utility.yul\":5472:5486   */\n  mstore\n    /* \"#utility.yul\":5516:5520   */\n  0x20\n    /* \"#utility.yul\":5513:5514   */\n  0x00\n    /* \"#utility.yul\":5503:5521   */\n  keccak256\n    /* \"#utility.yul\":5495:5521   */\n  swap1\n  pop\n    /* \"#utility.yul\":5387:5528   */\n  swap2\n  swap1\n  pop\n  jump\t// out\n    /* \"#utility.yul\":5534:5627   */\ntag_41:\n    /* \"#utility.yul\":5571:5577   */\n  0x00\n    /* \"#utility.yul\":5618:5620   */\n  0x20\n    /* \"#utility.yul\":5613:5615   */\n  0x1f\n    /* \"#utility.yul\":5606:5611   */\n  dup4\n    /* \"#utility.yul\":5602:5616   */\n  add\n    /* \"#utility.yul\":5598:5621   */\n  div\n    /* \"#utility.yul\":5588:5621   */\n  swap1\n  pop\n    /* \"#utility.yul\":5534:5627   */\n  swap2\n  swap1\n  pop\n  jump\t// out\n    /* \"#utility.yul\":5633:5740   */\ntag_42:\n    /* \"#utility.yul\":5677:5685   */\n  0x00\n    /* \"#utility.yul\":5727:5732   */\n  dup3\n    /* \"#utility.yul\":5721:5725   */\n  dup3\n    /* \"#utility.yul\":5717:5733   */\n  shl\n    /* \"#utility.yul\":5696:5733   */\n  swap1\n  pop\n    /* \"#utility.yul\":5633:5740   */\n  swap3\n  swap2\n  pop\n  pop\n  jump\t// out\n    /* \"#utility.yul\":5746:6139   */\ntag_43:\n    /* \"#utility.yul\":5815:5821   */\n  0x00\n    /* \"#utility.yul\":5865:5866   */\n  0x08\n    /* \"#utility.yul\":5853:5863   */\n  dup4\n    /* \"#utility.yul\":5849:5867   */\n  mul\n    /* \"#utility.yul\":5888:5985   */\n  tag_122\n    /* \"#utility.yul\":5918:5984   */\n  0xffffffffffffffffffffffffffffffffffffffffffffffffffffffffffffffff\n    /* \"#utility.yul\":5907:5916   */\n  dup3\n    /* \"#utility.yul\":5888:5985   */\n  tag_42\n  jump\t// in\ntag_122:\n    /* \"#utility.yul\":6006:6045   */\n  tag_123\n    /* \"#utility.yul\":6036:6044   */\n  dup7\n    /* \"#utility.yul\":6025:6034   */\n  dup4\n    /* \"#utility.yul\":6006:6045   */\n  tag_42\n  jump\t// in\ntag_123:\n    /* \"#utility.yul\":5994:6045   */\n  swap6\n  pop\n    /* \"#utility.yul\":6078:6082   */\n  dup1\n    /* \"#utility.yul\":6074:6083   */\n  not\n    /* \"#utility.yul\":6067:6072   */\n  dup5\n    /* \"#utility.yul\":6063:6084   */\n  and\n    /* \"#utility.yul\":6054:6084   */\n  swap4\n  pop\n    /* \"#utility.yul\":6127:6131   */\n  dup1\n    /* \"#utility.yul\":6117:6125   */\n  dup7\n    /* \"#utility.yul\":6113:6132   */\n  and\n    /* \"#utility.yul\":6106:6111   */\n  dup5\n    /* \"#utility.yul\":6103:6133   */\n  or\n    /* \"#utility.yul\":6093:6133   */\n  swap3\n  pop\n    /* \"#utility.yul\":5822:6139   */\n  pop\n  pop\n    /* \"#utility.yul\":5746:6139   */\n  swap4\n  swap3\n  pop\n  pop\n  pop\n  jump\t// out\n    /* \"#utility.yul\":6145:6205   */\ntag_44:\n    /* \"#utility.yul\":6173:6176   */\n  0x00\n    /* \"#utility.yul\":6194:6199   */\n  dup2\n    /* \"#utility.yul\":6187:6199   */\n  swap1\n  pop\n    /* \"#utility.yul\":6145:6205   */\n  swap2\n  swap1\n  pop\n  jump\t// out\n    /* \"#utility.yul\":6211:6353   */\ntag_45:\n    /* \"#utility.yul\":6261:6270   */\n  0x00\n    /* \"#utility.yul\":6294:6347   */\n  tag_126\n    /* \"#utility.yul\":6312:6346   */\n  tag_127\n    /* \"#utility.yul\":6321:6345   */\n  tag_128\n    /* \"#utility.yul\":6339:6344   */\n  dup5\n    /* \"#utility.yul\":6321:6345   */\n  tag_34\n  jump\t// in\ntag_128:\n    /* \"#utility.yul\":6312:6346   */\n  tag_44\n  jump\t// in\ntag_127:\n    /* \"#utility.yul\":6294:6347   */\n  tag_34\n  jump\t// in\ntag_126:\n    /* \"#utility.yul\":6281:6347   */\n  swap1\n  pop\n    /* \"#utility.yul\":6211:6353   */\n  swap2\n  swap1\n  pop\n  jump\t// out\n    /* \"#utility.yul\":6359:6434   */\ntag_46:\n    /* \"#utility.yul\":6402:6405   */\n  0x00\n    /* \"#utility.yul\":6423:6428   */\n  dup2\n    /* \"#utility.yul\":6416:6428   */\n  swap1\n  pop\n    /* \"#utility.yul\":6359:6434   */\n  swap2\n  swap1\n  pop\n  jump\t// out\n    /* \"#utility.yul\":6440:6709   */\ntag_47:\n    /* \"#utility.yul\":6550:6589   */\n  tag_131\n    /* \"#utility.yul\":6581:6588   */\n  dup4\n    /* \"#utility.yul\":6550:6589   */\n  tag_45\n  jump\t// in\ntag_131:\n    /* \"#utility.yul\":6611:6702   */\n  tag_132\n    /* \"#utility.yul\":6660:6701   */\n  tag_133\n    /* \"#utility.yul\":6684:6700   */\n  dup3\n    /* \"#utility.yul\":6660:6701   */\n  tag_46\n  jump\t// in\ntag_133:\n    /* \"#utility.yul\":6652:6658   */\n  dup5\n    /* \"#utility.yul\":6645:6649   */\n  dup5\n    /* \"#utility.yul\":6639:6650   */\n  sload\n    /* \"#utility.yul\":6611:6702   */\n  tag_43\n  jump\t// in\ntag_132:\n    /* \"#utility.yul\":6605:6609   */\n  dup3\n    /* \"#utility.yul\":6598:6703   */\n  sstore\n    /* \"#utility.yul\":6516:6709   */\n  pop\n    /* \"#utility.yul\":6440:6709   */\n  pop\n  pop\n  pop\n  jump\t// out\n    /* \"#utility.yul\":6715:6788   */\ntag_48:\n    /* \"#utility.yul\":6760:6763   */\n  0x00\n    /* \"#utility.yul\":6781:6782   */\n  0x00\n    /* \"#utility.yul\":6774:6782   */\n  swap1\n  pop\n    /* \"#utility.yul\":6715:6788   */\n  swap1\n  jump\t// out\n    /* \"#utility.yul\":6794:6983   */\ntag_49:\n    /* \"#utility.yul\":6871:6903   */\n  tag_136\n  tag_48\n  jump\t// in\ntag_136:\n    /* \"#utility.yul\":6912:6977   */\n  tag_137\n    /* \"#utility.yul\":6970:6976   */\n  dup2\n    /* \"#utility.yul\":6962:6968   */\n  dup5\n    /* \"#utility.yul\":6956:6960   */\n  dup5\n    /* \"#utility.yul\":6912:6977   */\n  tag_47\n  jump\t// in\ntag_137:\n    /* \"#utility.yul\":6847:6983   */\n  pop\n    /* \"#utility.yul\":6794:6983   */\n  pop\n  pop\n  jump\t// out\n    /* \"#utility.yul\":6989:7175   */\ntag_50:\n    /* \"#utility.yul\":7049:7169   */\ntag_139:\n    /* \"#utility.yul\":7066:7069   */\n  dup2\n    /* \"#utility.yul\":7059:7064   */\n  dup2\n    /* \"#utility.yul\":7056:7070   */\n  lt\n    /* \"#utility.yul\":7049:7169   */\n  iszero\n  tag_141\n  jumpi\n    /* \"#utility.yul\":7120:7159   */\n  tag_142\n    /* \"#utility.yul\":7157:7158   */\n  0x00\n    /* \"#utility.yul\":7150:7155   */\n  dup3\n    /* \"#utility.yul\":7120:7159   */\n  tag_49\n  jump\t// in\ntag_142:\n    /* \"#utility.yul\":7093:7094   */\n  0x01\n    /* \"#utility.yul\":7086:7091   */\n  dup2\n    /* \"#utility.yul\":7082:7095   */\n  add\n    /* \"#utility.yul\":7073:7095   */\n  swap1\n  pop\n    /* \"#utility.yul\":7049:7169   */\n  jump(tag_139)\ntag_141:\n    /* \"#utility.yul\":6989:7175   */\n  pop\n  pop\n  jump\t// out\n    /* \"#utility.yul\":7181:7724   */\ntag_51:\n    /* \"#utility.yul\":7282:7284   */\n  0x1f\n    /* \"#utility.yul\":7277:7280   */\n  dup3\n    /* \"#utility.yul\":7274:7285   */\n  gt\n    /* \"#utility.yul\":7271:7717   */\n  iszero\n  tag_144\n  jumpi\n    /* \"#utility.yul\":7316:7354   */\n  tag_145\n    /* \"#utility.yul\":7348:7353   */\n  dup2\n    /* \"#utility.yul\":7316:7354   */\n  tag_40\n  jump\t// in\ntag_145:\n    /* \"#utility.yul\":7400:7429   */\n  tag_146\n    /* \"#utility.yul\":7418:7428   */\n  dup5\n    /* \"#utility.yul\":7400:7429   */\n  tag_41\n  jump\t// in\ntag_146:\n    /* \"#utility.yul\":7390:7398   */\n  dup2\n    /* \"#utility.yul\":7386:7430   */\n  add\n    /* \"#utility.yul\":7583:7585   */\n  0x20\n    /* \"#utility.yul\":7571:7581   */\n  dup6\n    /* \"#utility.yul\":7568:7586   */\n  lt\n    /* \"#utility.yul\":7565:7614   */\n  iszero\n  tag_147\n  jumpi\n    /* \"#utility.yul\":7604:7612   */\n  dup2\n    /* \"#utility.yul\":7589:7612   */\n  swap1\n  pop\n    /* \"#utility.yul\":7565:7614   */\ntag_147:\n    /* \"#utility.yul\":7627:7707   */\n  tag_148\n    /* \"#utility.yul\":7683:7705   */\n  tag_149\n    /* \"#utility.yul\":7701:7704   */\n  dup6\n    /* \"#utility.yul\":7683:7705   */\n  tag_41\n  jump\t// in\ntag_149:\n    /* \"#utility.yul\":7673:7681   */\n  dup4\n    /* \"#utility.yul\":7669:7706   */\n  add\n    /* \"#utility.yul\":7656:7667   */\n  dup3\n    /* \"#utility.yul\":7627:7707   */\n  tag_50\n  jump\t// in\ntag_148:\n    /* \"#utility.yul\":7286:7717   */\n  pop\n  pop\n    /* \"#utility.yul\":7271:7717   */\ntag_144:\n    /* \"#utility.yul\":7181:7724   */\n  pop\n  pop\n  pop\n  jump\t// out\n    /* \"#utility.yul\":7730:7847   */\ntag_52:\n    /* \"#utility.yul\":7784:7792   */\n  0x00\n    /* \"#utility.yul\":7834:7839   */\n  dup3\n    /* \"#utility.yul\":7828:7832   */\n  dup3\n    /* \"#utility.yul\":7824:7840   */\n  shr\n    /* \"#utility.yul\":7803:7840   */\n  swap1\n  pop\n    /* \"#utility.yul\":7730:7847   */\n  swap3\n  swap2\n  pop\n  pop\n  jump\t// out\n    /* \"#utility.yul\":7853:8022   */\ntag_53:\n    /* \"#utility.yul\":7897:7903   */\n  0x00\n    /* \"#utility.yul\":7930:7981   */\n  tag_152\n    /* \"#utility.yul\":7978:7979   */\n  0x00\n    /* \"#utility.yul\":7974:7980   */\n  not\n    /* \"#utility.yul\":7966:7971   */\n  dup5\n    /* \"#utility.yul\":7963:7964   */\n  0x08\n    /* \"#utility.yul\":7959:7972   */\n  mul\n    /* \"#utility.yul\":7930:7981   */\n  tag_52\n  jump\t// in\ntag_152:\n    /* \"#utility.yul\":7926:7982   */\n  not\n    /* \"#utility.yul\":8011:8015   */\n  dup1\n    /* \"#utility.yul\":8005:8009   */\n  dup4\n    /* \"#utility.yul\":8001:8016   */\n  and\n    /* \"#utility.yul\":7991:8016   */\n  swap2\n  pop\n    /* \"#utility.yul\":7904:8022   */\n  pop\n    /* \"#utility.yul\":7853:8022   */\n  swap3\n  swap2\n  pop\n  pop\n  jump\t// out\n    /* \"#utility.yul\":8027:8322   */\ntag_54:\n    /* \"#utility.yul\":8103:8107   */\n  0x00\n    /* \"#utility.yul\":8249:8278   */\n  tag_154\n    /* \"#utility.yul\":8274:8277   */\n  dup4\n    /* \"#utility.yul\":8268:8272   */\n  dup4\n    /* \"#utility.yul\":8249:8278   */\n  tag_53\n  jump\t// in\ntag_154:\n    /* \"#utility.yul\":8241:8278   */\n  swap2\n  pop\n    /* \"#utility.yul\":8311:8314   */\n  dup3\n    /* \"#utility.yul\":8308:8309   */\n  0x02\n    /* \"#utility.yul\":8304:8315   */\n  mul\n    /* \"#utility.yul\":8298:8302   */\n  dup3\n    /* \"#utility.yul\":8295:8316   */\n  or\n    /* \"#utility.yul\":8287:8316   */\n  swap1\n  pop\n    /* \"#utility.yul\":8027:8322   */\n  swap3\n  swap2\n  pop\n  pop\n  jump\t// out\n    /* \"#utility.yul\":8327:9722   */\ntag_7:\n    /* \"#utility.yul\":8444:8481   */\n  tag_156\n    /* \"#utility.yul\":8477:8480   */\n  dup3\n    /* \"#utility.yul\":8444:8481   */\n  tag_37\n  jump\t// in\ntag_156:\n    /* \"#utility.yul\":8546:8564   */\n  0xffffffffffffffff\n    /* \"#utility.yul\":8538:8544   */\n  dup2\n    /* \"#utility.yul\":8535:8565   */\n  gt\n    /* \"#utility.yul\":8532:8588   */\n  iszero\n  tag_157\n  jumpi\n    /* \"#utility.yul\":8568:8586   */\n  tag_158\n  tag_27\n  jump\t// in\ntag_158:\n    /* \"#utility.yul\":8532:8588   */\ntag_157:\n    /* \"#utility.yul\":8612:8650   */\n  tag_159\n    /* \"#utility.yul\":8644:8648   */\n  dup3\n    /* \"#utility.yul\":8638:8649   */\n  sload\n    /* \"#utility.yul\":8612:8650   */\n  tag_39\n  jump\t// in\ntag_159:\n    /* \"#utility.yul\":8697:8764   */\n  tag_160\n    /* \"#utility.yul\":8757:8763   */\n  dup3\n    /* \"#utility.yul\":8749:8755   */\n  dup3\n    /* \"#utility.yul\":8743:8747   */\n  dup6\n    /* \"#utility.yul\":8697:8764   */\n  tag_51\n  jump\t// in\ntag_160:\n    /* \"#utility.yul\":8791:8792   */\n  0x00\n    /* \"#utility.yul\":8815:8819   */\n  0x20\n    /* \"#utility.yul\":8802:8819   */\n  swap1\n  pop\n    /* \"#utility.yul\":8847:8849   */\n  0x1f\n    /* \"#utility.yul\":8839:8845   */\n  dup4\n    /* \"#utility.yul\":8836:8850   */\n  gt\n    /* \"#utility.yul\":8864:8865   */\n  0x01\n    /* \"#utility.yul\":8859:9477   */\n  dup2\n  eq\n  tag_162\n  jumpi\n    /* \"#utility.yul\":9521:9522   */\n  0x00\n    /* \"#utility.yul\":9538:9544   */\n  dup5\n    /* \"#utility.yul\":9535:9612   */\n  iszero\n  tag_163\n  jumpi\n    /* \"#utility.yul\":9587:9596   */\n  dup3\n    /* \"#utility.yul\":9582:9585   */\n  dup8\n    /* \"#utility.yul\":9578:9597   */\n  add\n    /* \"#utility.yul\":9572:9598   */\n  mload\n    /* \"#utility.yul\":9563:9598   */\n  swap1\n  pop\n    /* \"#utility.yul\":9535:9612   */\ntag_163:\n    /* \"#utility.yul\":9638:9705   */\n  tag_164\n    /* \"#utility.yul\":9698:9704   */\n  dup6\n    /* \"#utility.yul\":9691:9696   */\n  dup3\n    /* \"#utility.yul\":9638:9705   */\n  tag_54\n  jump\t// in\ntag_164:\n    /* \"#utility.yul\":9632:9636   */\n  dup7\n    /* \"#utility.yul\":9625:9706   */\n  sstore\n    /* \"#utility.yul\":9494:9716   */\n  pop\n    /* \"#utility.yul\":8829:9716   */\n  jump(tag_161)\n    /* \"#utility.yul\":8859:9477   */\ntag_162:\n    /* \"#utility.yul\":8911:8915   */\n  0x1f\n    /* \"#utility.yul\":8907:8916   */\n  not\n    /* \"#utility.yul\":8899:8905   */\n  dup5\n    /* \"#utility.yul\":8895:8917   */\n  and\n    /* \"#utility.yul\":8945:8982   */\n  tag_165\n    /* \"#utility.yul\":8977:8981   */\n  dup7\n    /* \"#utility.yul\":8945:8982   */\n  tag_40\n  jump\t// in\ntag_165:\n    /* \"#utility.yul\":9004:9005   */\n  0x00\n    /* \"#utility.yul\":9018:9226   */\ntag_166:\n    /* \"#utility.yul\":9032:9039   */\n  dup3\n    /* \"#utility.yul\":9029:9030   */\n  dup2\n    /* \"#utility.yul\":9026:9040   */\n  lt\n    /* \"#utility.yul\":9018:9226   */\n  iszero\n  tag_168\n  jumpi\n    /* \"#utility.yul\":9111:9120   */\n  dup5\n    /* \"#utility.yul\":9106:9109   */\n  dup10\n    /* \"#utility.yul\":9102:9121   */\n  add\n    /* \"#utility.yul\":9096:9122   */\n  mload\n    /* \"#utility.yul\":9088:9094   */\n  dup3\n    /* \"#utility.yul\":9081:9123   */\n  sstore\n    /* \"#utility.yul\":9162:9163   */\n  0x01\n    /* \"#utility.yul\":9154:9160   */\n  dup3\n    /* \"#utility.yul\":9150:9164   */\n  add\n    /* \"#utility.yul\":9140:9164   */\n  swap2\n  pop\n    /* \"#utility.yul\":9209:9211   */\n  0x20\n    /* \"#utility.yul\":9198:9207   */\n  dup6\n    /* \"#utility.yul\":9194:9212   */\n  add\n    /* \"#utility.yul\":9181:9212   */\n  swap5\n  pop\n    /* \"#utility.yul\":9055:9059   */\n  0x20\n    /* \"#utility.yul\":9052:9053   */\n  dup2\n    /* \"#utility.yul\":9048:9060   */\n  add\n    /* \"#utility.yul\":9043:9060   */\n  swap1\n  pop\n    /* \"#utility.yul\":9018:9226   */\n  jump(tag_166)\ntag_168:\n    /* \"#utility.yul\":9254:9260   */\n  dup7\n    /* \"#utility.yul\":9245:9252   */\n  dup4\n    /* \"#utility.yul\":9242:9261   */\n  lt\n    /* \"#utility.yul\":9239:9418   */\n  iszero\n  tag_169\n  jumpi\n    /* \"#utility.yul\":9312:9321   */\n  dup5\n    /* \"#utility.yul\":9307:9310   */\n  dup10\n    /* \"#utility.yul\":9303:9322   */\n  add\n    /* \"#utility.yul\":9297:9323   */\n  mload\n    /* \"#utility.yul\":9355:9403   */\n  tag_170\n    /* \"#utility.yul\":9397:9401   */\n  0x1f\n    /* \"#utility.yul\":9389:9395   */\n  dup10\n    /* \"#utility.yul\":9385:9402   */\n  and\n    /* \"#utility.yul\":9374:9383   */\n  dup3\n    /* \"#utility.yul\":9355:9403   */\n  tag_53\n  jump\t// in\ntag_170:\n    /* \"#utility.yul\":9347:9353   */\n  dup4\n    /* \"#utility.yul\":9340:9404   */\n  sstore\n    /* \"#utility.yul\":9262:9418   */\n  pop\n    /* \"#utility.yul\":9239:9418   */\ntag_169:\n    /* \"#utility.yul\":9464:9465   */\n  0x01\n    /* \"#utility.yul\":9460:9461   */\n  0x02\n    /* \"#utility.yul\":9452:9458   */\n  dup9\n    /* \"#utility.yul\":9448:9462   */\n  mul\n    /* \"#utility.yul\":9444:9466   */\n  add\n    /* \"#utility.yul\":9438:9442   */\n  dup9\n    /* \"#utility.yul\":9431:9467   */\n  sstore\n    /* \"#utility.yul\":8866:9477   */\n  pop\n  pop\n  pop\n    /* \"#utility.yul\":8829:9716   */\ntag_161:\n  pop\n    /* \"#utility.yul\":8419:9722   */\n  pop\n  pop\n  pop\n    /* \"#utility.yul\":8327:9722   */\n  pop\n  pop\n  jump\t// out\n    /* \"#utility.yul\":9728:9908   */\ntag_55:\n    /* \"#utility.yul\":9776:9853   */\n  0x4e487b7100000000000000000000000000000000000000000000000000000000\n    /* \"#utility.yul\":9773:9774   */\n  0x00\n    /* \"#utility.yul\":9766:9854   */\n  mstore\n    /* \"#utility.yul\":9873:9877   */\n  0x11\n    /* \"#utility.yul\":9870:9871   */\n  0x04\n    /* \"#utility.yul\":9863:9878   */\n  mstore\n    /* \"#utility.yul\":9897:9901   */\n  0x24\n    /* \"#utility.yul\":9894:9895   */\n  0x00\n    /* \"#utility.yul\":9887:9902   */\n  revert\n    /* \"#utility.yul\":9914:10324   */\ntag_10:\n    /* \"#utility.yul\":9954:9961   */\n  0x00\n    /* \"#utility.yul\":9977:9997   */\n  tag_173\n    /* \"#utility.yul\":9995:9996   */\n  dup3\n    /* \"#utility.yul\":9977:9997   */\n  tag_34\n  jump\t// in\ntag_173:\n    /* \"#utility.yul\":9972:9997   */\n  swap2\n  pop\n    /* \"#utility.yul\":10011:10031   */\n  tag_174\n    /* \"#utility.yul\":10029:10030   */\n  dup4\n    /* \"#utility.yul\":10011:10031   */\n  tag_34\n  jump\t// in\ntag_174:\n    /* \"#utility.yul\":10006:10031   */\n  swap3\n  pop\n    /* \"#utility.yul\":10066:10067   */\n  dup3\n    /* \"#utility.yul\":10063:10064   */\n  dup3\n    /* \"#utility.yul\":10059:10068   */\n  mul\n    /* \"#utility.yul\":10088:10118   */\n  tag_175\n    /* \"#utility.yul\":10106:10117   */\n  dup2\n    /* \"#utility.yul\":10088:10118   */\n  tag_34\n  jump\t// in\ntag_175:\n    /* \"#utility.yul\":10077:10118   */\n  swap2\n  pop\n    /* \"#utility.yul\":10267:10268   */\n  dup3\n    /* \"#utility.yul\":10258:10265   */\n  dup3\n    /* \"#utility.yul\":10254:10269   */\n  div\n    /* \"#utility.yul\":10251:10252   */\n  dup5\n    /* \"#utility.yul\":10248:10270   */\n  eq\n    /* \"#utility.yul\":10228:10229   */\n  dup4\n    /* \"#utility.yul\":10221:10230   */\n  iszero\n    /* \"#utility.yul\":10201:10284   */\n  or\n    /* \"#utility.yul\":10178:10317   */\n  tag_176\n  jumpi\n    /* \"#utility.yul\":10297:10315   */\n  tag_177\n  tag_55\n  jump\t// in\ntag_177:\n    /* \"#utility.yul\":10178:10317   */\ntag_176:\n    /* \"#utility.yul\":9962:10324   */\n  pop\n    /* \"#utility.yul\":9914:10324   */\n  swap3\n  swap2\n  pop\n  pop\n  jump\t// out\n    /* \"#utility.yul\":10330:10521   */\ntag_12:\n    /* \"#utility.yul\":10370:10373   */\n  0x00\n    /* \"#utility.yul\":10389:10409   */\n  tag_179\n    /* \"#utility.yul\":10407:10408   */\n  dup3\n    /* \"#utility.yul\":10389:10409   */\n  tag_34\n  jump\t// in\ntag_179:\n    /* \"#utility.yul\":10384:10409   */\n  swap2\n  pop\n    /* \"#utility.yul\":10423:10443   */\n  tag_180\n    /* \"#utility.yul\":10441:10442   */\n  dup4\n    /* \"#utility.yul\":10423:10443   */\n  tag_34\n  jump\t// in\ntag_180:\n    /* \"#utility.yul\":10418:10443   */\n  swap3\n  pop\n    /* \"#utility.yul\":10466:10467   */\n  dup3\n    /* \"#utility.yul\":10463:10464   */\n  dup3\n    /* \"#utility.yul\":10459:10468   */\n  add\n    /* \"#utility.yul\":10452:10468   */\n  swap1\n  pop\n    /* \"#utility.yul\":10487:10490   */\n  dup1\n    /* \"#utility.yul\":10484:10485   */\n  dup3\n    /* \"#utility.yul\":10481:10491   */\n  gt\n    /* \"#utility.yul\":10478:10514   */\n  iszero\n  tag_181\n  jumpi\n    /* \"#utility.yul\":10494:10512   */\n  tag_182\n  tag_55\n  jump\t// in\ntag_182:\n    /* \"#utility.yul\":10478:10514   */\ntag_181:\n    /* \"#utility.yul\":10330:10521   */\n  swap3\n  swap2\n  pop\n  pop\n  jump\t// out\n    /* \"#utility.yul\":10527:10707   */\ntag_15:\n    /* \"#utility.yul\":10575:10652   */\n  0x4e487b7100000000000000000000000000000000000000000000000000000000\n    /* \"#utility.yul\":10572:10573   */\n  0x00\n    /* \"#utility.yul\":10565:10653   */\n  mstore\n    /* \"#utility.yul\":10672:10676   */\n  0x21\n    /* \"#utility.yul\":10669:10670   */\n  0x04\n    /* \"#utility.yul\":10662:10677   */\n  mstore\n    /* \"#utility.yul\":10696:10700   */\n  0x24\n    /* \"#utility.yul\":10693:10694   */\n  0x00\n    /* \"#utility.yul\":10686:10701   */\n  revert\n    /* \"Funding.sol\":57:3733  contract Funding {... */\ntag_16:\n  dataSize(sub_0)\n  dup1\n  dataOffset(sub_0)\n  0x00\n  codecopy\n  0x00\n  return\nstop\n\nsub_0: assembly {\n        /* \"Funding.sol\":57:3733  contract Funding {... */\n      mstore(0x40, 0x80)\n      jumpi(tag_1, lt(calldatasize, 0x04))\n      shr(0xe0, calldataload(0x00))\n      dup1\n      0x7284e416\n      gt\n      tag_21\n      jumpi\n      dup1\n      0xb85dfb80\n      gt\n      tag_22\n      jumpi\n      dup1\n      0xb85dfb80\n      eq\n      tag_16\n      jumpi\n      dup1\n      0xc19d93fb\n      eq\n      tag_17\n      jumpi\n      dup1\n      0xc4ae3168\n      eq\n      tag_18\n      jumpi\n      dup1\n      0xca1d209d\n      eq\n      tag_19\n      jumpi\n      dup1\n      0xde170570\n      eq\n      tag_20\n      jumpi\n      jump(tag_1)\n    tag_22:\n      dup1\n      0x7284e416\n      eq\n      tag_11\n      jumpi\n      dup1\n      0x7497211b\n      eq\n      tag_12\n      jumpi\n      dup1\n      0x7adba527\n      eq\n      tag_13\n      jumpi\n      dup1\n      0x8da5cb5b\n      eq\n      tag_14\n      jumpi\n      dup1\n      0x8ece7b91\n      eq\n      tag_15\n      jumpi\n      jump(tag_1)\n    tag_21:\n      dup1\n      0x389b7533\n      gt\n      tag_23\n      jumpi\n      dup1\n      0x389b7533\n      eq\n      tag_6\n      jumpi\n      dup1\n      0x3ccfd60b\n      eq\n      tag_7\n      jumpi\n      dup1\n      0x40193883\n      eq\n      tag_8\n      jumpi\n      dup1\n      0x5c975abb\n      eq\n      tag_9\n      jumpi\n      dup1\n      0x6f9fb98a\n      eq\n      tag_10\n      jumpi\n      jump(tag_1)\n    tag_23:\n      dup1\n      0x039af9eb\n      eq\n      tag_2\n      jumpi\n      dup1\n      0x06fdde03\n      eq\n      tag_3\n      jumpi\n      dup1\n      0x10550515\n      eq\n      tag_4\n      jumpi\n      dup1\n      0x29dcb0cf\n      eq\n      tag_5\n      jumpi\n    tag_1:\n      revert(0x00, 0x00)\n        /* \"Funding.sol\":530:549  Tier[] public tiers */\n    tag_2:\n      callvalue\n      dup1\n      iszero\n      tag_24\n      jumpi\n      revert(0x00, 0x00)\n    tag_24:\n      pop\n      tag_25\n      0x04\n      dup1\n      calldatasize\n      sub\n      dup2\n      add\n      swap1\n      tag_26\n      swap2\n      swap1\n      tag_27\n      jump\t// in\n    tag_26:\n      tag_28\n      jump\t// in\n    tag_25:\n      mload(0x40)\n      tag_29\n      swap4\n      swap3\n      swap2\n      swap1\n      tag_30\n      jump\t// in\n    tag_29:\n      mload(0x40)\n      dup1\n      swap2\n      sub\n      swap1\n      return\n        /* \"Funding.sol\":80:98  string public name */\n    tag_3:\n      callvalue\n      dup1\n      iszero\n      tag_31\n      jumpi\n      revert(0x00, 0x00)\n    tag_31:\n      pop\n      tag_32\n      tag_33\n      jump\t// in\n    tag_32:\n      mload(0x40)\n      tag_34\n      swap2\n      swap1\n      tag_35\n      jump\t// in\n    tag_34:\n      mload(0x40)\n      dup1\n      swap2\n      sub\n      swap1\n      return\n        /* \"Funding.sol\":3324:3603  function getCampaignStatus() public view returns (CampaignState) {... */\n    tag_4:\n      callvalue\n      dup1\n      iszero\n      tag_36\n      jumpi\n      revert(0x00, 0x00)\n    tag_36:\n      pop\n      tag_37\n      tag_38\n      jump\t// in\n    tag_37:\n      mload(0x40)\n      tag_39\n      swap2\n      swap1\n      tag_40\n      jump\t// in\n    tag_39:\n      mload(0x40)\n      dup1\n      swap2\n      sub\n      swap1\n      return\n        /* \"Funding.sol\":160:183  uint256 public deadline */\n    tag_5:\n      callvalue\n      dup1\n      iszero\n      tag_41\n      jumpi\n      revert(0x00, 0x00)\n    tag_41:\n      pop\n      tag_42\n      tag_43\n      jump\t// in\n    tag_42:\n      mload(0x40)\n      tag_44\n      swap2\n      swap1\n      tag_45\n      jump\t// in\n    tag_44:\n      mload(0x40)\n      dup1\n      swap2\n      sub\n      swap1\n      return\n        /* \"Funding.sol\":3609:3731  function extendDeadline(uint256 _daysToAdd) public onlyOwner campaignOpen {... */\n    tag_6:\n      callvalue\n      dup1\n      iszero\n      tag_46\n      jumpi\n      revert(0x00, 0x00)\n    tag_46:\n      pop\n      tag_47\n      0x04\n      dup1\n      calldatasize\n      sub\n      dup2\n      add\n      swap1\n      tag_48\n      swap2\n      swap1\n      tag_27\n      jump\t// in\n    tag_48:\n      tag_49\n      jump\t// in\n    tag_47:\n      stop\n        /* \"Funding.sol\":2563:2875  function withdraw() public onlyOwner {... */\n    tag_7:\n      callvalue\n      dup1\n      iszero\n      tag_50\n      jumpi\n      revert(0x00, 0x00)\n    tag_50:\n      pop\n      tag_51\n      tag_52\n      jump\t// in\n    tag_51:\n      stop\n        /* \"Funding.sol\":135:154  uint256 public goal */\n    tag_8:\n      callvalue\n      dup1\n      iszero\n      tag_53\n      jumpi\n      revert(0x00, 0x00)\n    tag_53:\n      pop\n      tag_54\n      tag_55\n      jump\t// in\n    tag_54:\n      mload(0x40)\n      tag_56\n      swap2\n      swap1\n      tag_45\n      jump\t// in\n    tag_56:\n      mload(0x40)\n      dup1\n      swap2\n      sub\n      swap1\n      return\n        /* \"Funding.sol\":215:233  bool public paused */\n    tag_9:\n      callvalue\n      dup1\n      iszero\n      tag_57\n      jumpi\n      revert(0x00, 0x00)\n    tag_57:\n      pop\n      tag_58\n      tag_59\n      jump\t// in\n    tag_58:\n      mload(0x40)\n      tag_60\n      swap2\n      swap1\n      tag_61\n      jump\t// in\n    tag_60:\n      mload(0x40)\n      dup1\n      swap2\n      sub\n      swap1\n      return\n        /* \"Funding.sol\":2881:2986  function getContractBalance() public view returns (uint256) {... */\n    tag_10:\n      callvalue\n      dup1\n      iszero\n      tag_62\n      jumpi\n      revert(0x00, 0x00)\n    tag_62:\n      pop\n      tag_63\n      tag_64\n      jump\t// in\n    tag_63:\n      mload(0x40)\n      tag_65\n      swap2\n      swap1\n      tag_45\n      jump\t// in\n    tag_65:\n      mload(0x40)\n      dup1\n      swap2\n      sub\n      swap1\n      return\n        /* \"Funding.sol\":104:129  string public description */\n    tag_11:\n      callvalue\n      dup1\n      iszero\n      tag_66\n      jumpi\n      revert(0x00, 0x00)\n    tag_66:\n      pop\n      tag_67\n      tag_68\n      jump\t// in\n    tag_67:\n      mload(0x40)\n      tag_69\n      swap2\n      swap1\n      tag_35\n      jump\t// in\n    tag_69:\n      mload(0x40)\n      dup1\n      swap2\n      sub\n      swap1\n      return\n        /* \"Funding.sol\":2364:2557  function removeTier(uint256 _index) public onlyOwner {... */\n    tag_12:\n      callvalue\n      dup1\n      iszero\n      tag_70\n      jumpi\n      revert(0x00, 0x00)\n    tag_70:\n      pop\n      tag_71\n      0x04\n      dup1\n      calldatasize\n      sub\n      dup2\n      add\n      swap1\n      tag_72\n      swap2\n      swap1\n      tag_27\n      jump\t// in\n    tag_72:\n      tag_73\n      jump\t// in\n    tag_71:\n      stop\n        /* \"Funding.sol\":2997:3148  function hasFundedTier(address _backer, uint256 _tierIndex) public view returns (bool) {... */\n    tag_13:\n      callvalue\n      dup1\n      iszero\n      tag_74\n      jumpi\n      revert(0x00, 0x00)\n    tag_74:\n      pop\n      tag_75\n      0x04\n      dup1\n      calldatasize\n      sub\n      dup2\n      add\n      swap1\n      tag_76\n      swap2\n      swap1\n      tag_77\n      jump\t// in\n    tag_76:\n      tag_78\n      jump\t// in\n    tag_75:\n      mload(0x40)\n      tag_79\n      swap2\n      swap1\n      tag_61\n      jump\t// in\n    tag_79:\n      mload(0x40)\n      dup1\n      swap2\n      sub\n      swap1\n      return\n        /* \"Funding.sol\":189:209  address public owner */\n    tag_14:\n      callvalue\n      dup1\n      iszero\n      tag_80\n      jumpi\n      revert(0x00, 0x00)\n    tag_80:\n      pop\n      tag_81\n      tag_82\n      jump\t// in\n    tag_81:\n      mload(0x40)\n      tag_83\n      swap2\n      swap1\n      tag_84\n      jump\t// in\n    tag_83:\n      mload(0x40)\n      dup1\n      swap2\n      sub\n      swap1\n      return\n        /* \"Funding.sol\":2148:2358  function addTier(... */\n    tag_15:\n      callvalue\n      dup1\n      iszero\n      tag_85\n      jumpi\n      revert(0x00, 0x00)\n    tag_85:\n      pop\n      tag_86\n      0x04\n      dup1\n      calldatasize\n      sub\n      dup2\n      add\n      swap1\n      tag_87\n      swap2\n      swap1\n      tag_88\n      jump\t// in\n    tag_87:\n      tag_89\n      jump\t// in\n    tag_86:\n      stop\n        /* \"Funding.sol\":555:596  mapping(address => Backer) public backers */\n    tag_16:\n      callvalue\n      dup1\n      iszero\n      tag_90\n      jumpi\n      revert(0x00, 0x00)\n    tag_90:\n      pop\n      tag_91\n      0x04\n      dup1\n      calldatasize\n      sub\n      dup2\n      add\n      swap1\n      tag_92\n      swap2\n      swap1\n      tag_93\n      jump\t// in\n    tag_92:\n      tag_94\n      jump\t// in\n    tag_91:\n      mload(0x40)\n      tag_95\n      swap2\n      swap1\n      tag_45\n      jump\t// in\n    tag_95:\n      mload(0x40)\n      dup1\n      swap2\n      sub\n      swap1\n      return\n        /* \"Funding.sol\":294:320  CampaignState public state */\n    tag_17:\n      callvalue\n      dup1\n      iszero\n      tag_96\n      jumpi\n      revert(0x00, 0x00)\n    tag_96:\n      pop\n      tag_97\n      tag_98\n      jump\t// in\n    tag_97:\n      mload(0x40)\n      tag_99\n      swap2\n      swap1\n      tag_40\n      jump\t// in\n    tag_99:\n      mload(0x40)\n      dup1\n      swap2\n      sub\n      swap1\n      return\n        /* \"Funding.sol\":3245:3318  function togglePause() public onlyOwner {... */\n    tag_18:\n      callvalue\n      dup1\n      iszero\n      tag_100\n      jumpi\n      revert(0x00, 0x00)\n    tag_100:\n      pop\n      tag_101\n      tag_102\n      jump\t// in\n    tag_101:\n      stop\n        /* \"Funding.sol\":1727:2142  function fund(uint256 _tierIndex) public payable campaignOpen notPaused {... */\n    tag_19:\n      tag_103\n      0x04\n      dup1\n      calldatasize\n      sub\n      dup2\n      add\n      swap1\n      tag_104\n      swap2\n      swap1\n      tag_27\n      jump\t// in\n    tag_104:\n      tag_105\n      jump\t// in\n    tag_103:\n      stop\n        /* \"Funding.sol\":3154:3239  function getTiers() public view returns (Tier[] memory) {... */\n    tag_20:\n      callvalue\n      dup1\n      iszero\n      tag_106\n      jumpi\n      revert(0x00, 0x00)\n    tag_106:\n      pop\n      tag_107\n      tag_108\n      jump\t// in\n    tag_107:\n      mload(0x40)\n      tag_109\n      swap2\n      swap1\n      tag_110\n      jump\t// in\n    tag_109:\n      mload(0x40)\n      dup1\n      swap2\n      sub\n      swap1\n      return\n        /* \"Funding.sol\":530:549  Tier[] public tiers */\n    tag_28:\n      0x05\n      dup2\n      dup2\n      sload\n      dup2\n      lt\n      tag_111\n      jumpi\n      0x00\n      dup1\n      revert\n    tag_111:\n      swap1\n      0x00\n      mstore\n      keccak256(0x00, 0x20)\n      swap1\n      0x03\n      mul\n      add\n      0x00\n      swap2\n      pop\n      swap1\n      pop\n      dup1\n      0x00\n      add\n      dup1\n      sload\n      tag_113\n      swap1\n      tag_114\n      jump\t// in\n    tag_113:\n      dup1\n      0x1f\n      add\n      0x20\n      dup1\n      swap2\n      div\n      mul\n      0x20\n      add\n      mload(0x40)\n      swap1\n      dup2\n      add\n      0x40\n      mstore\n      dup1\n      swap3\n      swap2\n      swap1\n      dup2\n      dup2\n      mstore\n      0x20\n      add\n      dup3\n      dup1\n      sload\n      tag_115\n      swap1\n      tag_114\n      jump\t// in\n    tag_115:\n      dup1\n      iszero\n      tag_116\n      jumpi\n      dup1\n      0x1f\n      lt\n      tag_117\n      jumpi\n      0x0100\n      dup1\n      dup4\n      sload\n      div\n      mul\n      dup4\n      mstore\n      swap2\n      0x20\n      add\n      swap2\n      jump(tag_116)\n    tag_117:\n      dup3\n      add\n      swap2\n      swap1\n      0x00\n      mstore\n      keccak256(0x00, 0x20)\n      swap1\n    tag_118:\n      dup2\n      sload\n      dup2\n      mstore\n      swap1\n      0x01\n      add\n      swap1\n      0x20\n      add\n      dup1\n      dup4\n      gt\n      tag_118\n      jumpi\n      dup3\n      swap1\n      sub\n      0x1f\n      and\n      dup3\n      add\n      swap2\n    tag_116:\n      pop\n      pop\n      pop\n      pop\n      pop\n      swap1\n      dup1\n      0x01\n      add\n      sload\n      swap1\n      dup1\n      0x02\n      add\n      sload\n      swap1\n      pop\n      dup4\n      jump\t// out\n        /* \"Funding.sol\":80:98  string public name */\n    tag_33:\n      0x00\n      dup1\n      sload\n      tag_119\n      swap1\n      tag_114\n      jump\t// in\n    tag_119:\n      dup1\n      0x1f\n      add\n      0x20\n      dup1\n      swap2\n      div\n      mul\n      0x20\n      add\n      mload(0x40)\n      swap1\n      dup2\n      add\n      0x40\n      mstore\n      dup1\n      swap3\n      swap2\n      swap1\n      dup2\n      dup2\n      mstore\n      0x20\n      add\n      dup3\n      dup1\n      sload\n      tag_120\n      swap1\n      tag_114\n      jump\t// in\n    tag_120:\n      dup1\n      iszero\n      tag_121\n      jumpi\n      dup1\n      0x1f\n      lt\n      tag_122\n      jumpi\n      0x0100\n      dup1\n      dup4\n      sload\n      div\n      mul\n      dup4\n      mstore\n      swap2\n      0x20\n      add\n      swap2\n      jump(tag_121)\n    tag_122:\n      dup3\n      add\n      swap2\n      swap1\n      0x00\n      mstore\n      keccak256(0x00, 0x20)\n      swap1\n    tag_123:\n      dup2\n      sload\n      dup2\n      mstore\n      swap1\n      0x01\n      add\n      swap1\n      0x20\n      add\n      dup1\n      dup4\n      gt\n      tag_123\n      jumpi\n      dup3\n      swap1\n      sub\n      0x1f\n      and\n      dup3\n      add\n      swap2\n    tag_121:\n      pop\n      pop\n      pop\n      pop\n      pop\n      dup2\n      jump\t// out\n        /* \"Funding.sol\":3324:3603  function getCampaignStatus() public view returns (CampaignState) {... */\n    tag_38:\n        /* \"Funding.sol\":3374:3387  CampaignState */\n      0x00\n        /* \"Funding.sol\":3412:3432  CampaignState.Active */\n      0x00\n        /* \"Funding.sol\":3403:3432  state == CampaignState.Active */\n      0x02\n      dup2\n      gt\n      iszero\n      tag_125\n      jumpi\n      tag_126\n      tag_127\n      jump\t// in\n    tag_126:\n    tag_125:\n        /* \"Funding.sol\":3403:3408  state */\n      0x04\n      0x15\n      swap1\n      sload\n      swap1\n      0x0100\n      exp\n      swap1\n      div\n      0xff\n      and\n        /* \"Funding.sol\":3403:3432  state == CampaignState.Active */\n      0x02\n      dup2\n      gt\n      iszero\n      tag_128\n      jumpi\n      tag_129\n      tag_127\n      jump\t// in\n    tag_129:\n    tag_128:\n      eq\n        /* \"Funding.sol\":3403:3462  state == CampaignState.Active && block.timestamp > deadline */\n      dup1\n      iszero\n      tag_130\n      jumpi\n      pop\n        /* \"Funding.sol\":3454:3462  deadline */\n      sload(0x03)\n        /* \"Funding.sol\":3436:3451  block.timestamp */\n      timestamp\n        /* \"Funding.sol\":3436:3462  block.timestamp > deadline */\n      gt\n        /* \"Funding.sol\":3403:3462  state == CampaignState.Active && block.timestamp > deadline */\n    tag_130:\n        /* \"Funding.sol\":3399:3575  if (state == CampaignState.Active && block.timestamp > deadline) {... */\n      iszero\n      tag_131\n      jumpi\n        /* \"Funding.sol\":3510:3514  goal */\n      sload(0x02)\n        /* \"Funding.sol\":3485:3506  address(this).balance */\n      selfbalance\n        /* \"Funding.sol\":3485:3514  address(this).balance >= goal */\n      lt\n      iszero\n        /* \"Funding.sol\":3485:3564  address(this).balance >= goal ? CampaignState.Successful : CampaignState.Failed */\n      tag_132\n      jumpi\n        /* \"Funding.sol\":3544:3564  CampaignState.Failed */\n      0x02\n        /* \"Funding.sol\":3485:3564  address(this).balance >= goal ? CampaignState.Successful : CampaignState.Failed */\n      jump(tag_133)\n    tag_132:\n        /* \"Funding.sol\":3517:3541  CampaignState.Successful */\n      0x01\n        /* \"Funding.sol\":3485:3564  address(this).balance >= goal ? CampaignState.Successful : CampaignState.Failed */\n    tag_133:\n        /* \"Funding.sol\":3478:3564  return address(this).balance >= goal ? CampaignState.Successful : CampaignState.Failed */\n      swap1\n      pop\n      jump(tag_124)\n        /* \"Funding.sol\":3399:3575  if (state == CampaignState.Active && block.timestamp > deadline) {... */\n    tag_131:\n        /* \"Funding.sol\":3591:3596  state */\n      0x04\n      0x15\n      swap1\n      sload\n      swap1\n      0x0100\n      exp\n      swap1\n      div\n      0xff\n      and\n        /* \"Funding.sol\":3584:3596  return state */\n      swap1\n      pop\n        /* \"Funding.sol\":3324:3603  function getCampaignStatus() public view returns (CampaignState) {... */\n    tag_124:\n      swap1\n      jump\t// out\n        /* \"Funding.sol\":160:183  uint256 public deadline */\n    tag_43:\n      sload(0x03)\n      dup2\n      jump\t// out\n        /* \"Funding.sol\":3609:3731  function extendDeadline(uint256 _daysToAdd) public onlyOwner campaignOpen {... */\n    tag_49:\n        /* \"Funding.sol\":656:661  owner */\n      0x04\n      0x00\n      swap1\n      sload\n      swap1\n      0x0100\n      exp\n      swap1\n      div\n      0xffffffffffffffffffffffffffffffffffffffff\n      and\n        /* \"Funding.sol\":642:661  msg.sender == owner */\n      0xffffffffffffffffffffffffffffffffffffffff\n      and\n        /* \"Funding.sol\":642:652  msg.sender */\n      caller\n        /* \"Funding.sol\":642:661  msg.sender == owner */\n      0xffffffffffffffffffffffffffffffffffffffff\n      and\n      eq\n        /* \"Funding.sol\":634:679  require(msg.sender == owner, \"Not the owner\") */\n      tag_135\n      jumpi\n      mload(0x40)\n      0x08c379a000000000000000000000000000000000000000000000000000000000\n      dup2\n      mstore\n      0x04\n      add\n      tag_136\n      swap1\n      tag_137\n      jump\t// in\n    tag_136:\n      mload(0x40)\n      dup1\n      swap2\n      sub\n      swap1\n      revert\n    tag_135:\n        /* \"Funding.sol\":754:774  CampaignState.Active */\n      0x00\n        /* \"Funding.sol\":745:774  state == CampaignState.Active */\n      0x02\n      dup2\n      gt\n      iszero\n      tag_139\n      jumpi\n      tag_140\n      tag_127\n      jump\t// in\n    tag_140:\n    tag_139:\n        /* \"Funding.sol\":745:750  state */\n      0x04\n      0x15\n      swap1\n      sload\n      swap1\n      0x0100\n      exp\n      swap1\n      div\n      0xff\n      and\n        /* \"Funding.sol\":745:774  state == CampaignState.Active */\n      0x02\n      dup2\n      gt\n      iszero\n      tag_141\n      jumpi\n      tag_142\n      tag_127\n      jump\t// in\n    tag_142:\n    tag_141:\n      eq\n        /* \"Funding.sol\":737:802  require(state == CampaignState.Active, \"Campaign is not active.\") */\n      tag_143\n      jumpi\n      mload(0x40)\n      0x08c379a000000000000000000000000000000000000000000000000000000000\n      dup2\n      mstore\n      0x04\n      add\n      tag_144\n      swap1\n      tag_145\n      jump\t// in\n    tag_144:\n      mload(0x40)\n      dup1\n      swap2\n      sub\n      swap1\n      revert\n    tag_143:\n        /* \"Funding.sol\":3718:3724  1 days */\n      0x015180\n        /* \"Funding.sol\":3705:3715  _daysToAdd */\n      dup2\n        /* \"Funding.sol\":3705:3724  _daysToAdd * 1 days */\n      tag_147\n      swap2\n      swap1\n      tag_148\n      jump\t// in\n    tag_147:\n        /* \"Funding.sol\":3693:3701  deadline */\n      0x03\n      0x00\n        /* \"Funding.sol\":3693:3724  deadline += _daysToAdd * 1 days */\n      dup3\n      dup3\n      sload\n      tag_149\n      swap2\n      swap1\n      tag_150\n      jump\t// in\n    tag_149:\n      swap3\n      pop\n      pop\n      dup2\n      swap1\n      sstore\n      pop\n        /* \"Funding.sol\":3609:3731  function extendDeadline(uint256 _daysToAdd) public onlyOwner campaignOpen {... */\n      pop\n      jump\t// out\n        /* \"Funding.sol\":2563:2875  function withdraw() public onlyOwner {... */\n    tag_52:\n        /* \"Funding.sol\":656:661  owner */\n      0x04\n      0x00\n      swap1\n      sload\n      swap1\n      0x0100\n      exp\n      swap1\n      div\n      0xffffffffffffffffffffffffffffffffffffffff\n      and\n        /* \"Funding.sol\":642:661  msg.sender == owner */\n      0xffffffffffffffffffffffffffffffffffffffff\n      and\n        /* \"Funding.sol\":642:652  msg.sender */\n      caller\n        /* \"Funding.sol\":642:661  msg.sender == owner */\n      0xffffffffffffffffffffffffffffffffffffffff\n      and\n      eq\n        /* \"Funding.sol\":634:679  require(msg.sender == owner, \"Not the owner\") */\n      tag_152\n      jumpi\n      mload(0x40)\n      0x08c379a000000000000000000000000000000000000000000000000000000000\n      dup2\n      mstore\n      0x04\n      add\n      tag_153\n      swap1\n      tag_137\n      jump\t// in\n    tag_153:\n      mload(0x40)\n      dup1\n      swap2\n      sub\n      swap1\n      revert\n    tag_152:\n        /* \"Funding.sol\":2610:2639  checkAndUpdateCampaignState() */\n      tag_155\n        /* \"Funding.sol\":2610:2637  checkAndUpdateCampaignState */\n      tag_156\n        /* \"Funding.sol\":2610:2639  checkAndUpdateCampaignState() */\n      jump\t// in\n    tag_155:\n        /* \"Funding.sol\":2666:2690  CampaignState.Successful */\n      0x01\n        /* \"Funding.sol\":2657:2690  state == CampaignState.Successful */\n      0x02\n      dup2\n      gt\n      iszero\n      tag_157\n      jumpi\n      tag_158\n      tag_127\n      jump\t// in\n    tag_158:\n    tag_157:\n        /* \"Funding.sol\":2657:2662  state */\n      0x04\n      0x15\n      swap1\n      sload\n      swap1\n      0x0100\n      exp\n      swap1\n      div\n      0xff\n      and\n        /* \"Funding.sol\":2657:2690  state == CampaignState.Successful */\n      0x02\n      dup2\n      gt\n      iszero\n      tag_159\n      jumpi\n      tag_160\n      tag_127\n      jump\t// in\n    tag_160:\n    tag_159:\n      eq\n        /* \"Funding.sol\":2649:2719  require(state == CampaignState.Successful, \"Campaign not successful.\") */\n      tag_161\n      jumpi\n      mload(0x40)\n      0x08c379a000000000000000000000000000000000000000000000000000000000\n      dup2\n      mstore\n      0x04\n      add\n      tag_162\n      swap1\n      tag_163\n      jump\t// in\n    tag_162:\n      mload(0x40)\n      dup1\n      swap2\n      sub\n      swap1\n      revert\n    tag_161:\n        /* \"Funding.sol\":2730:2745  uint256 balance */\n      0x00\n        /* \"Funding.sol\":2748:2769  address(this).balance */\n      selfbalance\n        /* \"Funding.sol\":2730:2769  uint256 balance = address(this).balance */\n      swap1\n      pop\n        /* \"Funding.sol\":2797:2798  0 */\n      0x00\n        /* \"Funding.sol\":2787:2794  balance */\n      dup2\n        /* \"Funding.sol\":2787:2798  balance > 0 */\n      gt\n        /* \"Funding.sol\":2779:2825  require(balance > 0, \"No balance to withdraw\") */\n      tag_164\n      jumpi\n      mload(0x40)\n      0x08c379a000000000000000000000000000000000000000000000000000000000\n      dup2\n      mstore\n      0x04\n      add\n      tag_165\n      swap1\n      tag_166\n      jump\t// in\n    tag_165:\n      mload(0x40)\n      dup1\n      swap2\n      sub\n      swap1\n      revert\n    tag_164:\n        /* \"Funding.sol\":2844:2849  owner */\n      0x04\n      0x00\n      swap1\n      sload\n      swap1\n      0x0100\n      exp\n      swap1\n      div\n      0xffffffffffffffffffffffffffffffffffffffff\n      and\n        /* \"Funding.sol\":2836:2859  payable(owner).transfer */\n      0xffffffffffffffffffffffffffffffffffffffff\n      and\n        /* \"Funding.sol\":2836:2868  payable(owner).transfer(balance) */\n      0x08fc\n        /* \"Funding.sol\":2860:2867  balance */\n      dup3\n        /* \"Funding.sol\":2836:2868  payable(owner).transfer(balance) */\n      swap1\n      dup2\n      iszero\n      mul\n      swap1\n      mload(0x40)\n      0x00\n      mload(0x40)\n      dup1\n      dup4\n      sub\n      dup2\n      dup6\n      dup9\n      dup9\n      call\n      swap4\n      pop\n      pop\n      pop\n      pop\n      iszero\n      dup1\n      iszero\n      tag_168\n      jumpi\n      returndatacopy(0x00, 0x00, returndatasize)\n      revert(0x00, returndatasize)\n    tag_168:\n      pop\n        /* \"Funding.sol\":2600:2875  {... */\n      pop\n        /* \"Funding.sol\":2563:2875  function withdraw() public onlyOwner {... */\n      jump\t// out\n        /* \"Funding.sol\":135:154  uint256 public goal */\n    tag_55:\n      sload(0x02)\n      dup2\n      jump\t// out\n        /* \"Funding.sol\":215:233  bool public paused */\n    tag_59:\n      0x04\n      0x14\n      swap1\n      sload\n      swap1\n      0x0100\n      exp\n      swap1\n      div\n      0xff\n      and\n      dup2\n      jump\t// out\n        /* \"Funding.sol\":2881:2986  function getContractBalance() public view returns (uint256) {... */\n    tag_64:\n        /* \"Funding.sol\":2932:2939  uint256 */\n      0x00\n        /* \"Funding.sol\":2958:2979  address(this).balance */\n      selfbalance\n        /* \"Funding.sol\":2951:2979  return address(this).balance */\n      swap1\n      pop\n        /* \"Funding.sol\":2881:2986  function getContractBalance() public view returns (uint256) {... */\n      swap1\n      jump\t// out\n        /* \"Funding.sol\":104:129  string public description */\n    tag_68:\n      0x01\n      dup1\n      sload\n      tag_170\n      swap1\n      tag_114\n      jump\t// in\n    tag_170:\n      dup1\n      0x1f\n      add\n      0x20\n      dup1\n      swap2\n      div\n      mul\n      0x20\n      add\n      mload(0x40)\n      swap1\n      dup2\n      add\n      0x40\n      mstore\n      dup1\n      swap3\n      swap2\n      swap1\n      dup2\n      dup2\n      mstore\n      0x20\n      add\n      dup3\n      dup1\n      sload\n      tag_171\n      swap1\n      tag_114\n      jump\t// in\n    tag_171:\n      dup1\n      iszero\n      tag_172\n      jumpi\n      dup1\n      0x1f\n      lt\n      tag_173\n      jumpi\n      0x0100\n      dup1\n      dup4\n      sload\n      div\n      mul\n      dup4\n      mstore\n      swap2\n      0x20\n      add\n      swap2\n      jump(tag_172)\n    tag_173:\n      dup3\n      add\n      swap2\n      swap1\n      0x00\n      mstore\n      keccak256(0x00, 0x20)\n      swap1\n    tag_174:\n      dup2\n      sload\n      dup2\n      mstore\n      swap1\n      0x01\n      add\n      swap1\n      0x20\n      add\n      dup1\n      dup4\n      gt\n      tag_174\n      jumpi\n      dup3\n      swap1\n      sub\n      0x1f\n      and\n      dup3\n      add\n      swap2\n    tag_172:\n      pop\n      pop\n      pop\n      pop\n      pop\n      dup2\n      jump\t// out\n        /* \"Funding.sol\":2364:2557  function removeTier(uint256 _index) public onlyOwner {... */\n    tag_73:\n        /* \"Funding.sol\":656:661  owner */\n      0x04\n      0x00\n      swap1\n      sload\n      swap1\n      0x0100\n      exp\n      swap1\n      div\n      0xffffffffffffffffffffffffffffffffffffffff\n      and\n        /* \"Funding.sol\":642:661  msg.sender == owner */\n      0xffffffffffffffffffffffffffffffffffffffff\n      and\n        /* \"Funding.sol\":642:652  msg.sender */\n      caller\n        /* \"Funding.sol\":642:661  msg.sender == owner */\n      0xffffffffffffffffffffffffffffffffffffffff\n      and\n      eq\n        /* \"Funding.sol\":634:679  require(msg.sender == owner, \"Not the owner\") */\n      tag_176\n      jumpi\n      mload(0x40)\n      0x08c379a000000000000000000000000000000000000000000000000000000000\n      dup2\n      mstore\n      0x04\n      add\n      tag_177\n      swap1\n      tag_137\n      jump\t// in\n    tag_177:\n      mload(0x40)\n      dup1\n      swap2\n      sub\n      swap1\n      revert\n    tag_176:\n        /* \"Funding.sol\":2444:2449  tiers */\n      0x05\n        /* \"Funding.sol\":2444:2456  tiers.length */\n      dup1\n      sload\n      swap1\n      pop\n        /* \"Funding.sol\":2435:2441  _index */\n      dup2\n        /* \"Funding.sol\":2435:2456  _index < tiers.length */\n      lt\n        /* \"Funding.sol\":2427:2481  require(_index < tiers.length, \"Tier does not exist.\") */\n      tag_179\n      jumpi\n      mload(0x40)\n      0x08c379a000000000000000000000000000000000000000000000000000000000\n      dup2\n      mstore\n      0x04\n      add\n      tag_180\n      swap1\n      tag_181\n      jump\t// in\n    tag_180:\n      mload(0x40)\n      dup1\n      swap2\n      sub\n      swap1\n      revert\n    tag_179:\n        /* \"Funding.sol\":2507:2512  tiers */\n      0x05\n        /* \"Funding.sol\":2527:2528  1 */\n      0x01\n        /* \"Funding.sol\":2513:2518  tiers */\n      0x05\n        /* \"Funding.sol\":2513:2525  tiers.length */\n      dup1\n      sload\n      swap1\n      pop\n        /* \"Funding.sol\":2513:2528  tiers.length -1 */\n      tag_182\n      swap2\n      swap1\n      tag_183\n      jump\t// in\n    tag_182:\n        /* \"Funding.sol\":2507:2529  tiers[tiers.length -1] */\n      dup2\n      sload\n      dup2\n      lt\n      tag_184\n      jumpi\n      tag_185\n      tag_186\n      jump\t// in\n    tag_185:\n    tag_184:\n      swap1\n      0x00\n      mstore\n      keccak256(0x00, 0x20)\n      swap1\n      0x03\n      mul\n      add\n        /* \"Funding.sol\":2491:2496  tiers */\n      0x05\n        /* \"Funding.sol\":2497:2503  _index */\n      dup3\n        /* \"Funding.sol\":2491:2504  tiers[_index] */\n      dup2\n      sload\n      dup2\n      lt\n      tag_188\n      jumpi\n      tag_189\n      tag_186\n      jump\t// in\n    tag_189:\n    tag_188:\n      swap1\n      0x00\n      mstore\n      keccak256(0x00, 0x20)\n      swap1\n      0x03\n      mul\n      add\n        /* \"Funding.sol\":2491:2529  tiers[_index] = tiers[tiers.length -1] */\n      0x00\n      dup3\n      add\n      dup2\n      0x00\n      add\n      swap1\n      dup2\n      tag_191\n      swap2\n      swap1\n      tag_192\n      jump\t// in\n    tag_191:\n      pop\n      0x01\n      dup3\n      add\n      sload\n      dup2\n      0x01\n      add\n      sstore\n      0x02\n      dup3\n      add\n      sload\n      dup2\n      0x02\n      add\n      sstore\n      swap1\n      pop\n      pop\n        /* \"Funding.sol\":2539:2544  tiers */\n      0x05\n        /* \"Funding.sol\":2539:2550  tiers.pop() */\n      dup1\n      sload\n      dup1\n      tag_193\n      jumpi\n      tag_194\n      tag_195\n      jump\t// in\n    tag_194:\n    tag_193:\n      0x01\n      swap1\n      sub\n      dup2\n      dup2\n      swap1\n      0x00\n      mstore\n      keccak256(0x00, 0x20)\n      swap1\n      0x03\n      mul\n      add\n      0x00\n      0x00\n      dup3\n      add\n      0x00\n      tag_197\n      swap2\n      swap1\n      tag_198\n      jump\t// in\n    tag_197:\n      0x01\n      dup3\n      add\n      0x00\n      swap1\n      sstore\n      0x02\n      dup3\n      add\n      0x00\n      swap1\n      sstore\n      pop\n      pop\n      swap1\n      sstore\n        /* \"Funding.sol\":2364:2557  function removeTier(uint256 _index) public onlyOwner {... */\n      pop\n      jump\t// out\n        /* \"Funding.sol\":2997:3148  function hasFundedTier(address _backer, uint256 _tierIndex) public view returns (bool) {... */\n    tag_78:\n        /* \"Funding.sol\":3078:3082  bool */\n      0x00\n        /* \"Funding.sol\":3101:3108  backers */\n      0x06\n        /* \"Funding.sol\":3101:3117  backers[_backer] */\n      0x00\n        /* \"Funding.sol\":3109:3116  _backer */\n      dup5\n        /* \"Funding.sol\":3101:3117  backers[_backer] */\n      0xffffffffffffffffffffffffffffffffffffffff\n      and\n      0xffffffffffffffffffffffffffffffffffffffff\n      and\n      dup2\n      mstore\n      0x20\n      add\n      swap1\n      dup2\n      mstore\n      0x20\n      add\n      0x00\n      keccak256\n        /* \"Funding.sol\":3101:3129  backers[_backer].fundedTiers */\n      0x01\n      add\n        /* \"Funding.sol\":3101:3141  backers[_backer].fundedTiers[_tierIndex] */\n      0x00\n        /* \"Funding.sol\":3130:3140  _tierIndex */\n      dup4\n        /* \"Funding.sol\":3101:3141  backers[_backer].fundedTiers[_tierIndex] */\n      dup2\n      mstore\n      0x20\n      add\n      swap1\n      dup2\n      mstore\n      0x20\n      add\n      0x00\n      keccak256\n      0x00\n      swap1\n      sload\n      swap1\n      0x0100\n      exp\n      swap1\n      div\n      0xff\n      and\n        /* \"Funding.sol\":3094:3141  return backers[_backer].fundedTiers[_tierIndex] */\n      swap1\n      pop\n        /* \"Funding.sol\":2997:3148  function hasFundedTier(address _backer, uint256 _tierIndex) public view returns (bool) {... */\n      swap3\n      swap2\n      pop\n      pop\n      jump\t// out\n        /* \"Funding.sol\":189:209  address public owner */\n    tag_82:\n      0x04\n      0x00\n      swap1\n      sload\n      swap1\n      0x0100\n      exp\n      swap1\n      div\n      0xffffffffffffffffffffffffffffffffffffffff\n      and\n      dup2\n      jump\t// out\n        /* \"Funding.sol\":2148:2358  function addTier(... */\n    tag_89:\n        /* \"Funding.sol\":656:661  owner */\n      0x04\n      0x00\n      swap1\n      sload\n      swap1\n      0x0100\n      exp\n      swap1\n      div\n      0xffffffffffffffffffffffffffffffffffffffff\n      and\n        /* \"Funding.sol\":642:661  msg.sender == owner */\n      0xffffffffffffffffffffffffffffffffffffffff\n      and\n        /* \"Funding.sol\":642:652  msg.sender */\n      caller\n        /* \"Funding.sol\":642:661  msg.sender == owner */\n      0xffffffffffffffffffffffffffffffffffffffff\n      and\n      eq\n        /* \"Funding.sol\":634:679  require(msg.sender == owner, \"Not the owner\") */\n      tag_201\n      jumpi\n      mload(0x40)\n      0x08c379a000000000000000000000000000000000000000000000000000000000\n      dup2\n      mstore\n      0x04\n      add\n      tag_202\n      swap1\n      tag_137\n      jump\t// in\n    tag_202:\n      mload(0x40)\n      dup1\n      swap2\n      sub\n      swap1\n      revert\n    tag_201:\n        /* \"Funding.sol\":2270:2271  0 */\n      0x00\n        /* \"Funding.sol\":2260:2267  _amount */\n      dup2\n        /* \"Funding.sol\":2260:2271  _amount > 0 */\n      gt\n        /* \"Funding.sol\":2252:2306  require(_amount > 0, \"Amount must be greater than 0.\") */\n      tag_204\n      jumpi\n      mload(0x40)\n      0x08c379a000000000000000000000000000000000000000000000000000000000\n      dup2\n      mstore\n      0x04\n      add\n      tag_205\n      swap1\n      tag_206\n      jump\t// in\n    tag_205:\n      mload(0x40)\n      dup1\n      swap2\n      sub\n      swap1\n      revert\n    tag_204:\n        /* \"Funding.sol\":2316:2321  tiers */\n      0x05\n        /* \"Funding.sol\":2327:2350  Tier(_name, _amount, 0) */\n      mload(0x40)\n      dup1\n      0x60\n      add\n      0x40\n      mstore\n      dup1\n        /* \"Funding.sol\":2332:2337  _name */\n      dup5\n        /* \"Funding.sol\":2327:2350  Tier(_name, _amount, 0) */\n      dup2\n      mstore\n      0x20\n      add\n        /* \"Funding.sol\":2339:2346  _amount */\n      dup4\n        /* \"Funding.sol\":2327:2350  Tier(_name, _amount, 0) */\n      dup2\n      mstore\n      0x20\n      add\n        /* \"Funding.sol\":2348:2349  0 */\n      0x00\n        /* \"Funding.sol\":2327:2350  Tier(_name, _amount, 0) */\n      dup2\n      mstore\n      pop\n        /* \"Funding.sol\":2316:2351  tiers.push(Tier(_name, _amount, 0)) */\n      swap1\n      dup1\n      0x01\n      dup2\n      sload\n      add\n      dup1\n      dup3\n      sstore\n      dup1\n      swap2\n      pop\n      pop\n      0x01\n      swap1\n      sub\n      swap1\n      0x00\n      mstore\n      keccak256(0x00, 0x20)\n      swap1\n      0x03\n      mul\n      add\n      0x00\n      swap1\n      swap2\n      swap1\n      swap2\n      swap1\n      swap2\n      pop\n      0x00\n      dup3\n      add\n      mload\n      dup2\n      0x00\n      add\n      swap1\n      dup2\n      tag_208\n      swap2\n      swap1\n      tag_209\n      jump\t// in\n    tag_208:\n      pop\n      0x20\n      dup3\n      add\n      mload\n      dup2\n      0x01\n      add\n      sstore\n      0x40\n      dup3\n      add\n      mload\n      dup2\n      0x02\n      add\n      sstore\n      pop\n      pop\n        /* \"Funding.sol\":2148:2358  function addTier(... */\n      pop\n      pop\n      jump\t// out\n        /* \"Funding.sol\":555:596  mapping(address => Backer) public backers */\n    tag_94:\n      mstore(0x20, 0x06)\n      dup1\n      0x00\n      mstore\n      keccak256(0x00, 0x40)\n      0x00\n      swap2\n      pop\n      swap1\n      pop\n      dup1\n      0x00\n      add\n      sload\n      swap1\n      pop\n      dup2\n      jump\t// out\n        /* \"Funding.sol\":294:320  CampaignState public state */\n    tag_98:\n      0x04\n      0x15\n      swap1\n      sload\n      swap1\n      0x0100\n      exp\n      swap1\n      div\n      0xff\n      and\n      dup2\n      jump\t// out\n        /* \"Funding.sol\":3245:3318  function togglePause() public onlyOwner {... */\n    tag_102:\n        /* \"Funding.sol\":656:661  owner */\n      0x04\n      0x00\n      swap1\n      sload\n      swap1\n      0x0100\n      exp\n      swap1\n      div\n      0xffffffffffffffffffffffffffffffffffffffff\n      and\n        /* \"Funding.sol\":642:661  msg.sender == owner */\n      0xffffffffffffffffffffffffffffffffffffffff\n      and\n        /* \"Funding.sol\":642:652  msg.sender */\n      caller\n        /* \"Funding.sol\":642:661  msg.sender == owner */\n      0xffffffffffffffffffffffffffffffffffffffff\n      and\n      eq\n        /* \"Funding.sol\":634:679  require(msg.sender == owner, \"Not the owner\") */\n      tag_211\n      jumpi\n      mload(0x40)\n      0x08c379a000000000000000000000000000000000000000000000000000000000\n      dup2\n      mstore\n      0x04\n      add\n      tag_212\n      swap1\n      tag_137\n      jump\t// in\n    tag_212:\n      mload(0x40)\n      dup1\n      swap2\n      sub\n      swap1\n      revert\n    tag_211:\n        /* \"Funding.sol\":3305:3311  paused */\n      0x04\n      0x14\n      swap1\n      sload\n      swap1\n      0x0100\n      exp\n      swap1\n      div\n      0xff\n      and\n        /* \"Funding.sol\":3304:3311  !paused */\n      iszero\n        /* \"Funding.sol\":3295:3301  paused */\n      0x04\n      0x14\n        /* \"Funding.sol\":3295:3311  paused = !paused */\n      0x0100\n      exp\n      dup2\n      sload\n      dup2\n      0xff\n      mul\n      not\n      and\n      swap1\n      dup4\n      iszero\n      iszero\n      mul\n      or\n      swap1\n      sstore\n      pop\n        /* \"Funding.sol\":3245:3318  function togglePause() public onlyOwner {... */\n      jump\t// out\n        /* \"Funding.sol\":1727:2142  function fund(uint256 _tierIndex) public payable campaignOpen notPaused {... */\n    tag_105:\n        /* \"Funding.sol\":754:774  CampaignState.Active */\n      0x00\n        /* \"Funding.sol\":745:774  state == CampaignState.Active */\n      0x02\n      dup2\n      gt\n      iszero\n      tag_215\n      jumpi\n      tag_216\n      tag_127\n      jump\t// in\n    tag_216:\n    tag_215:\n        /* \"Funding.sol\":745:750  state */\n      0x04\n      0x15\n      swap1\n      sload\n      swap1\n      0x0100\n      exp\n      swap1\n      div\n      0xff\n      and\n        /* \"Funding.sol\":745:774  state == CampaignState.Active */\n      0x02\n      dup2\n      gt\n      iszero\n      tag_217\n      jumpi\n      tag_218\n      tag_127\n      jump\t// in\n    tag_218:\n    tag_217:\n      eq\n        /* \"Funding.sol\":737:802  require(state == CampaignState.Active, \"Campaign is not active.\") */\n      tag_219\n      jumpi\n      mload(0x40)\n      0x08c379a000000000000000000000000000000000000000000000000000000000\n      dup2\n      mstore\n      0x04\n      add\n      tag_220\n      swap1\n      tag_145\n      jump\t// in\n    tag_220:\n      mload(0x40)\n      dup1\n      swap2\n      sub\n      swap1\n      revert\n    tag_219:\n        /* \"Funding.sol\":866:872  paused */\n      0x04\n      0x14\n      swap1\n      sload\n      swap1\n      0x0100\n      exp\n      swap1\n      div\n      0xff\n      and\n        /* \"Funding.sol\":865:872  !paused */\n      iszero\n        /* \"Funding.sol\":857:896  require(!paused, \"Contract is paused.\") */\n      tag_222\n      jumpi\n      mload(0x40)\n      0x08c379a000000000000000000000000000000000000000000000000000000000\n      dup2\n      mstore\n      0x04\n      add\n      tag_223\n      swap1\n      tag_224\n      jump\t// in\n    tag_223:\n      mload(0x40)\n      dup1\n      swap2\n      sub\n      swap1\n      revert\n    tag_222:\n        /* \"Funding.sol\":1830:1835  tiers */\n      0x05\n        /* \"Funding.sol\":1830:1842  tiers.length */\n      dup1\n      sload\n      swap1\n      pop\n        /* \"Funding.sol\":1817:1827  _tierIndex */\n      dup2\n        /* \"Funding.sol\":1817:1842  _tierIndex < tiers.length */\n      lt\n        /* \"Funding.sol\":1809:1860  require(_tierIndex < tiers.length, \"Invalid tier.\") */\n      tag_226\n      jumpi\n      mload(0x40)\n      0x08c379a000000000000000000000000000000000000000000000000000000000\n      dup2\n      mstore\n      0x04\n      add\n      tag_227\n      swap1\n      tag_228\n      jump\t// in\n    tag_227:\n      mload(0x40)\n      dup1\n      swap2\n      sub\n      swap1\n      revert\n    tag_226:\n        /* \"Funding.sol\":1891:1896  tiers */\n      0x05\n        /* \"Funding.sol\":1897:1907  _tierIndex */\n      dup2\n        /* \"Funding.sol\":1891:1908  tiers[_tierIndex] */\n      dup2\n      sload\n      dup2\n      lt\n      tag_229\n      jumpi\n      tag_230\n      tag_186\n      jump\t// in\n    tag_230:\n    tag_229:\n      swap1\n      0x00\n      mstore\n      keccak256(0x00, 0x20)\n      swap1\n      0x03\n      mul\n      add\n        /* \"Funding.sol\":1891:1915  tiers[_tierIndex].amount */\n      0x01\n      add\n      sload\n        /* \"Funding.sol\":1878:1887  msg.value */\n      callvalue\n        /* \"Funding.sol\":1878:1915  msg.value == tiers[_tierIndex].amount */\n      eq\n        /* \"Funding.sol\":1870:1937  require(msg.value == tiers[_tierIndex].amount, \"Incorrect amount.\") */\n      tag_232\n      jumpi\n      mload(0x40)\n      0x08c379a000000000000000000000000000000000000000000000000000000000\n      dup2\n      mstore\n      0x04\n      add\n      tag_233\n      swap1\n      tag_234\n      jump\t// in\n    tag_233:\n      mload(0x40)\n      dup1\n      swap2\n      sub\n      swap1\n      revert\n    tag_232:\n        /* \"Funding.sol\":1948:1953  tiers */\n      0x05\n        /* \"Funding.sol\":1954:1964  _tierIndex */\n      dup2\n        /* \"Funding.sol\":1948:1965  tiers[_tierIndex] */\n      dup2\n      sload\n      dup2\n      lt\n      tag_235\n      jumpi\n      tag_236\n      tag_186\n      jump\t// in\n    tag_236:\n    tag_235:\n      swap1\n      0x00\n      mstore\n      keccak256(0x00, 0x20)\n      swap1\n      0x03\n      mul\n      add\n        /* \"Funding.sol\":1948:1973  tiers[_tierIndex].backers */\n      0x02\n      add\n      0x00\n        /* \"Funding.sol\":1948:1975  tiers[_tierIndex].backers++ */\n      dup2\n      sload\n      dup1\n      swap3\n      swap2\n      swap1\n      tag_238\n      swap1\n      tag_239\n      jump\t// in\n    tag_238:\n      swap2\n      swap1\n      pop\n      sstore\n      pop\n        /* \"Funding.sol\":2026:2035  msg.value */\n      callvalue\n        /* \"Funding.sol\":1985:1992  backers */\n      0x06\n        /* \"Funding.sol\":1985:2004  backers[msg.sender] */\n      0x00\n        /* \"Funding.sol\":1993:2003  msg.sender */\n      caller\n        /* \"Funding.sol\":1985:2004  backers[msg.sender] */\n      0xffffffffffffffffffffffffffffffffffffffff\n      and\n      0xffffffffffffffffffffffffffffffffffffffff\n      and\n      dup2\n      mstore\n      0x20\n      add\n      swap1\n      dup2\n      mstore\n      0x20\n      add\n      0x00\n      keccak256\n        /* \"Funding.sol\":1985:2022  backers[msg.sender].totalContribution */\n      0x00\n      add\n      0x00\n        /* \"Funding.sol\":1985:2035  backers[msg.sender].totalContribution += msg.value */\n      dup3\n      dup3\n      sload\n      tag_240\n      swap2\n      swap1\n      tag_150\n      jump\t// in\n    tag_240:\n      swap3\n      pop\n      pop\n      dup2\n      swap1\n      sstore\n      pop\n        /* \"Funding.sol\":2091:2095  true */\n      0x01\n        /* \"Funding.sol\":2045:2052  backers */\n      0x06\n        /* \"Funding.sol\":2045:2064  backers[msg.sender] */\n      0x00\n        /* \"Funding.sol\":2053:2063  msg.sender */\n      caller\n        /* \"Funding.sol\":2045:2064  backers[msg.sender] */\n      0xffffffffffffffffffffffffffffffffffffffff\n      and\n      0xffffffffffffffffffffffffffffffffffffffff\n      and\n      dup2\n      mstore\n      0x20\n      add\n      swap1\n      dup2\n      mstore\n      0x20\n      add\n      0x00\n      keccak256\n        /* \"Funding.sol\":2045:2076  backers[msg.sender].fundedTiers */\n      0x01\n      add\n        /* \"Funding.sol\":2045:2088  backers[msg.sender].fundedTiers[_tierIndex] */\n      0x00\n        /* \"Funding.sol\":2077:2087  _tierIndex */\n      dup4\n        /* \"Funding.sol\":2045:2088  backers[msg.sender].fundedTiers[_tierIndex] */\n      dup2\n      mstore\n      0x20\n      add\n      swap1\n      dup2\n      mstore\n      0x20\n      add\n      0x00\n      keccak256\n      0x00\n        /* \"Funding.sol\":2045:2095  backers[msg.sender].fundedTiers[_tierIndex] = true */\n      0x0100\n      exp\n      dup2\n      sload\n      dup2\n      0xff\n      mul\n      not\n      and\n      swap1\n      dup4\n      iszero\n      iszero\n      mul\n      or\n      swap1\n      sstore\n      pop\n        /* \"Funding.sol\":2106:2135  checkAndUpdateCampaignState() */\n      tag_241\n        /* \"Funding.sol\":2106:2133  checkAndUpdateCampaignState */\n      tag_156\n        /* \"Funding.sol\":2106:2135  checkAndUpdateCampaignState() */\n      jump\t// in\n    tag_241:\n        /* \"Funding.sol\":1727:2142  function fund(uint256 _tierIndex) public payable campaignOpen notPaused {... */\n      pop\n      jump\t// out\n        /* \"Funding.sol\":3154:3239  function getTiers() public view returns (Tier[] memory) {... */\n    tag_108:\n        /* \"Funding.sol\":3195:3208  Tier[] memory */\n      0x60\n        /* \"Funding.sol\":3227:3232  tiers */\n      0x05\n        /* \"Funding.sol\":3220:3232  return tiers */\n      dup1\n      sload\n      dup1\n      0x20\n      mul\n      0x20\n      add\n      mload(0x40)\n      swap1\n      dup2\n      add\n      0x40\n      mstore\n      dup1\n      swap3\n      swap2\n      swap1\n      dup2\n      dup2\n      mstore\n      0x20\n      add\n      0x00\n      swap1\n    tag_243:\n      dup3\n      dup3\n      lt\n      iszero\n      tag_244\n      jumpi\n      dup4\n      dup3\n      swap1\n      0x00\n      mstore\n      keccak256(0x00, 0x20)\n      swap1\n      0x03\n      mul\n      add\n      mload(0x40)\n      dup1\n      0x60\n      add\n      0x40\n      mstore\n      swap1\n      dup2\n      0x00\n      dup3\n      add\n      dup1\n      sload\n      tag_246\n      swap1\n      tag_114\n      jump\t// in\n    tag_246:\n      dup1\n      0x1f\n      add\n      0x20\n      dup1\n      swap2\n      div\n      mul\n      0x20\n      add\n      mload(0x40)\n      swap1\n      dup2\n      add\n      0x40\n      mstore\n      dup1\n      swap3\n      swap2\n      swap1\n      dup2\n      dup2\n      mstore\n      0x20\n      add\n      dup3\n      dup1\n      sload\n      tag_247\n      swap1\n      tag_114\n      jump\t// in\n    tag_247:\n      dup1\n      iszero\n      tag_248\n      jumpi\n      dup1\n      0x1f\n      lt\n      tag_249\n      jumpi\n      0x0100\n      dup1\n      dup4\n      sload\n      div\n      mul\n      dup4\n      mstore\n      swap2\n      0x20\n      add\n      swap2\n      jump(tag_248)\n    tag_249:\n      dup3\n      add\n      swap2\n      swap1\n      0x00\n      mstore\n      keccak256(0x00, 0x20)\n      swap1\n    tag_250:\n      dup2\n      sload\n      dup2\n      mstore\n      swap1\n      0x01\n      add\n      swap1\n      0x20\n      add\n      dup1\n      dup4\n      gt\n      tag_250\n      jumpi\n      dup3\n      swap1\n      sub\n      0x1f\n      and\n      dup3\n      add\n      swap2\n    tag_248:\n      pop\n      pop\n      pop\n      pop\n      pop\n      dup2\n      mstore\n      0x20\n      add\n      0x01\n      dup3\n      add\n      sload\n      dup2\n      mstore\n      0x20\n      add\n      0x02\n      dup3\n      add\n      sload\n      dup2\n      mstore\n      pop\n      pop\n      dup2\n      mstore\n      0x20\n      add\n      swap1\n      0x01\n      add\n      swap1\n      jump(tag_243)\n    tag_244:\n      pop\n      pop\n      pop\n      pop\n      swap1\n      pop\n        /* \"Funding.sol\":3154:3239  function getTiers() public view returns (Tier[] memory) {... */\n      swap1\n      jump\t// out\n        /* \"Funding.sol\":1309:1721  function checkAndUpdateCampaignState() internal {... */\n    tag_156:\n        /* \"Funding.sol\":1379:1399  CampaignState.Active */\n      0x00\n        /* \"Funding.sol\":1370:1399  state == CampaignState.Active */\n      0x02\n      dup2\n      gt\n      iszero\n      tag_252\n      jumpi\n      tag_253\n      tag_127\n      jump\t// in\n    tag_253:\n    tag_252:\n        /* \"Funding.sol\":1370:1375  state */\n      0x04\n      0x15\n      swap1\n      sload\n      swap1\n      0x0100\n      exp\n      swap1\n      div\n      0xff\n      and\n        /* \"Funding.sol\":1370:1399  state == CampaignState.Active */\n      0x02\n      dup2\n      gt\n      iszero\n      tag_254\n      jumpi\n      tag_255\n      tag_127\n      jump\t// in\n    tag_255:\n    tag_254:\n      sub\n        /* \"Funding.sol\":1367:1715  if(state == CampaignState.Active) {... */\n      tag_256\n      jumpi\n        /* \"Funding.sol\":1437:1445  deadline */\n      sload(0x03)\n        /* \"Funding.sol\":1418:1433  block.timestamp */\n      timestamp\n        /* \"Funding.sol\":1418:1445  block.timestamp >= deadline */\n      lt\n        /* \"Funding.sol\":1415:1705  if(block.timestamp >= deadline) {... */\n      tag_257\n      jumpi\n        /* \"Funding.sol\":1498:1502  goal */\n      sload(0x02)\n        /* \"Funding.sol\":1473:1494  address(this).balance */\n      selfbalance\n        /* \"Funding.sol\":1473:1502  address(this).balance >= goal */\n      lt\n      iszero\n        /* \"Funding.sol\":1473:1552  address(this).balance >= goal ? CampaignState.Successful : CampaignState.Failed */\n      tag_258\n      jumpi\n        /* \"Funding.sol\":1532:1552  CampaignState.Failed */\n      0x02\n        /* \"Funding.sol\":1473:1552  address(this).balance >= goal ? CampaignState.Successful : CampaignState.Failed */\n      jump(tag_259)\n    tag_258:\n        /* \"Funding.sol\":1505:1529  CampaignState.Successful */\n      0x01\n        /* \"Funding.sol\":1473:1552  address(this).balance >= goal ? CampaignState.Successful : CampaignState.Failed */\n    tag_259:\n        /* \"Funding.sol\":1465:1470  state */\n      0x04\n      0x15\n        /* \"Funding.sol\":1465:1552  state = address(this).balance >= goal ? CampaignState.Successful : CampaignState.Failed */\n      0x0100\n      exp\n      dup2\n      sload\n      dup2\n      0xff\n      mul\n      not\n      and\n      swap1\n      dup4\n      0x02\n      dup2\n      gt\n      iszero\n      tag_260\n      jumpi\n      tag_261\n      tag_127\n      jump\t// in\n    tag_261:\n    tag_260:\n      mul\n      or\n      swap1\n      sstore\n      pop\n        /* \"Funding.sol\":1415:1705  if(block.timestamp >= deadline) {... */\n      jump(tag_262)\n    tag_257:\n        /* \"Funding.sol\":1636:1640  goal */\n      sload(0x02)\n        /* \"Funding.sol\":1611:1632  address(this).balance */\n      selfbalance\n        /* \"Funding.sol\":1611:1640  address(this).balance >= goal */\n      lt\n      iszero\n        /* \"Funding.sol\":1611:1690  address(this).balance >= goal ? CampaignState.Successful : CampaignState.Active */\n      tag_263\n      jumpi\n        /* \"Funding.sol\":1670:1690  CampaignState.Active */\n      0x00\n        /* \"Funding.sol\":1611:1690  address(this).balance >= goal ? CampaignState.Successful : CampaignState.Active */\n      jump(tag_264)\n    tag_263:\n        /* \"Funding.sol\":1643:1667  CampaignState.Successful */\n      0x01\n        /* \"Funding.sol\":1611:1690  address(this).balance >= goal ? CampaignState.Successful : CampaignState.Active */\n    tag_264:\n        /* \"Funding.sol\":1603:1608  state */\n      0x04\n      0x15\n        /* \"Funding.sol\":1603:1690  state = address(this).balance >= goal ? CampaignState.Successful : CampaignState.Active */\n      0x0100\n      exp\n      dup2\n      sload\n      dup2\n      0xff\n      mul\n      not\n      and\n      swap1\n      dup4\n      0x02\n      dup2\n      gt\n      iszero\n      tag_265\n      jumpi\n      tag_266\n      tag_127\n      jump\t// in\n    tag_266:\n    tag_265:\n      mul\n      or\n      swap1\n      sstore\n      pop\n        /* \"Funding.sol\":1415:1705  if(block.timestamp >= deadline) {... */\n    tag_262:\n        /* \"Funding.sol\":1367:1715  if(state == CampaignState.Active) {... */\n    tag_256:\n        /* \"Funding.sol\":1309:1721  function checkAndUpdateCampaignState() internal {... */\n      jump\t// out\n    tag_198:\n      pop\n      dup1\n      sload\n      tag_267\n      swap1\n      tag_114\n      jump\t// in\n    tag_267:\n      0x00\n      dup3\n      sstore\n      dup1\n      0x1f\n      lt\n      tag_269\n      jumpi\n      pop\n      jump(tag_268)\n    tag_269:\n      0x1f\n      add\n      0x20\n      swap1\n      div\n      swap1\n      0x00\n      mstore\n      keccak256(0x00, 0x20)\n      swap1\n      dup2\n      add\n      swap1\n      tag_270\n      swap2\n      swap1\n      tag_271\n      jump\t// in\n    tag_270:\n    tag_268:\n      pop\n      jump\t// out\n    tag_271:\n    tag_272:\n      dup1\n      dup3\n      gt\n      iszero\n      tag_273\n      jumpi\n      0x00\n      dup2\n      0x00\n      swap1\n      sstore\n      pop\n      0x01\n      add\n      jump(tag_272)\n    tag_273:\n      pop\n      swap1\n      jump\t// out\n        /* \"#utility.yul\":7:82   */\n    tag_274:\n        /* \"#utility.yul\":40:46   */\n      0x00\n        /* \"#utility.yul\":73:75   */\n      0x40\n        /* \"#utility.yul\":67:76   */\n      mload\n        /* \"#utility.yul\":57:76   */\n      swap1\n      pop\n        /* \"#utility.yul\":7:82   */\n      swap1\n      jump\t// out\n        /* \"#utility.yul\":88:205   */\n    tag_275:\n        /* \"#utility.yul\":197:198   */\n      0x00\n        /* \"#utility.yul\":194:195   */\n      0x00\n        /* \"#utility.yul\":187:199   */\n      revert\n        /* \"#utility.yul\":211:328   */\n    tag_276:\n        /* \"#utility.yul\":320:321   */\n      0x00\n        /* \"#utility.yul\":317:318   */\n      0x00\n        /* \"#utility.yul\":310:322   */\n      revert\n        /* \"#utility.yul\":334:411   */\n    tag_277:\n        /* \"#utility.yul\":371:378   */\n      0x00\n        /* \"#utility.yul\":400:405   */\n      dup2\n        /* \"#utility.yul\":389:405   */\n      swap1\n      pop\n        /* \"#utility.yul\":334:411   */\n      swap2\n      swap1\n      pop\n      jump\t// out\n        /* \"#utility.yul\":417:539   */\n    tag_278:\n        /* \"#utility.yul\":490:514   */\n      tag_358\n        /* \"#utility.yul\":508:513   */\n      dup2\n        /* \"#utility.yul\":490:514   */\n      tag_277\n      jump\t// in\n    tag_358:\n        /* \"#utility.yul\":483:488   */\n      dup2\n        /* \"#utility.yul\":480:515   */\n      eq\n        /* \"#utility.yul\":470:533   */\n      tag_359\n      jumpi\n        /* \"#utility.yul\":529:530   */\n      0x00\n        /* \"#utility.yul\":526:527   */\n      0x00\n        /* \"#utility.yul\":519:531   */\n      revert\n        /* \"#utility.yul\":470:533   */\n    tag_359:\n        /* \"#utility.yul\":417:539   */\n      pop\n      jump\t// out\n        /* \"#utility.yul\":545:684   */\n    tag_279:\n        /* \"#utility.yul\":591:596   */\n      0x00\n        /* \"#utility.yul\":629:635   */\n      dup2\n        /* \"#utility.yul\":616:636   */\n      calldataload\n        /* \"#utility.yul\":607:636   */\n      swap1\n      pop\n        /* \"#utility.yul\":645:678   */\n      tag_361\n        /* \"#utility.yul\":672:677   */\n      dup2\n        /* \"#utility.yul\":645:678   */\n      tag_278\n      jump\t// in\n    tag_361:\n        /* \"#utility.yul\":545:684   */\n      swap3\n      swap2\n      pop\n      pop\n      jump\t// out\n        /* \"#utility.yul\":690:1019   */\n    tag_27:\n        /* \"#utility.yul\":749:755   */\n      0x00\n        /* \"#utility.yul\":798:800   */\n      0x20\n        /* \"#utility.yul\":786:795   */\n      dup3\n        /* \"#utility.yul\":777:784   */\n      dup5\n        /* \"#utility.yul\":773:796   */\n      sub\n        /* \"#utility.yul\":769:801   */\n      slt\n        /* \"#utility.yul\":766:885   */\n      iszero\n      tag_363\n      jumpi\n        /* \"#utility.yul\":804:883   */\n      tag_364\n      tag_275\n      jump\t// in\n    tag_364:\n        /* \"#utility.yul\":766:885   */\n    tag_363:\n        /* \"#utility.yul\":924:925   */\n      0x00\n        /* \"#utility.yul\":949:1002   */\n      tag_365\n        /* \"#utility.yul\":994:1001   */\n      dup5\n        /* \"#utility.yul\":985:991   */\n      dup3\n        /* \"#utility.yul\":974:983   */\n      dup6\n        /* \"#utility.yul\":970:992   */\n      add\n        /* \"#utility.yul\":949:1002   */\n      tag_279\n      jump\t// in\n    tag_365:\n        /* \"#utility.yul\":939:1002   */\n      swap2\n      pop\n        /* \"#utility.yul\":895:1012   */\n      pop\n        /* \"#utility.yul\":690:1019   */\n      swap3\n      swap2\n      pop\n      pop\n      jump\t// out\n        /* \"#utility.yul\":1025:1124   */\n    tag_280:\n        /* \"#utility.yul\":1077:1083   */\n      0x00\n        /* \"#utility.yul\":1111:1116   */\n      dup2\n        /* \"#utility.yul\":1105:1117   */\n      mload\n        /* \"#utility.yul\":1095:1117   */\n      swap1\n      pop\n        /* \"#utility.yul\":1025:1124   */\n      swap2\n      swap1\n      pop\n      jump\t// out\n        /* \"#utility.yul\":1130:1299   */\n    tag_281:\n        /* \"#utility.yul\":1214:1225   */\n      0x00\n        /* \"#utility.yul\":1248:1254   */\n      dup3\n        /* \"#utility.yul\":1243:1246   */\n      dup3\n        /* \"#utility.yul\":1236:1255   */\n      mstore\n        /* \"#utility.yul\":1288:1292   */\n      0x20\n        /* \"#utility.yul\":1283:1286   */\n      dup3\n        /* \"#utility.yul\":1279:1293   */\n      add\n        /* \"#utility.yul\":1264:1293   */\n      swap1\n      pop\n        /* \"#utility.yul\":1130:1299   */\n      swap3\n      swap2\n      pop\n      pop\n      jump\t// out\n        /* \"#utility.yul\":1305:1444   */\n    tag_282:\n        /* \"#utility.yul\":1394:1400   */\n      dup3\n        /* \"#utility.yul\":1389:1392   */\n      dup2\n        /* \"#utility.yul\":1384:1387   */\n      dup4\n        /* \"#utility.yul\":1378:1401   */\n      mcopy\n        /* \"#utility.yul\":1435:1436   */\n      0x00\n        /* \"#utility.yul\":1426:1432   */\n      dup4\n        /* \"#utility.yul\":1421:1424   */\n      dup4\n        /* \"#utility.yul\":1417:1433   */\n      add\n        /* \"#utility.yul\":1410:1437   */\n      mstore\n        /* \"#utility.yul\":1305:1444   */\n      pop\n      pop\n      pop\n      jump\t// out\n        /* \"#utility.yul\":1450:1552   */\n    tag_283:\n        /* \"#utility.yul\":1491:1497   */\n      0x00\n        /* \"#utility.yul\":1542:1544   */\n      0x1f\n        /* \"#utility.yul\":1538:1545   */\n      not\n        /* \"#utility.yul\":1533:1535   */\n      0x1f\n        /* \"#utility.yul\":1526:1531   */\n      dup4\n        /* \"#utility.yul\":1522:1536   */\n      add\n        /* \"#utility.yul\":1518:1546   */\n      and\n        /* \"#utility.yul\":1508:1546   */\n      swap1\n      pop\n        /* \"#utility.yul\":1450:1552   */\n      swap2\n      swap1\n      pop\n      jump\t// out\n        /* \"#utility.yul\":1558:1935   */\n    tag_284:\n        /* \"#utility.yul\":1646:1649   */\n      0x00\n        /* \"#utility.yul\":1674:1713   */\n      tag_371\n        /* \"#utility.yul\":1707:1712   */\n      dup3\n        /* \"#utility.yul\":1674:1713   */\n      tag_280\n      jump\t// in\n    tag_371:\n        /* \"#utility.yul\":1729:1800   */\n      tag_372\n        /* \"#utility.yul\":1793:1799   */\n      dup2\n        /* \"#utility.yul\":1788:1791   */\n      dup6\n        /* \"#utility.yul\":1729:1800   */\n      tag_281\n      jump\t// in\n    tag_372:\n        /* \"#utility.yul\":1722:1800   */\n      swap4\n      pop\n        /* \"#utility.yul\":1809:1874   */\n      tag_373\n        /* \"#utility.yul\":1867:1873   */\n      dup2\n        /* \"#utility.yul\":1862:1865   */\n      dup6\n        /* \"#utility.yul\":1855:1859   */\n      0x20\n        /* \"#utility.yul\":1848:1853   */\n      dup7\n        /* \"#utility.yul\":1844:1860   */\n      add\n        /* \"#utility.yul\":1809:1874   */\n      tag_282\n      jump\t// in\n    tag_373:\n        /* \"#utility.yul\":1899:1928   */\n      tag_374\n        /* \"#utility.yul\":1921:1927   */\n      dup2\n        /* \"#utility.yul\":1899:1928   */\n      tag_283\n      jump\t// in\n    tag_374:\n        /* \"#utility.yul\":1894:1897   */\n      dup5\n        /* \"#utility.yul\":1890:1929   */\n      add\n        /* \"#utility.yul\":1883:1929   */\n      swap2\n      pop\n        /* \"#utility.yul\":1650:1935   */\n      pop\n        /* \"#utility.yul\":1558:1935   */\n      swap3\n      swap2\n      pop\n      pop\n      jump\t// out\n        /* \"#utility.yul\":1941:2059   */\n    tag_285:\n        /* \"#utility.yul\":2028:2052   */\n      tag_376\n        /* \"#utility.yul\":2046:2051   */\n      dup2\n        /* \"#utility.yul\":2028:2052   */\n      tag_277\n      jump\t// in\n    tag_376:\n        /* \"#utility.yul\":2023:2026   */\n      dup3\n        /* \"#utility.yul\":2016:2053   */\n      mstore\n        /* \"#utility.yul\":1941:2059   */\n      pop\n      pop\n      jump\t// out\n        /* \"#utility.yul\":2065:2598   */\n    tag_30:\n        /* \"#utility.yul\":2234:2238   */\n      0x00\n        /* \"#utility.yul\":2272:2274   */\n      0x60\n        /* \"#utility.yul\":2261:2270   */\n      dup3\n        /* \"#utility.yul\":2257:2275   */\n      add\n        /* \"#utility.yul\":2249:2275   */\n      swap1\n      pop\n        /* \"#utility.yul\":2321:2330   */\n      dup2\n        /* \"#utility.yul\":2315:2319   */\n      dup2\n        /* \"#utility.yul\":2311:2331   */\n      sub\n        /* \"#utility.yul\":2307:2308   */\n      0x00\n        /* \"#utility.yul\":2296:2305   */\n      dup4\n        /* \"#utility.yul\":2292:2309   */\n      add\n        /* \"#utility.yul\":2285:2332   */\n      mstore\n        /* \"#utility.yul\":2349:2427   */\n      tag_378\n        /* \"#utility.yul\":2422:2426   */\n      dup2\n        /* \"#utility.yul\":2413:2419   */\n      dup7\n        /* \"#utility.yul\":2349:2427   */\n      tag_284\n      jump\t// in\n    tag_378:\n        /* \"#utility.yul\":2341:2427   */\n      swap1\n      pop\n        /* \"#utility.yul\":2437:2509   */\n      tag_379\n        /* \"#utility.yul\":2505:2507   */\n      0x20\n        /* \"#utility.yul\":2494:2503   */\n      dup4\n        /* \"#utility.yul\":2490:2508   */\n      add\n        /* \"#utility.yul\":2481:2487   */\n      dup6\n        /* \"#utility.yul\":2437:2509   */\n      tag_285\n      jump\t// in\n    tag_379:\n        /* \"#utility.yul\":2519:2591   */\n      tag_380\n        /* \"#utility.yul\":2587:2589   */\n      0x40\n        /* \"#utility.yul\":2576:2585   */\n      dup4\n        /* \"#utility.yul\":2572:2590   */\n      add\n        /* \"#utility.yul\":2563:2569   */\n      dup5\n        /* \"#utility.yul\":2519:2591   */\n      tag_285\n      jump\t// in\n    tag_380:\n        /* \"#utility.yul\":2065:2598   */\n      swap5\n      swap4\n      pop\n      pop\n      pop\n      pop\n      jump\t// out\n        /* \"#utility.yul\":2604:2917   */\n    tag_35:\n        /* \"#utility.yul\":2717:2721   */\n      0x00\n        /* \"#utility.yul\":2755:2757   */\n      0x20\n        /* \"#utility.yul\":2744:2753   */\n      dup3\n        /* \"#utility.yul\":2740:2758   */\n      add\n        /* \"#utility.yul\":2732:2758   */\n      swap1\n      pop\n        /* \"#utility.yul\":2804:2813   */\n      dup2\n        /* \"#utility.yul\":2798:2802   */\n      dup2\n        /* \"#utility.yul\":2794:2814   */\n      sub\n        /* \"#utility.yul\":2790:2791   */\n      0x00\n        /* \"#utility.yul\":2779:2788   */\n      dup4\n        /* \"#utility.yul\":2775:2792   */\n      add\n        /* \"#utility.yul\":2768:2815   */\n      mstore\n        /* \"#utility.yul\":2832:2910   */\n      tag_382\n        /* \"#utility.yul\":2905:2909   */\n      dup2\n        /* \"#utility.yul\":2896:2902   */\n      dup5\n        /* \"#utility.yul\":2832:2910   */\n      tag_284\n      jump\t// in\n    tag_382:\n        /* \"#utility.yul\":2824:2910   */\n      swap1\n      pop\n        /* \"#utility.yul\":2604:2917   */\n      swap3\n      swap2\n      pop\n      pop\n      jump\t// out\n        /* \"#utility.yul\":2923:3103   */\n    tag_127:\n        /* \"#utility.yul\":2971:3048   */\n      0x4e487b7100000000000000000000000000000000000000000000000000000000\n        /* \"#utility.yul\":2968:2969   */\n      0x00\n        /* \"#utility.yul\":2961:3049   */\n      mstore\n        /* \"#utility.yul\":3068:3072   */\n      0x21\n        /* \"#utility.yul\":3065:3066   */\n      0x04\n        /* \"#utility.yul\":3058:3073   */\n      mstore\n        /* \"#utility.yul\":3092:3096   */\n      0x24\n        /* \"#utility.yul\":3089:3090   */\n      0x00\n        /* \"#utility.yul\":3082:3097   */\n      revert\n        /* \"#utility.yul\":3109:3230   */\n    tag_286:\n        /* \"#utility.yul\":3198:3199   */\n      0x03\n        /* \"#utility.yul\":3191:3196   */\n      dup2\n        /* \"#utility.yul\":3188:3200   */\n      lt\n        /* \"#utility.yul\":3178:3224   */\n      tag_385\n      jumpi\n        /* \"#utility.yul\":3204:3222   */\n      tag_386\n      tag_127\n      jump\t// in\n    tag_386:\n        /* \"#utility.yul\":3178:3224   */\n    tag_385:\n        /* \"#utility.yul\":3109:3230   */\n      pop\n      jump\t// out\n        /* \"#utility.yul\":3236:3379   */\n    tag_287:\n        /* \"#utility.yul\":3289:3296   */\n      0x00\n        /* \"#utility.yul\":3318:3323   */\n      dup2\n        /* \"#utility.yul\":3307:3323   */\n      swap1\n      pop\n        /* \"#utility.yul\":3324:3373   */\n      tag_388\n        /* \"#utility.yul\":3367:3372   */\n      dup3\n        /* \"#utility.yul\":3324:3373   */\n      tag_286\n      jump\t// in\n    tag_388:\n        /* \"#utility.yul\":3236:3379   */\n      swap2\n      swap1\n      pop\n      jump\t// out\n        /* \"#utility.yul\":3385:3528   */\n    tag_288:\n        /* \"#utility.yul\":3449:3458   */\n      0x00\n        /* \"#utility.yul\":3482:3522   */\n      tag_390\n        /* \"#utility.yul\":3516:3521   */\n      dup3\n        /* \"#utility.yul\":3482:3522   */\n      tag_287\n      jump\t// in\n    tag_390:\n        /* \"#utility.yul\":3469:3522   */\n      swap1\n      pop\n        /* \"#utility.yul\":3385:3528   */\n      swap2\n      swap1\n      pop\n      jump\t// out\n        /* \"#utility.yul\":3534:3693   */\n    tag_289:\n        /* \"#utility.yul\":3635:3686   */\n      tag_392\n        /* \"#utility.yul\":3680:3685   */\n      dup2\n        /* \"#utility.yul\":3635:3686   */\n      tag_288\n      jump\t// in\n    tag_392:\n        /* \"#utility.yul\":3630:3633   */\n      dup3\n        /* \"#utility.yul\":3623:3687   */\n      mstore\n        /* \"#utility.yul\":3534:3693   */\n      pop\n      pop\n      jump\t// out\n        /* \"#utility.yul\":3699:3949   */\n    tag_40:\n        /* \"#utility.yul\":3806:3810   */\n      0x00\n        /* \"#utility.yul\":3844:3846   */\n      0x20\n        /* \"#utility.yul\":3833:3842   */\n      dup3\n        /* \"#utility.yul\":3829:3847   */\n      add\n        /* \"#utility.yul\":3821:3847   */\n      swap1\n      pop\n        /* \"#utility.yul\":3857:3942   */\n      tag_394\n        /* \"#utility.yul\":3939:3940   */\n      0x00\n        /* \"#utility.yul\":3928:3937   */\n      dup4\n        /* \"#utility.yul\":3924:3941   */\n      add\n        /* \"#utility.yul\":3915:3921   */\n      dup5\n        /* \"#utility.yul\":3857:3942   */\n      tag_289\n      jump\t// in\n    tag_394:\n        /* \"#utility.yul\":3699:3949   */\n      swap3\n      swap2\n      pop\n      pop\n      jump\t// out\n        /* \"#utility.yul\":3955:4177   */\n    tag_45:\n        /* \"#utility.yul\":4048:4052   */\n      0x00\n        /* \"#utility.yul\":4086:4088   */\n      0x20\n        /* \"#utility.yul\":4075:4084   */\n      dup3\n        /* \"#utility.yul\":4071:4089   */\n      add\n        /* \"#utility.yul\":4063:4089   */\n      swap1\n      pop\n        /* \"#utility.yul\":4099:4170   */\n      tag_396\n        /* \"#utility.yul\":4167:4168   */\n      0x00\n        /* \"#utility.yul\":4156:4165   */\n      dup4\n        /* \"#utility.yul\":4152:4169   */\n      add\n        /* \"#utility.yul\":4143:4149   */\n      dup5\n        /* \"#utility.yul\":4099:4170   */\n      tag_285\n      jump\t// in\n    tag_396:\n        /* \"#utility.yul\":3955:4177   */\n      swap3\n      swap2\n      pop\n      pop\n      jump\t// out\n        /* \"#utility.yul\":4183:4273   */\n    tag_290:\n        /* \"#utility.yul\":4217:4224   */\n      0x00\n        /* \"#utility.yul\":4260:4265   */\n      dup2\n        /* \"#utility.yul\":4253:4266   */\n      iszero\n        /* \"#utility.yul\":4246:4267   */\n      iszero\n        /* \"#utility.yul\":4235:4267   */\n      swap1\n      pop\n        /* \"#utility.yul\":4183:4273   */\n      swap2\n      swap1\n      pop\n      jump\t// out\n        /* \"#utility.yul\":4279:4388   */\n    tag_291:\n        /* \"#utility.yul\":4360:4381   */\n      tag_399\n        /* \"#utility.yul\":4375:4380   */\n      dup2\n        /* \"#utility.yul\":4360:4381   */\n      tag_290\n      jump\t// in\n    tag_399:\n        /* \"#utility.yul\":4355:4358   */\n      dup3\n        /* \"#utility.yul\":4348:4382   */\n      mstore\n        /* \"#utility.yul\":4279:4388   */\n      pop\n      pop\n      jump\t// out\n        /* \"#utility.yul\":4394:4604   */\n    tag_61:\n        /* \"#utility.yul\":4481:4485   */\n      0x00\n        /* \"#utility.yul\":4519:4521   */\n      0x20\n        /* \"#utility.yul\":4508:4517   */\n      dup3\n        /* \"#utility.yul\":4504:4522   */\n      add\n        /* \"#utility.yul\":4496:4522   */\n      swap1\n      pop\n        /* \"#utility.yul\":4532:4597   */\n      tag_401\n        /* \"#utility.yul\":4594:4595   */\n      0x00\n        /* \"#utility.yul\":4583:4592   */\n      dup4\n        /* \"#utility.yul\":4579:4596   */\n      add\n        /* \"#utility.yul\":4570:4576   */\n      dup5\n        /* \"#utility.yul\":4532:4597   */\n      tag_291\n      jump\t// in\n    tag_401:\n        /* \"#utility.yul\":4394:4604   */\n      swap3\n      swap2\n      pop\n      pop\n      jump\t// out\n        /* \"#utility.yul\":4610:4736   */\n    tag_292:\n        /* \"#utility.yul\":4647:4654   */\n      0x00\n        /* \"#utility.yul\":4687:4729   */\n      0xffffffffffffffffffffffffffffffffffffffff\n        /* \"#utility.yul\":4680:4685   */\n      dup3\n        /* \"#utility.yul\":4676:4730   */\n      and\n        /* \"#utility.yul\":4665:4730   */\n      swap1\n      pop\n        /* \"#utility.yul\":4610:4736   */\n      swap2\n      swap1\n      pop\n      jump\t// out\n        /* \"#utility.yul\":4742:4838   */\n    tag_293:\n        /* \"#utility.yul\":4779:4786   */\n      0x00\n        /* \"#utility.yul\":4808:4832   */\n      tag_404\n        /* \"#utility.yul\":4826:4831   */\n      dup3\n        /* \"#utility.yul\":4808:4832   */\n      tag_292\n      jump\t// in\n    tag_404:\n        /* \"#utility.yul\":4797:4832   */\n      swap1\n      pop\n        /* \"#utility.yul\":4742:4838   */\n      swap2\n      swap1\n      pop\n      jump\t// out\n        /* \"#utility.yul\":4844:4966   */\n    tag_294:\n        /* \"#utility.yul\":4917:4941   */\n      tag_406\n        /* \"#utility.yul\":4935:4940   */\n      dup2\n        /* \"#utility.yul\":4917:4941   */\n      tag_293\n      jump\t// in\n    tag_406:\n        /* \"#utility.yul\":4910:4915   */\n      dup2\n        /* \"#utility.yul\":4907:4942   */\n      eq\n        /* \"#utility.yul\":4897:4960   */\n      tag_407\n      jumpi\n        /* \"#utility.yul\":4956:4957   */\n      0x00\n        /* \"#utility.yul\":4953:4954   */\n      0x00\n        /* \"#utility.yul\":4946:4958   */\n      revert\n        /* \"#utility.yul\":4897:4960   */\n    tag_407:\n        /* \"#utility.yul\":4844:4966   */\n      pop\n      jump\t// out\n        /* \"#utility.yul\":4972:5111   */\n    tag_295:\n        /* \"#utility.yul\":5018:5023   */\n      0x00\n        /* \"#utility.yul\":5056:5062   */\n      dup2\n        /* \"#utility.yul\":5043:5063   */\n      calldataload\n        /* \"#utility.yul\":5034:5063   */\n      swap1\n      pop\n        /* \"#utility.yul\":5072:5105   */\n      tag_409\n        /* \"#utility.yul\":5099:5104   */\n      dup2\n        /* \"#utility.yul\":5072:5105   */\n      tag_294\n      jump\t// in\n    tag_409:\n        /* \"#utility.yul\":4972:5111   */\n      swap3\n      swap2\n      pop\n      pop\n      jump\t// out\n        /* \"#utility.yul\":5117:5591   */\n    tag_77:\n        /* \"#utility.yul\":5185:5191   */\n      0x00\n        /* \"#utility.yul\":5193:5199   */\n      0x00\n        /* \"#utility.yul\":5242:5244   */\n      0x40\n        /* \"#utility.yul\":5230:5239   */\n      dup4\n        /* \"#utility.yul\":5221:5228   */\n      dup6\n        /* \"#utility.yul\":5217:5240   */\n      sub\n        /* \"#utility.yul\":5213:5245   */\n      slt\n        /* \"#utility.yul\":5210:5329   */\n      iszero\n      tag_411\n      jumpi\n        /* \"#utility.yul\":5248:5327   */\n      tag_412\n      tag_275\n      jump\t// in\n    tag_412:\n        /* \"#utility.yul\":5210:5329   */\n    tag_411:\n        /* \"#utility.yul\":5368:5369   */\n      0x00\n        /* \"#utility.yul\":5393:5446   */\n      tag_413\n        /* \"#utility.yul\":5438:5445   */\n      dup6\n        /* \"#utility.yul\":5429:5435   */\n      dup3\n        /* \"#utility.yul\":5418:5427   */\n      dup7\n        /* \"#utility.yul\":5414:5436   */\n      add\n        /* \"#utility.yul\":5393:5446   */\n      tag_295\n      jump\t// in\n    tag_413:\n        /* \"#utility.yul\":5383:5446   */\n      swap3\n      pop\n        /* \"#utility.yul\":5339:5456   */\n      pop\n        /* \"#utility.yul\":5495:5497   */\n      0x20\n        /* \"#utility.yul\":5521:5574   */\n      tag_414\n        /* \"#utility.yul\":5566:5573   */\n      dup6\n        /* \"#utility.yul\":5557:5563   */\n      dup3\n        /* \"#utility.yul\":5546:5555   */\n      dup7\n        /* \"#utility.yul\":5542:5564   */\n      add\n        /* \"#utility.yul\":5521:5574   */\n      tag_279\n      jump\t// in\n    tag_414:\n        /* \"#utility.yul\":5511:5574   */\n      swap2\n      pop\n        /* \"#utility.yul\":5466:5584   */\n      pop\n        /* \"#utility.yul\":5117:5591   */\n      swap3\n      pop\n      swap3\n      swap1\n      pop\n      jump\t// out\n        /* \"#utility.yul\":5597:5715   */\n    tag_296:\n        /* \"#utility.yul\":5684:5708   */\n      tag_416\n        /* \"#utility.yul\":5702:5707   */\n      dup2\n        /* \"#utility.yul\":5684:5708   */\n      tag_293\n      jump\t// in\n    tag_416:\n        /* \"#utility.yul\":5679:5682   */\n      dup3\n        /* \"#utility.yul\":5672:5709   */\n      mstore\n        /* \"#utility.yul\":5597:5715   */\n      pop\n      pop\n      jump\t// out\n        /* \"#utility.yul\":5721:5943   */\n    tag_84:\n        /* \"#utility.yul\":5814:5818   */\n      0x00\n        /* \"#utility.yul\":5852:5854   */\n      0x20\n        /* \"#utility.yul\":5841:5850   */\n      dup3\n        /* \"#utility.yul\":5837:5855   */\n      add\n        /* \"#utility.yul\":5829:5855   */\n      swap1\n      pop\n        /* \"#utility.yul\":5865:5936   */\n      tag_418\n        /* \"#utility.yul\":5933:5934   */\n      0x00\n        /* \"#utility.yul\":5922:5931   */\n      dup4\n        /* \"#utility.yul\":5918:5935   */\n      add\n        /* \"#utility.yul\":5909:5915   */\n      dup5\n        /* \"#utility.yul\":5865:5936   */\n      tag_296\n      jump\t// in\n    tag_418:\n        /* \"#utility.yul\":5721:5943   */\n      swap3\n      swap2\n      pop\n      pop\n      jump\t// out\n        /* \"#utility.yul\":5949:6066   */\n    tag_297:\n        /* \"#utility.yul\":6058:6059   */\n      0x00\n        /* \"#utility.yul\":6055:6056   */\n      0x00\n        /* \"#utility.yul\":6048:6060   */\n      revert\n        /* \"#utility.yul\":6072:6189   */\n    tag_298:\n        /* \"#utility.yul\":6181:6182   */\n      0x00\n        /* \"#utility.yul\":6178:6179   */\n      0x00\n        /* \"#utility.yul\":6171:6183   */\n      revert\n        /* \"#utility.yul\":6195:6375   */\n    tag_299:\n        /* \"#utility.yul\":6243:6320   */\n      0x4e487b7100000000000000000000000000000000000000000000000000000000\n        /* \"#utility.yul\":6240:6241   */\n      0x00\n        /* \"#utility.yul\":6233:6321   */\n      mstore\n        /* \"#utility.yul\":6340:6344   */\n      0x41\n        /* \"#utility.yul\":6337:6338   */\n      0x04\n        /* \"#utility.yul\":6330:6345   */\n      mstore\n        /* \"#utility.yul\":6364:6368   */\n      0x24\n        /* \"#utility.yul\":6361:6362   */\n      0x00\n        /* \"#utility.yul\":6354:6369   */\n      revert\n        /* \"#utility.yul\":6381:6662   */\n    tag_300:\n        /* \"#utility.yul\":6464:6491   */\n      tag_423\n        /* \"#utility.yul\":6486:6490   */\n      dup3\n        /* \"#utility.yul\":6464:6491   */\n      tag_283\n      jump\t// in\n    tag_423:\n        /* \"#utility.yul\":6456:6462   */\n      dup2\n        /* \"#utility.yul\":6452:6492   */\n      add\n        /* \"#utility.yul\":6594:6600   */\n      dup2\n        /* \"#utility.yul\":6582:6592   */\n      dup2\n        /* \"#utility.yul\":6579:6601   */\n      lt\n        /* \"#utility.yul\":6558:6576   */\n      0xffffffffffffffff\n        /* \"#utility.yul\":6546:6556   */\n      dup3\n        /* \"#utility.yul\":6543:6577   */\n      gt\n        /* \"#utility.yul\":6540:6602   */\n      or\n        /* \"#utility.yul\":6537:6625   */\n      iszero\n      tag_424\n      jumpi\n        /* \"#utility.yul\":6605:6623   */\n      tag_425\n      tag_299\n      jump\t// in\n    tag_425:\n        /* \"#utility.yul\":6537:6625   */\n    tag_424:\n        /* \"#utility.yul\":6645:6655   */\n      dup1\n        /* \"#utility.yul\":6641:6643   */\n      0x40\n        /* \"#utility.yul\":6634:6656   */\n      mstore\n        /* \"#utility.yul\":6424:6662   */\n      pop\n        /* \"#utility.yul\":6381:6662   */\n      pop\n      pop\n      jump\t// out\n        /* \"#utility.yul\":6668:6797   */\n    tag_301:\n        /* \"#utility.yul\":6702:6708   */\n      0x00\n        /* \"#utility.yul\":6729:6749   */\n      tag_427\n      tag_274\n      jump\t// in\n    tag_427:\n        /* \"#utility.yul\":6719:6749   */\n      swap1\n      pop\n        /* \"#utility.yul\":6758:6791   */\n      tag_428\n        /* \"#utility.yul\":6786:6790   */\n      dup3\n        /* \"#utility.yul\":6778:6784   */\n      dup3\n        /* \"#utility.yul\":6758:6791   */\n      tag_300\n      jump\t// in\n    tag_428:\n        /* \"#utility.yul\":6668:6797   */\n      swap2\n      swap1\n      pop\n      jump\t// out\n        /* \"#utility.yul\":6803:7111   */\n    tag_302:\n        /* \"#utility.yul\":6865:6869   */\n      0x00\n        /* \"#utility.yul\":6955:6973   */\n      0xffffffffffffffff\n        /* \"#utility.yul\":6947:6953   */\n      dup3\n        /* \"#utility.yul\":6944:6974   */\n      gt\n        /* \"#utility.yul\":6941:6997   */\n      iszero\n      tag_430\n      jumpi\n        /* \"#utility.yul\":6977:6995   */\n      tag_431\n      tag_299\n      jump\t// in\n    tag_431:\n        /* \"#utility.yul\":6941:6997   */\n    tag_430:\n        /* \"#utility.yul\":7015:7044   */\n      tag_432\n        /* \"#utility.yul\":7037:7043   */\n      dup3\n        /* \"#utility.yul\":7015:7044   */\n      tag_283\n      jump\t// in\n    tag_432:\n        /* \"#utility.yul\":7007:7044   */\n      swap1\n      pop\n        /* \"#utility.yul\":7099:7103   */\n      0x20\n        /* \"#utility.yul\":7093:7097   */\n      dup2\n        /* \"#utility.yul\":7089:7104   */\n      add\n        /* \"#utility.yul\":7081:7104   */\n      swap1\n      pop\n        /* \"#utility.yul\":6803:7111   */\n      swap2\n      swap1\n      pop\n      jump\t// out\n        /* \"#utility.yul\":7117:7265   */\n    tag_303:\n        /* \"#utility.yul\":7215:7221   */\n      dup3\n        /* \"#utility.yul\":7210:7213   */\n      dup2\n        /* \"#utility.yul\":7205:7208   */\n      dup4\n        /* \"#utility.yul\":7192:7222   */\n      calldatacopy\n        /* \"#utility.yul\":7256:7257   */\n      0x00\n        /* \"#utility.yul\":7247:7253   */\n      dup4\n        /* \"#utility.yul\":7242:7245   */\n      dup4\n        /* \"#utility.yul\":7238:7254   */\n      add\n        /* \"#utility.yul\":7231:7258   */\n      mstore\n        /* \"#utility.yul\":7117:7265   */\n      pop\n      pop\n      pop\n      jump\t// out\n        /* \"#utility.yul\":7271:7696   */\n    tag_304:\n        /* \"#utility.yul\":7349:7354   */\n      0x00\n        /* \"#utility.yul\":7374:7440   */\n      tag_435\n        /* \"#utility.yul\":7390:7439   */\n      tag_436\n        /* \"#utility.yul\":7432:7438   */\n      dup5\n        /* \"#utility.yul\":7390:7439   */\n      tag_302\n      jump\t// in\n    tag_436:\n        /* \"#utility.yul\":7374:7440   */\n      tag_301\n      jump\t// in\n    tag_435:\n        /* \"#utility.yul\":7365:7440   */\n      swap1\n      pop\n        /* \"#utility.yul\":7463:7469   */\n      dup3\n        /* \"#utility.yul\":7456:7461   */\n      dup2\n        /* \"#utility.yul\":7449:7470   */\n      mstore\n        /* \"#utility.yul\":7501:7505   */\n      0x20\n        /* \"#utility.yul\":7494:7499   */\n      dup2\n        /* \"#utility.yul\":7490:7506   */\n      add\n        /* \"#utility.yul\":7539:7542   */\n      dup5\n        /* \"#utility.yul\":7530:7536   */\n      dup5\n        /* \"#utility.yul\":7525:7528   */\n      dup5\n        /* \"#utility.yul\":7521:7537   */\n      add\n        /* \"#utility.yul\":7518:7543   */\n      gt\n        /* \"#utility.yul\":7515:7627   */\n      iszero\n      tag_437\n      jumpi\n        /* \"#utility.yul\":7546:7625   */\n      tag_438\n      tag_298\n      jump\t// in\n    tag_438:\n        /* \"#utility.yul\":7515:7627   */\n    tag_437:\n        /* \"#utility.yul\":7636:7690   */\n      tag_439\n        /* \"#utility.yul\":7683:7689   */\n      dup5\n        /* \"#utility.yul\":7678:7681   */\n      dup3\n        /* \"#utility.yul\":7673:7676   */\n      dup6\n        /* \"#utility.yul\":7636:7690   */\n      tag_303\n      jump\t// in\n    tag_439:\n        /* \"#utility.yul\":7355:7696   */\n      pop\n        /* \"#utility.yul\":7271:7696   */\n      swap4\n      swap3\n      pop\n      pop\n      pop\n      jump\t// out\n        /* \"#utility.yul\":7716:8056   */\n    tag_305:\n        /* \"#utility.yul\":7772:7777   */\n      0x00\n        /* \"#utility.yul\":7821:7824   */\n      dup3\n        /* \"#utility.yul\":7814:7818   */\n      0x1f\n        /* \"#utility.yul\":7806:7812   */\n      dup4\n        /* \"#utility.yul\":7802:7819   */\n      add\n        /* \"#utility.yul\":7798:7825   */\n      slt\n        /* \"#utility.yul\":7788:7910   */\n      tag_441\n      jumpi\n        /* \"#utility.yul\":7829:7908   */\n      tag_442\n      tag_297\n      jump\t// in\n    tag_442:\n        /* \"#utility.yul\":7788:7910   */\n    tag_441:\n        /* \"#utility.yul\":7946:7952   */\n      dup2\n        /* \"#utility.yul\":7933:7953   */\n      calldataload\n        /* \"#utility.yul\":7971:8050   */\n      tag_443\n        /* \"#utility.yul\":8046:8049   */\n      dup5\n        /* \"#utility.yul\":8038:8044   */\n      dup3\n        /* \"#utility.yul\":8031:8035   */\n      0x20\n        /* \"#utility.yul\":8023:8029   */\n      dup7\n        /* \"#utility.yul\":8019:8036   */\n      add\n        /* \"#utility.yul\":7971:8050   */\n      tag_304\n      jump\t// in\n    tag_443:\n        /* \"#utility.yul\":7962:8050   */\n      swap2\n      pop\n        /* \"#utility.yul\":7778:8056   */\n      pop\n        /* \"#utility.yul\":7716:8056   */\n      swap3\n      swap2\n      pop\n      pop\n      jump\t// out\n        /* \"#utility.yul\":8062:8716   */\n    tag_88:\n        /* \"#utility.yul\":8140:8146   */\n      0x00\n        /* \"#utility.yul\":8148:8154   */\n      0x00\n        /* \"#utility.yul\":8197:8199   */\n      0x40\n        /* \"#utility.yul\":8185:8194   */\n      dup4\n        /* \"#utility.yul\":8176:8183   */\n      dup6\n        /* \"#utility.yul\":8172:8195   */\n      sub\n        /* \"#utility.yul\":8168:8200   */\n      slt\n        /* \"#utility.yul\":8165:8284   */\n      iszero\n      tag_445\n      jumpi\n        /* \"#utility.yul\":8203:8282   */\n      tag_446\n      tag_275\n      jump\t// in\n    tag_446:\n        /* \"#utility.yul\":8165:8284   */\n    tag_445:\n        /* \"#utility.yul\":8351:8352   */\n      0x00\n        /* \"#utility.yul\":8340:8349   */\n      dup4\n        /* \"#utility.yul\":8336:8353   */\n      add\n        /* \"#utility.yul\":8323:8354   */\n      calldataload\n        /* \"#utility.yul\":8381:8399   */\n      0xffffffffffffffff\n        /* \"#utility.yul\":8373:8379   */\n      dup2\n        /* \"#utility.yul\":8370:8400   */\n      gt\n        /* \"#utility.yul\":8367:8484   */\n      iszero\n      tag_447\n      jumpi\n        /* \"#utility.yul\":8403:8482   */\n      tag_448\n      tag_276\n      jump\t// in\n    tag_448:\n        /* \"#utility.yul\":8367:8484   */\n    tag_447:\n        /* \"#utility.yul\":8508:8571   */\n      tag_449\n        /* \"#utility.yul\":8563:8570   */\n      dup6\n        /* \"#utility.yul\":8554:8560   */\n      dup3\n        /* \"#utility.yul\":8543:8552   */\n      dup7\n        /* \"#utility.yul\":8539:8561   */\n      add\n        /* \"#utility.yul\":8508:8571   */\n      tag_305\n      jump\t// in\n    tag_449:\n        /* \"#utility.yul\":8498:8571   */\n      swap3\n      pop\n        /* \"#utility.yul\":8294:8581   */\n      pop\n        /* \"#utility.yul\":8620:8622   */\n      0x20\n        /* \"#utility.yul\":8646:8699   */\n      tag_450\n        /* \"#utility.yul\":8691:8698   */\n      dup6\n        /* \"#utility.yul\":8682:8688   */\n      dup3\n        /* \"#utility.yul\":8671:8680   */\n      dup7\n        /* \"#utility.yul\":8667:8689   */\n      add\n        /* \"#utility.yul\":8646:8699   */\n      tag_279\n      jump\t// in\n    tag_450:\n        /* \"#utility.yul\":8636:8699   */\n      swap2\n      pop\n        /* \"#utility.yul\":8591:8709   */\n      pop\n        /* \"#utility.yul\":8062:8716   */\n      swap3\n      pop\n      swap3\n      swap1\n      pop\n      jump\t// out\n        /* \"#utility.yul\":8722:9051   */\n    tag_93:\n        /* \"#utility.yul\":8781:8787   */\n      0x00\n        /* \"#utility.yul\":8830:8832   */\n      0x20\n        /* \"#utility.yul\":8818:8827   */\n      dup3\n        /* \"#utility.yul\":8809:8816   */\n      dup5\n        /* \"#utility.yul\":8805:8828   */\n      sub\n        /* \"#utility.yul\":8801:8833   */\n      slt\n        /* \"#utility.yul\":8798:8917   */\n      iszero\n      tag_452\n      jumpi\n        /* \"#utility.yul\":8836:8915   */\n      tag_453\n      tag_275\n      jump\t// in\n    tag_453:\n        /* \"#utility.yul\":8798:8917   */\n    tag_452:\n        /* \"#utility.yul\":8956:8957   */\n      0x00\n        /* \"#utility.yul\":8981:9034   */\n      tag_454\n        /* \"#utility.yul\":9026:9033   */\n      dup5\n        /* \"#utility.yul\":9017:9023   */\n      dup3\n        /* \"#utility.yul\":9006:9015   */\n      dup6\n        /* \"#utility.yul\":9002:9024   */\n      add\n        /* \"#utility.yul\":8981:9034   */\n      tag_295\n      jump\t// in\n    tag_454:\n        /* \"#utility.yul\":8971:9034   */\n      swap2\n      pop\n        /* \"#utility.yul\":8927:9044   */\n      pop\n        /* \"#utility.yul\":8722:9051   */\n      swap3\n      swap2\n      pop\n      pop\n      jump\t// out\n        /* \"#utility.yul\":9057:9191   */\n    tag_306:\n        /* \"#utility.yul\":9144:9150   */\n      0x00\n        /* \"#utility.yul\":9178:9183   */\n      dup2\n        /* \"#utility.yul\":9172:9184   */\n      mload\n        /* \"#utility.yul\":9162:9184   */\n      swap1\n      pop\n        /* \"#utility.yul\":9057:9191   */\n      swap2\n      swap1\n      pop\n      jump\t// out\n        /* \"#utility.yul\":9197:9401   */\n    tag_307:\n        /* \"#utility.yul\":9316:9327   */\n      0x00\n        /* \"#utility.yul\":9350:9356   */\n      dup3\n        /* \"#utility.yul\":9345:9348   */\n      dup3\n        /* \"#utility.yul\":9338:9357   */\n      mstore\n        /* \"#utility.yul\":9390:9394   */\n      0x20\n        /* \"#utility.yul\":9385:9388   */\n      dup3\n        /* \"#utility.yul\":9381:9395   */\n      add\n        /* \"#utility.yul\":9366:9395   */\n      swap1\n      pop\n        /* \"#utility.yul\":9197:9401   */\n      swap3\n      swap2\n      pop\n      pop\n      jump\t// out\n        /* \"#utility.yul\":9407:9559   */\n    tag_308:\n        /* \"#utility.yul\":9494:9498   */\n      0x00\n        /* \"#utility.yul\":9517:9520   */\n      dup2\n        /* \"#utility.yul\":9509:9520   */\n      swap1\n      pop\n        /* \"#utility.yul\":9547:9551   */\n      0x20\n        /* \"#utility.yul\":9542:9545   */\n      dup3\n        /* \"#utility.yul\":9538:9552   */\n      add\n        /* \"#utility.yul\":9530:9552   */\n      swap1\n      pop\n        /* \"#utility.yul\":9407:9559   */\n      swap2\n      swap1\n      pop\n      jump\t// out\n        /* \"#utility.yul\":9565:9724   */\n    tag_309:\n        /* \"#utility.yul\":9639:9650   */\n      0x00\n        /* \"#utility.yul\":9673:9679   */\n      dup3\n        /* \"#utility.yul\":9668:9671   */\n      dup3\n        /* \"#utility.yul\":9661:9680   */\n      mstore\n        /* \"#utility.yul\":9713:9717   */\n      0x20\n        /* \"#utility.yul\":9708:9711   */\n      dup3\n        /* \"#utility.yul\":9704:9718   */\n      add\n        /* \"#utility.yul\":9689:9718   */\n      swap1\n      pop\n        /* \"#utility.yul\":9565:9724   */\n      swap3\n      swap2\n      pop\n      pop\n      jump\t// out\n        /* \"#utility.yul\":9730:10087   */\n    tag_310:\n        /* \"#utility.yul\":9808:9811   */\n      0x00\n        /* \"#utility.yul\":9836:9875   */\n      tag_460\n        /* \"#utility.yul\":9869:9874   */\n      dup3\n        /* \"#utility.yul\":9836:9875   */\n      tag_280\n      jump\t// in\n    tag_460:\n        /* \"#utility.yul\":9891:9952   */\n      tag_461\n        /* \"#utility.yul\":9945:9951   */\n      dup2\n        /* \"#utility.yul\":9940:9943   */\n      dup6\n        /* \"#utility.yul\":9891:9952   */\n      tag_309\n      jump\t// in\n    tag_461:\n        /* \"#utility.yul\":9884:9952   */\n      swap4\n      pop\n        /* \"#utility.yul\":9961:10026   */\n      tag_462\n        /* \"#utility.yul\":10019:10025   */\n      dup2\n        /* \"#utility.yul\":10014:10017   */\n      dup6\n        /* \"#utility.yul\":10007:10011   */\n      0x20\n        /* \"#utility.yul\":10000:10005   */\n      dup7\n        /* \"#utility.yul\":9996:10012   */\n      add\n        /* \"#utility.yul\":9961:10026   */\n      tag_282\n      jump\t// in\n    tag_462:\n        /* \"#utility.yul\":10051:10080   */\n      tag_463\n        /* \"#utility.yul\":10073:10079   */\n      dup2\n        /* \"#utility.yul\":10051:10080   */\n      tag_283\n      jump\t// in\n    tag_463:\n        /* \"#utility.yul\":10046:10049   */\n      dup5\n        /* \"#utility.yul\":10042:10081   */\n      add\n        /* \"#utility.yul\":10035:10081   */\n      swap2\n      pop\n        /* \"#utility.yul\":9812:10087   */\n      pop\n        /* \"#utility.yul\":9730:10087   */\n      swap3\n      swap2\n      pop\n      pop\n      jump\t// out\n        /* \"#utility.yul\":10093:10201   */\n    tag_311:\n        /* \"#utility.yul\":10170:10194   */\n      tag_465\n        /* \"#utility.yul\":10188:10193   */\n      dup2\n        /* \"#utility.yul\":10170:10194   */\n      tag_277\n      jump\t// in\n    tag_465:\n        /* \"#utility.yul\":10165:10168   */\n      dup3\n        /* \"#utility.yul\":10158:10195   */\n      mstore\n        /* \"#utility.yul\":10093:10201   */\n      pop\n      pop\n      jump\t// out\n        /* \"#utility.yul\":10257:11022   */\n    tag_312:\n        /* \"#utility.yul\":10356:10359   */\n      0x00\n        /* \"#utility.yul\":10392:10396   */\n      0x60\n        /* \"#utility.yul\":10387:10390   */\n      dup4\n        /* \"#utility.yul\":10383:10397   */\n      add\n        /* \"#utility.yul\":10479:10483   */\n      0x00\n        /* \"#utility.yul\":10472:10477   */\n      dup4\n        /* \"#utility.yul\":10468:10484   */\n      add\n        /* \"#utility.yul\":10462:10485   */\n      mload\n        /* \"#utility.yul\":10532:10535   */\n      dup5\n        /* \"#utility.yul\":10526:10530   */\n      dup3\n        /* \"#utility.yul\":10522:10536   */\n      sub\n        /* \"#utility.yul\":10515:10519   */\n      0x00\n        /* \"#utility.yul\":10510:10513   */\n      dup7\n        /* \"#utility.yul\":10506:10520   */\n      add\n        /* \"#utility.yul\":10499:10537   */\n      mstore\n        /* \"#utility.yul\":10558:10631   */\n      tag_467\n        /* \"#utility.yul\":10626:10630   */\n      dup3\n        /* \"#utility.yul\":10612:10624   */\n      dup3\n        /* \"#utility.yul\":10558:10631   */\n      tag_310\n      jump\t// in\n    tag_467:\n        /* \"#utility.yul\":10550:10631   */\n      swap2\n      pop\n        /* \"#utility.yul\":10407:10642   */\n      pop\n        /* \"#utility.yul\":10726:10730   */\n      0x20\n        /* \"#utility.yul\":10719:10724   */\n      dup4\n        /* \"#utility.yul\":10715:10731   */\n      add\n        /* \"#utility.yul\":10709:10732   */\n      mload\n        /* \"#utility.yul\":10745:10808   */\n      tag_468\n        /* \"#utility.yul\":10802:10806   */\n      0x20\n        /* \"#utility.yul\":10797:10800   */\n      dup7\n        /* \"#utility.yul\":10793:10807   */\n      add\n        /* \"#utility.yul\":10779:10791   */\n      dup3\n        /* \"#utility.yul\":10745:10808   */\n      tag_311\n      jump\t// in\n    tag_468:\n        /* \"#utility.yul\":10652:10818   */\n      pop\n        /* \"#utility.yul\":10903:10907   */\n      0x40\n        /* \"#utility.yul\":10896:10901   */\n      dup4\n        /* \"#utility.yul\":10892:10908   */\n      add\n        /* \"#utility.yul\":10886:10909   */\n      mload\n        /* \"#utility.yul\":10922:10985   */\n      tag_469\n        /* \"#utility.yul\":10979:10983   */\n      0x40\n        /* \"#utility.yul\":10974:10977   */\n      dup7\n        /* \"#utility.yul\":10970:10984   */\n      add\n        /* \"#utility.yul\":10956:10968   */\n      dup3\n        /* \"#utility.yul\":10922:10985   */\n      tag_311\n      jump\t// in\n    tag_469:\n        /* \"#utility.yul\":10828:10995   */\n      pop\n        /* \"#utility.yul\":11012:11016   */\n      dup1\n        /* \"#utility.yul\":11005:11016   */\n      swap2\n      pop\n        /* \"#utility.yul\":10361:11022   */\n      pop\n        /* \"#utility.yul\":10257:11022   */\n      swap3\n      swap2\n      pop\n      pop\n      jump\t// out\n        /* \"#utility.yul\":11028:11264   */\n    tag_313:\n        /* \"#utility.yul\":11137:11147   */\n      0x00\n        /* \"#utility.yul\":11172:11258   */\n      tag_471\n        /* \"#utility.yul\":11254:11257   */\n      dup4\n        /* \"#utility.yul\":11246:11252   */\n      dup4\n        /* \"#utility.yul\":11172:11258   */\n      tag_312\n      jump\t// in\n    tag_471:\n        /* \"#utility.yul\":11158:11258   */\n      swap1\n      pop\n        /* \"#utility.yul\":11028:11264   */\n      swap3\n      swap2\n      pop\n      pop\n      jump\t// out\n        /* \"#utility.yul\":11270:11403   */\n    tag_314:\n        /* \"#utility.yul\":11360:11364   */\n      0x00\n        /* \"#utility.yul\":11392:11396   */\n      0x20\n        /* \"#utility.yul\":11387:11390   */\n      dup3\n        /* \"#utility.yul\":11383:11397   */\n      add\n        /* \"#utility.yul\":11375:11397   */\n      swap1\n      pop\n        /* \"#utility.yul\":11270:11403   */\n      swap2\n      swap1\n      pop\n      jump\t// out\n        /* \"#utility.yul\":11463:12534   */\n    tag_315:\n        /* \"#utility.yul\":11622:11625   */\n      0x00\n        /* \"#utility.yul\":11651:11725   */\n      tag_474\n        /* \"#utility.yul\":11719:11724   */\n      dup3\n        /* \"#utility.yul\":11651:11725   */\n      tag_306\n      jump\t// in\n    tag_474:\n        /* \"#utility.yul\":11741:11847   */\n      tag_475\n        /* \"#utility.yul\":11840:11846   */\n      dup2\n        /* \"#utility.yul\":11835:11838   */\n      dup6\n        /* \"#utility.yul\":11741:11847   */\n      tag_307\n      jump\t// in\n    tag_475:\n        /* \"#utility.yul\":11734:11847   */\n      swap4\n      pop\n        /* \"#utility.yul\":11873:11876   */\n      dup4\n        /* \"#utility.yul\":11918:11922   */\n      0x20\n        /* \"#utility.yul\":11910:11916   */\n      dup3\n        /* \"#utility.yul\":11906:11923   */\n      mul\n        /* \"#utility.yul\":11901:11904   */\n      dup6\n        /* \"#utility.yul\":11897:11924   */\n      add\n        /* \"#utility.yul\":11948:12024   */\n      tag_476\n        /* \"#utility.yul\":12018:12023   */\n      dup6\n        /* \"#utility.yul\":11948:12024   */\n      tag_308\n      jump\t// in\n    tag_476:\n        /* \"#utility.yul\":12047:12054   */\n      dup1\n        /* \"#utility.yul\":12078:12079   */\n      0x00\n        /* \"#utility.yul\":12063:12489   */\n    tag_477:\n        /* \"#utility.yul\":12088:12094   */\n      dup6\n        /* \"#utility.yul\":12085:12086   */\n      dup2\n        /* \"#utility.yul\":12082:12095   */\n      lt\n        /* \"#utility.yul\":12063:12489   */\n      iszero\n      tag_479\n      jumpi\n        /* \"#utility.yul\":12159:12168   */\n      dup5\n        /* \"#utility.yul\":12153:12157   */\n      dup5\n        /* \"#utility.yul\":12149:12169   */\n      sub\n        /* \"#utility.yul\":12144:12147   */\n      dup10\n        /* \"#utility.yul\":12137:12170   */\n      mstore\n        /* \"#utility.yul\":12210:12216   */\n      dup2\n        /* \"#utility.yul\":12204:12217   */\n      mload\n        /* \"#utility.yul\":12238:12342   */\n      tag_480\n        /* \"#utility.yul\":12337:12341   */\n      dup6\n        /* \"#utility.yul\":12322:12335   */\n      dup3\n        /* \"#utility.yul\":12238:12342   */\n      tag_313\n      jump\t// in\n    tag_480:\n        /* \"#utility.yul\":12230:12342   */\n      swap5\n      pop\n        /* \"#utility.yul\":12365:12445   */\n      tag_481\n        /* \"#utility.yul\":12438:12444   */\n      dup4\n        /* \"#utility.yul\":12365:12445   */\n      tag_314\n      jump\t// in\n    tag_481:\n        /* \"#utility.yul\":12355:12445   */\n      swap3\n      pop\n        /* \"#utility.yul\":12474:12478   */\n      0x20\n        /* \"#utility.yul\":12469:12472   */\n      dup11\n        /* \"#utility.yul\":12465:12479   */\n      add\n        /* \"#utility.yul\":12458:12479   */\n      swap10\n      pop\n        /* \"#utility.yul\":12123:12489   */\n      pop\n        /* \"#utility.yul\":12110:12111   */\n      0x01\n        /* \"#utility.yul\":12107:12108   */\n      dup2\n        /* \"#utility.yul\":12103:12112   */\n      add\n        /* \"#utility.yul\":12098:12112   */\n      swap1\n      pop\n        /* \"#utility.yul\":12063:12489   */\n      jump(tag_477)\n    tag_479:\n        /* \"#utility.yul\":12067:12081   */\n      pop\n        /* \"#utility.yul\":12505:12509   */\n      dup3\n        /* \"#utility.yul\":12498:12509   */\n      swap8\n      pop\n        /* \"#utility.yul\":12525:12528   */\n      dup8\n        /* \"#utility.yul\":12518:12528   */\n      swap6\n      pop\n        /* \"#utility.yul\":11627:12534   */\n      pop\n      pop\n      pop\n      pop\n      pop\n        /* \"#utility.yul\":11463:12534   */\n      swap3\n      swap2\n      pop\n      pop\n      jump\t// out\n        /* \"#utility.yul\":12540:12993   */\n    tag_110:\n        /* \"#utility.yul\":12723:12727   */\n      0x00\n        /* \"#utility.yul\":12761:12763   */\n      0x20\n        /* \"#utility.yul\":12750:12759   */\n      dup3\n        /* \"#utility.yul\":12746:12764   */\n      add\n        /* \"#utility.yul\":12738:12764   */\n      swap1\n      pop\n        /* \"#utility.yul\":12810:12819   */\n      dup2\n        /* \"#utility.yul\":12804:12808   */\n      dup2\n        /* \"#utility.yul\":12800:12820   */\n      sub\n        /* \"#utility.yul\":12796:12797   */\n      0x00\n        /* \"#utility.yul\":12785:12794   */\n      dup4\n        /* \"#utility.yul\":12781:12798   */\n      add\n        /* \"#utility.yul\":12774:12821   */\n      mstore\n        /* \"#utility.yul\":12838:12986   */\n      tag_483\n        /* \"#utility.yul\":12981:12985   */\n      dup2\n        /* \"#utility.yul\":12972:12978   */\n      dup5\n        /* \"#utility.yul\":12838:12986   */\n      tag_315\n      jump\t// in\n    tag_483:\n        /* \"#utility.yul\":12830:12986   */\n      swap1\n      pop\n        /* \"#utility.yul\":12540:12993   */\n      swap3\n      swap2\n      pop\n      pop\n      jump\t// out\n        /* \"#utility.yul\":12999:13179   */\n    tag_316:\n        /* \"#utility.yul\":13047:13124   */\n      0x4e487b7100000000000000000000000000000000000000000000000000000000\n        /* \"#utility.yul\":13044:13045   */\n      0x00\n        /* \"#utility.yul\":13037:13125   */\n      mstore\n        /* \"#utility.yul\":13144:13148   */\n      0x22\n        /* \"#utility.yul\":13141:13142   */\n      0x04\n        /* \"#utility.yul\":13134:13149   */\n      mstore\n        /* \"#utility.yul\":13168:13172   */\n      0x24\n        /* \"#utility.yul\":13165:13166   */\n      0x00\n        /* \"#utility.yul\":13158:13173   */\n      revert\n        /* \"#utility.yul\":13185:13505   */\n    tag_114:\n        /* \"#utility.yul\":13229:13235   */\n      0x00\n        /* \"#utility.yul\":13266:13267   */\n      0x02\n        /* \"#utility.yul\":13260:13264   */\n      dup3\n        /* \"#utility.yul\":13256:13268   */\n      div\n        /* \"#utility.yul\":13246:13268   */\n      swap1\n      pop\n        /* \"#utility.yul\":13313:13314   */\n      0x01\n        /* \"#utility.yul\":13307:13311   */\n      dup3\n        /* \"#utility.yul\":13303:13315   */\n      and\n        /* \"#utility.yul\":13334:13352   */\n      dup1\n        /* \"#utility.yul\":13324:13405   */\n      tag_486\n      jumpi\n        /* \"#utility.yul\":13390:13394   */\n      0x7f\n        /* \"#utility.yul\":13382:13388   */\n      dup3\n        /* \"#utility.yul\":13378:13395   */\n      and\n        /* \"#utility.yul\":13368:13395   */\n      swap2\n      pop\n        /* \"#utility.yul\":13324:13405   */\n    tag_486:\n        /* \"#utility.yul\":13452:13454   */\n      0x20\n        /* \"#utility.yul\":13444:13450   */\n      dup3\n        /* \"#utility.yul\":13441:13455   */\n      lt\n        /* \"#utility.yul\":13421:13439   */\n      dup2\n        /* \"#utility.yul\":13418:13456   */\n      sub\n        /* \"#utility.yul\":13415:13499   */\n      tag_487\n      jumpi\n        /* \"#utility.yul\":13471:13489   */\n      tag_488\n      tag_316\n      jump\t// in\n    tag_488:\n        /* \"#utility.yul\":13415:13499   */\n    tag_487:\n        /* \"#utility.yul\":13236:13505   */\n      pop\n        /* \"#utility.yul\":13185:13505   */\n      swap2\n      swap1\n      pop\n      jump\t// out\n        /* \"#utility.yul\":13511:13674   */\n    tag_317:\n        /* \"#utility.yul\":13651:13666   */\n      0x4e6f7420746865206f776e657200000000000000000000000000000000000000\n        /* \"#utility.yul\":13647:13648   */\n      0x00\n        /* \"#utility.yul\":13639:13645   */\n      dup3\n        /* \"#utility.yul\":13635:13649   */\n      add\n        /* \"#utility.yul\":13628:13667   */\n      mstore\n        /* \"#utility.yul\":13511:13674   */\n      pop\n      jump\t// out\n        /* \"#utility.yul\":13680:14046   */\n    tag_318:\n        /* \"#utility.yul\":13822:13825   */\n      0x00\n        /* \"#utility.yul\":13843:13910   */\n      tag_491\n        /* \"#utility.yul\":13907:13909   */\n      0x0d\n        /* \"#utility.yul\":13902:13905   */\n      dup4\n        /* \"#utility.yul\":13843:13910   */\n      tag_281\n      jump\t// in\n    tag_491:\n        /* \"#utility.yul\":13836:13910   */\n      swap2\n      pop\n        /* \"#utility.yul\":13919:14012   */\n      tag_492\n        /* \"#utility.yul\":14008:14011   */\n      dup3\n        /* \"#utility.yul\":13919:14012   */\n      tag_317\n      jump\t// in\n    tag_492:\n        /* \"#utility.yul\":14037:14039   */\n      0x20\n        /* \"#utility.yul\":14032:14035   */\n      dup3\n        /* \"#utility.yul\":14028:14040   */\n      add\n        /* \"#utility.yul\":14021:14040   */\n      swap1\n      pop\n        /* \"#utility.yul\":13680:14046   */\n      swap2\n      swap1\n      pop\n      jump\t// out\n        /* \"#utility.yul\":14052:14471   */\n    tag_137:\n        /* \"#utility.yul\":14218:14222   */\n      0x00\n        /* \"#utility.yul\":14256:14258   */\n      0x20\n        /* \"#utility.yul\":14245:14254   */\n      dup3\n        /* \"#utility.yul\":14241:14259   */\n      add\n        /* \"#utility.yul\":14233:14259   */\n      swap1\n      pop\n        /* \"#utility.yul\":14305:14314   */\n      dup2\n        /* \"#utility.yul\":14299:14303   */\n      dup2\n        /* \"#utility.yul\":14295:14315   */\n      sub\n        /* \"#utility.yul\":14291:14292   */\n      0x00\n        /* \"#utility.yul\":14280:14289   */\n      dup4\n        /* \"#utility.yul\":14276:14293   */\n      add\n        /* \"#utility.yul\":14269:14316   */\n      mstore\n        /* \"#utility.yul\":14333:14464   */\n      tag_494\n        /* \"#utility.yul\":14459:14463   */\n      dup2\n        /* \"#utility.yul\":14333:14464   */\n      tag_318\n      jump\t// in\n    tag_494:\n        /* \"#utility.yul\":14325:14464   */\n      swap1\n      pop\n        /* \"#utility.yul\":14052:14471   */\n      swap2\n      swap1\n      pop\n      jump\t// out\n        /* \"#utility.yul\":14477:14650   */\n    tag_319:\n        /* \"#utility.yul\":14617:14642   */\n      0x43616d706169676e206973206e6f74206163746976652e000000000000000000\n        /* \"#utility.yul\":14613:14614   */\n      0x00\n        /* \"#utility.yul\":14605:14611   */\n      dup3\n        /* \"#utility.yul\":14601:14615   */\n      add\n        /* \"#utility.yul\":14594:14643   */\n      mstore\n        /* \"#utility.yul\":14477:14650   */\n      pop\n      jump\t// out\n        /* \"#utility.yul\":14656:15022   */\n    tag_320:\n        /* \"#utility.yul\":14798:14801   */\n      0x00\n        /* \"#utility.yul\":14819:14886   */\n      tag_497\n        /* \"#utility.yul\":14883:14885   */\n      0x17\n        /* \"#utility.yul\":14878:14881   */\n      dup4\n        /* \"#utility.yul\":14819:14886   */\n      tag_281\n      jump\t// in\n    tag_497:\n        /* \"#utility.yul\":14812:14886   */\n      swap2\n      pop\n        /* \"#utility.yul\":14895:14988   */\n      tag_498\n        /* \"#utility.yul\":14984:14987   */\n      dup3\n        /* \"#utility.yul\":14895:14988   */\n      tag_319\n      jump\t// in\n    tag_498:\n        /* \"#utility.yul\":15013:15015   */\n      0x20\n        /* \"#utility.yul\":15008:15011   */\n      dup3\n        /* \"#utility.yul\":15004:15016   */\n      add\n        /* \"#utility.yul\":14997:15016   */\n      swap1\n      pop\n        /* \"#utility.yul\":14656:15022   */\n      swap2\n      swap1\n      pop\n      jump\t// out\n        /* \"#utility.yul\":15028:15447   */\n    tag_145:\n        /* \"#utility.yul\":15194:15198   */\n      0x00\n        /* \"#utility.yul\":15232:15234   */\n      0x20\n        /* \"#utility.yul\":15221:15230   */\n      dup3\n        /* \"#utility.yul\":15217:15235   */\n      add\n        /* \"#utility.yul\":15209:15235   */\n      swap1\n      pop\n        /* \"#utility.yul\":15281:15290   */\n      dup2\n        /* \"#utility.yul\":15275:15279   */\n      dup2\n        /* \"#utility.yul\":15271:15291   */\n      sub\n        /* \"#utility.yul\":15267:15268   */\n      0x00\n        /* \"#utility.yul\":15256:15265   */\n      dup4\n        /* \"#utility.yul\":15252:15269   */\n      add\n        /* \"#utility.yul\":15245:15292   */\n      mstore\n        /* \"#utility.yul\":15309:15440   */\n      tag_500\n        /* \"#utility.yul\":15435:15439   */\n      dup2\n        /* \"#utility.yul\":15309:15440   */\n      tag_320\n      jump\t// in\n    tag_500:\n        /* \"#utility.yul\":15301:15440   */\n      swap1\n      pop\n        /* \"#utility.yul\":15028:15447   */\n      swap2\n      swap1\n      pop\n      jump\t// out\n        /* \"#utility.yul\":15453:15633   */\n    tag_321:\n        /* \"#utility.yul\":15501:15578   */\n      0x4e487b7100000000000000000000000000000000000000000000000000000000\n        /* \"#utility.yul\":15498:15499   */\n      0x00\n        /* \"#utility.yul\":15491:15579   */\n      mstore\n        /* \"#utility.yul\":15598:15602   */\n      0x11\n        /* \"#utility.yul\":15595:15596   */\n      0x04\n        /* \"#utility.yul\":15588:15603   */\n      mstore\n        /* \"#utility.yul\":15622:15626   */\n      0x24\n        /* \"#utility.yul\":15619:15620   */\n      0x00\n        /* \"#utility.yul\":15612:15627   */\n      revert\n        /* \"#utility.yul\":15639:16049   */\n    tag_148:\n        /* \"#utility.yul\":15679:15686   */\n      0x00\n        /* \"#utility.yul\":15702:15722   */\n      tag_503\n        /* \"#utility.yul\":15720:15721   */\n      dup3\n        /* \"#utility.yul\":15702:15722   */\n      tag_277\n      jump\t// in\n    tag_503:\n        /* \"#utility.yul\":15697:15722   */\n      swap2\n      pop\n        /* \"#utility.yul\":15736:15756   */\n      tag_504\n        /* \"#utility.yul\":15754:15755   */\n      dup4\n        /* \"#utility.yul\":15736:15756   */\n      tag_277\n      jump\t// in\n    tag_504:\n        /* \"#utility.yul\":15731:15756   */\n      swap3\n      pop\n        /* \"#utility.yul\":15791:15792   */\n      dup3\n        /* \"#utility.yul\":15788:15789   */\n      dup3\n        /* \"#utility.yul\":15784:15793   */\n      mul\n        /* \"#utility.yul\":15813:15843   */\n      tag_505\n        /* \"#utility.yul\":15831:15842   */\n      dup2\n        /* \"#utility.yul\":15813:15843   */\n      tag_277\n      jump\t// in\n    tag_505:\n        /* \"#utility.yul\":15802:15843   */\n      swap2\n      pop\n        /* \"#utility.yul\":15992:15993   */\n      dup3\n        /* \"#utility.yul\":15983:15990   */\n      dup3\n        /* \"#utility.yul\":15979:15994   */\n      div\n        /* \"#utility.yul\":15976:15977   */\n      dup5\n        /* \"#utility.yul\":15973:15995   */\n      eq\n        /* \"#utility.yul\":15953:15954   */\n      dup4\n        /* \"#utility.yul\":15946:15955   */\n      iszero\n        /* \"#utility.yul\":15926:16009   */\n      or\n        /* \"#utility.yul\":15903:16042   */\n      tag_506\n      jumpi\n        /* \"#utility.yul\":16022:16040   */\n      tag_507\n      tag_321\n      jump\t// in\n    tag_507:\n        /* \"#utility.yul\":15903:16042   */\n    tag_506:\n        /* \"#utility.yul\":15687:16049   */\n      pop\n        /* \"#utility.yul\":15639:16049   */\n      swap3\n      swap2\n      pop\n      pop\n      jump\t// out\n        /* \"#utility.yul\":16055:16246   */\n    tag_150:\n        /* \"#utility.yul\":16095:16098   */\n      0x00\n        /* \"#utility.yul\":16114:16134   */\n      tag_509\n        /* \"#utility.yul\":16132:16133   */\n      dup3\n        /* \"#utility.yul\":16114:16134   */\n      tag_277\n      jump\t// in\n    tag_509:\n        /* \"#utility.yul\":16109:16134   */\n      swap2\n      pop\n        /* \"#utility.yul\":16148:16168   */\n      tag_510\n        /* \"#utility.yul\":16166:16167   */\n      dup4\n        /* \"#utility.yul\":16148:16168   */\n      tag_277\n      jump\t// in\n    tag_510:\n        /* \"#utility.yul\":16143:16168   */\n      swap3\n      pop\n        /* \"#utility.yul\":16191:16192   */\n      dup3\n        /* \"#utility.yul\":16188:16189   */\n      dup3\n        /* \"#utility.yul\":16184:16193   */\n      add\n        /* \"#utility.yul\":16177:16193   */\n      swap1\n      pop\n        /* \"#utility.yul\":16212:16215   */\n      dup1\n        /* \"#utility.yul\":16209:16210   */\n      dup3\n        /* \"#utility.yul\":16206:16216   */\n      gt\n        /* \"#utility.yul\":16203:16239   */\n      iszero\n      tag_511\n      jumpi\n        /* \"#utility.yul\":16219:16237   */\n      tag_512\n      tag_321\n      jump\t// in\n    tag_512:\n        /* \"#utility.yul\":16203:16239   */\n    tag_511:\n        /* \"#utility.yul\":16055:16246   */\n      swap3\n      swap2\n      pop\n      pop\n      jump\t// out\n        /* \"#utility.yul\":16252:16426   */\n    tag_322:\n        /* \"#utility.yul\":16392:16418   */\n      0x43616d706169676e206e6f74207375636365737366756c2e0000000000000000\n        /* \"#utility.yul\":16388:16389   */\n      0x00\n        /* \"#utility.yul\":16380:16386   */\n      dup3\n        /* \"#utility.yul\":16376:16390   */\n      add\n        /* \"#utility.yul\":16369:16419   */\n      mstore\n        /* \"#utility.yul\":16252:16426   */\n      pop\n      jump\t// out\n        /* \"#utility.yul\":16432:16798   */\n    tag_323:\n        /* \"#utility.yul\":16574:16577   */\n      0x00\n        /* \"#utility.yul\":16595:16662   */\n      tag_515\n        /* \"#utility.yul\":16659:16661   */\n      0x18\n        /* \"#utility.yul\":16654:16657   */\n      dup4\n        /* \"#utility.yul\":16595:16662   */\n      tag_281\n      jump\t// in\n    tag_515:\n        /* \"#utility.yul\":16588:16662   */\n      swap2\n      pop\n        /* \"#utility.yul\":16671:16764   */\n      tag_516\n        /* \"#utility.yul\":16760:16763   */\n      dup3\n        /* \"#utility.yul\":16671:16764   */\n      tag_322\n      jump\t// in\n    tag_516:\n        /* \"#utility.yul\":16789:16791   */\n      0x20\n        /* \"#utility.yul\":16784:16787   */\n      dup3\n        /* \"#utility.yul\":16780:16792   */\n      add\n        /* \"#utility.yul\":16773:16792   */\n      swap1\n      pop\n        /* \"#utility.yul\":16432:16798   */\n      swap2\n      swap1\n      pop\n      jump\t// out\n        /* \"#utility.yul\":16804:17223   */\n    tag_163:\n        /* \"#utility.yul\":16970:16974   */\n      0x00\n        /* \"#utility.yul\":17008:17010   */\n      0x20\n        /* \"#utility.yul\":16997:17006   */\n      dup3\n        /* \"#utility.yul\":16993:17011   */\n      add\n        /* \"#utility.yul\":16985:17011   */\n      swap1\n      pop\n        /* \"#utility.yul\":17057:17066   */\n      dup2\n        /* \"#utility.yul\":17051:17055   */\n      dup2\n        /* \"#utility.yul\":17047:17067   */\n      sub\n        /* \"#utility.yul\":17043:17044   */\n      0x00\n        /* \"#utility.yul\":17032:17041   */\n      dup4\n        /* \"#utility.yul\":17028:17045   */\n      add\n        /* \"#utility.yul\":17021:17068   */\n      mstore\n        /* \"#utility.yul\":17085:17216   */\n      tag_518\n        /* \"#utility.yul\":17211:17215   */\n      dup2\n        /* \"#utility.yul\":17085:17216   */\n      tag_323\n      jump\t// in\n    tag_518:\n        /* \"#utility.yul\":17077:17216   */\n      swap1\n      pop\n        /* \"#utility.yul\":16804:17223   */\n      swap2\n      swap1\n      pop\n      jump\t// out\n        /* \"#utility.yul\":17229:17401   */\n    tag_324:\n        /* \"#utility.yul\":17369:17393   */\n      0x4e6f2062616c616e636520746f20776974686472617700000000000000000000\n        /* \"#utility.yul\":17365:17366   */\n      0x00\n        /* \"#utility.yul\":17357:17363   */\n      dup3\n        /* \"#utility.yul\":17353:17367   */\n      add\n        /* \"#utility.yul\":17346:17394   */\n      mstore\n        /* \"#utility.yul\":17229:17401   */\n      pop\n      jump\t// out\n        /* \"#utility.yul\":17407:17773   */\n    tag_325:\n        /* \"#utility.yul\":17549:17552   */\n      0x00\n        /* \"#utility.yul\":17570:17637   */\n      tag_521\n        /* \"#utility.yul\":17634:17636   */\n      0x16\n        /* \"#utility.yul\":17629:17632   */\n      dup4\n        /* \"#utility.yul\":17570:17637   */\n      tag_281\n      jump\t// in\n    tag_521:\n        /* \"#utility.yul\":17563:17637   */\n      swap2\n      pop\n        /* \"#utility.yul\":17646:17739   */\n      tag_522\n        /* \"#utility.yul\":17735:17738   */\n      dup3\n        /* \"#utility.yul\":17646:17739   */\n      tag_324\n      jump\t// in\n    tag_522:\n        /* \"#utility.yul\":17764:17766   */\n      0x20\n        /* \"#utility.yul\":17759:17762   */\n      dup3\n        /* \"#utility.yul\":17755:17767   */\n      add\n        /* \"#utility.yul\":17748:17767   */\n      swap1\n      pop\n        /* \"#utility.yul\":17407:17773   */\n      swap2\n      swap1\n      pop\n      jump\t// out\n        /* \"#utility.yul\":17779:18198   */\n    tag_166:\n        /* \"#utility.yul\":17945:17949   */\n      0x00\n        /* \"#utility.yul\":17983:17985   */\n      0x20\n        /* \"#utility.yul\":17972:17981   */\n      dup3\n        /* \"#utility.yul\":17968:17986   */\n      add\n        /* \"#utility.yul\":17960:17986   */\n      swap1\n      pop\n        /* \"#utility.yul\":18032:18041   */\n      dup2\n        /* \"#utility.yul\":18026:18030   */\n      dup2\n        /* \"#utility.yul\":18022:18042   */\n      sub\n        /* \"#utility.yul\":18018:18019   */\n      0x00\n        /* \"#utility.yul\":18007:18016   */\n      dup4\n        /* \"#utility.yul\":18003:18020   */\n      add\n        /* \"#utility.yul\":17996:18043   */\n      mstore\n        /* \"#utility.yul\":18060:18191   */\n      tag_524\n        /* \"#utility.yul\":18186:18190   */\n      dup2\n        /* \"#utility.yul\":18060:18191   */\n      tag_325\n      jump\t// in\n    tag_524:\n        /* \"#utility.yul\":18052:18191   */\n      swap1\n      pop\n        /* \"#utility.yul\":17779:18198   */\n      swap2\n      swap1\n      pop\n      jump\t// out\n        /* \"#utility.yul\":18204:18374   */\n    tag_326:\n        /* \"#utility.yul\":18344:18366   */\n      0x5469657220646f6573206e6f742065786973742e000000000000000000000000\n        /* \"#utility.yul\":18340:18341   */\n      0x00\n        /* \"#utility.yul\":18332:18338   */\n      dup3\n        /* \"#utility.yul\":18328:18342   */\n      add\n        /* \"#utility.yul\":18321:18367   */\n      mstore\n        /* \"#utility.yul\":18204:18374   */\n      pop\n      jump\t// out\n        /* \"#utility.yul\":18380:18746   */\n    tag_327:\n        /* \"#utility.yul\":18522:18525   */\n      0x00\n        /* \"#utility.yul\":18543:18610   */\n      tag_527\n        /* \"#utility.yul\":18607:18609   */\n      0x14\n        /* \"#utility.yul\":18602:18605   */\n      dup4\n        /* \"#utility.yul\":18543:18610   */\n      tag_281\n      jump\t// in\n    tag_527:\n        /* \"#utility.yul\":18536:18610   */\n      swap2\n      pop\n        /* \"#utility.yul\":18619:18712   */\n      tag_528\n        /* \"#utility.yul\":18708:18711   */\n      dup3\n        /* \"#utility.yul\":18619:18712   */\n      tag_326\n      jump\t// in\n    tag_528:\n        /* \"#utility.yul\":18737:18739   */\n      0x20\n        /* \"#utility.yul\":18732:18735   */\n      dup3\n        /* \"#utility.yul\":18728:18740   */\n      add\n        /* \"#utility.yul\":18721:18740   */\n      swap1\n      pop\n        /* \"#utility.yul\":18380:18746   */\n      swap2\n      swap1\n      pop\n      jump\t// out\n        /* \"#utility.yul\":18752:19171   */\n    tag_181:\n        /* \"#utility.yul\":18918:18922   */\n      0x00\n        /* \"#utility.yul\":18956:18958   */\n      0x20\n        /* \"#utility.yul\":18945:18954   */\n      dup3\n        /* \"#utility.yul\":18941:18959   */\n      add\n        /* \"#utility.yul\":18933:18959   */\n      swap1\n      pop\n        /* \"#utility.yul\":19005:19014   */\n      dup2\n        /* \"#utility.yul\":18999:19003   */\n      dup2\n        /* \"#utility.yul\":18995:19015   */\n      sub\n        /* \"#utility.yul\":18991:18992   */\n      0x00\n        /* \"#utility.yul\":18980:18989   */\n      dup4\n        /* \"#utility.yul\":18976:18993   */\n      add\n        /* \"#utility.yul\":18969:19016   */\n      mstore\n        /* \"#utility.yul\":19033:19164   */\n      tag_530\n        /* \"#utility.yul\":19159:19163   */\n      dup2\n        /* \"#utility.yul\":19033:19164   */\n      tag_327\n      jump\t// in\n    tag_530:\n        /* \"#utility.yul\":19025:19164   */\n      swap1\n      pop\n        /* \"#utility.yul\":18752:19171   */\n      swap2\n      swap1\n      pop\n      jump\t// out\n        /* \"#utility.yul\":19177:19371   */\n    tag_183:\n        /* \"#utility.yul\":19217:19221   */\n      0x00\n        /* \"#utility.yul\":19237:19257   */\n      tag_532\n        /* \"#utility.yul\":19255:19256   */\n      dup3\n        /* \"#utility.yul\":19237:19257   */\n      tag_277\n      jump\t// in\n    tag_532:\n        /* \"#utility.yul\":19232:19257   */\n      swap2\n      pop\n        /* \"#utility.yul\":19271:19291   */\n      tag_533\n        /* \"#utility.yul\":19289:19290   */\n      dup4\n        /* \"#utility.yul\":19271:19291   */\n      tag_277\n      jump\t// in\n    tag_533:\n        /* \"#utility.yul\":19266:19291   */\n      swap3\n      pop\n        /* \"#utility.yul\":19315:19316   */\n      dup3\n        /* \"#utility.yul\":19312:19313   */\n      dup3\n        /* \"#utility.yul\":19308:19317   */\n      sub\n        /* \"#utility.yul\":19300:19317   */\n      swap1\n      pop\n        /* \"#utility.yul\":19339:19340   */\n      dup2\n        /* \"#utility.yul\":19333:19337   */\n      dup2\n        /* \"#utility.yul\":19330:19341   */\n      gt\n        /* \"#utility.yul\":19327:19364   */\n      iszero\n      tag_534\n      jumpi\n        /* \"#utility.yul\":19344:19362   */\n      tag_535\n      tag_321\n      jump\t// in\n    tag_535:\n        /* \"#utility.yul\":19327:19364   */\n    tag_534:\n        /* \"#utility.yul\":19177:19371   */\n      swap3\n      swap2\n      pop\n      pop\n      jump\t// out\n        /* \"#utility.yul\":19377:19557   */\n    tag_186:\n        /* \"#utility.yul\":19425:19502   */\n      0x4e487b7100000000000000000000000000000000000000000000000000000000\n        /* \"#utility.yul\":19422:19423   */\n      0x00\n        /* \"#utility.yul\":19415:19503   */\n      mstore\n        /* \"#utility.yul\":19522:19526   */\n      0x32\n        /* \"#utility.yul\":19519:19520   */\n      0x04\n        /* \"#utility.yul\":19512:19527   */\n      mstore\n        /* \"#utility.yul\":19546:19550   */\n      0x24\n        /* \"#utility.yul\":19543:19544   */\n      0x00\n        /* \"#utility.yul\":19536:19551   */\n      revert\n        /* \"#utility.yul\":19563:19712   */\n    tag_328:\n        /* \"#utility.yul\":19612:19618   */\n      0x00\n        /* \"#utility.yul\":19646:19651   */\n      dup2\n        /* \"#utility.yul\":19640:19652   */\n      sload\n        /* \"#utility.yul\":19630:19652   */\n      swap1\n      pop\n        /* \"#utility.yul\":19672:19705   */\n      tag_538\n        /* \"#utility.yul\":19698:19704   */\n      dup2\n        /* \"#utility.yul\":19672:19705   */\n      tag_114\n      jump\t// in\n    tag_538:\n        /* \"#utility.yul\":19662:19705   */\n      swap1\n      pop\n        /* \"#utility.yul\":19563:19712   */\n      swap2\n      swap1\n      pop\n      jump\t// out\n        /* \"#utility.yul\":19718:19859   */\n    tag_329:\n        /* \"#utility.yul\":19767:19771   */\n      0x00\n        /* \"#utility.yul\":19790:19793   */\n      dup2\n        /* \"#utility.yul\":19782:19793   */\n      swap1\n      pop\n        /* \"#utility.yul\":19813:19816   */\n      dup2\n        /* \"#utility.yul\":19810:19811   */\n      0x00\n        /* \"#utility.yul\":19803:19817   */\n      mstore\n        /* \"#utility.yul\":19847:19851   */\n      0x20\n        /* \"#utility.yul\":19844:19845   */\n      0x00\n        /* \"#utility.yul\":19834:19852   */\n      keccak256\n        /* \"#utility.yul\":19826:19852   */\n      swap1\n      pop\n        /* \"#utility.yul\":19718:19859   */\n      swap2\n      swap1\n      pop\n      jump\t// out\n        /* \"#utility.yul\":19865:19958   */\n    tag_330:\n        /* \"#utility.yul\":19902:19908   */\n      0x00\n        /* \"#utility.yul\":19949:19951   */\n      0x20\n        /* \"#utility.yul\":19944:19946   */\n      0x1f\n        /* \"#utility.yul\":19937:19942   */\n      dup4\n        /* \"#utility.yul\":19933:19947   */\n      add\n        /* \"#utility.yul\":19929:19952   */\n      div\n        /* \"#utility.yul\":19919:19952   */\n      swap1\n      pop\n        /* \"#utility.yul\":19865:19958   */\n      swap2\n      swap1\n      pop\n      jump\t// out\n        /* \"#utility.yul\":19964:20071   */\n    tag_331:\n        /* \"#utility.yul\":20008:20016   */\n      0x00\n        /* \"#utility.yul\":20058:20063   */\n      dup3\n        /* \"#utility.yul\":20052:20056   */\n      dup3\n        /* \"#utility.yul\":20048:20064   */\n      shl\n        /* \"#utility.yul\":20027:20064   */\n      swap1\n      pop\n        /* \"#utility.yul\":19964:20071   */\n      swap3\n      swap2\n      pop\n      pop\n      jump\t// out\n        /* \"#utility.yul\":20077:20470   */\n    tag_332:\n        /* \"#utility.yul\":20146:20152   */\n      0x00\n        /* \"#utility.yul\":20196:20197   */\n      0x08\n        /* \"#utility.yul\":20184:20194   */\n      dup4\n        /* \"#utility.yul\":20180:20198   */\n      mul\n        /* \"#utility.yul\":20219:20316   */\n      tag_543\n        /* \"#utility.yul\":20249:20315   */\n      0xffffffffffffffffffffffffffffffffffffffffffffffffffffffffffffffff\n        /* \"#utility.yul\":20238:20247   */\n      dup3\n        /* \"#utility.yul\":20219:20316   */\n      tag_331\n      jump\t// in\n    tag_543:\n        /* \"#utility.yul\":20337:20376   */\n      tag_544\n        /* \"#utility.yul\":20367:20375   */\n      dup7\n        /* \"#utility.yul\":20356:20365   */\n      dup4\n        /* \"#utility.yul\":20337:20376   */\n      tag_331\n      jump\t// in\n    tag_544:\n        /* \"#utility.yul\":20325:20376   */\n      swap6\n      pop\n        /* \"#utility.yul\":20409:20413   */\n      dup1\n        /* \"#utility.yul\":20405:20414   */\n      not\n        /* \"#utility.yul\":20398:20403   */\n      dup5\n        /* \"#utility.yul\":20394:20415   */\n      and\n        /* \"#utility.yul\":20385:20415   */\n      swap4\n      pop\n        /* \"#utility.yul\":20458:20462   */\n      dup1\n        /* \"#utility.yul\":20448:20456   */\n      dup7\n        /* \"#utility.yul\":20444:20463   */\n      and\n        /* \"#utility.yul\":20437:20442   */\n      dup5\n        /* \"#utility.yul\":20434:20464   */\n      or\n        /* \"#utility.yul\":20424:20464   */\n      swap3\n      pop\n        /* \"#utility.yul\":20153:20470   */\n      pop\n      pop\n        /* \"#utility.yul\":20077:20470   */\n      swap4\n      swap3\n      pop\n      pop\n      pop\n      jump\t// out\n        /* \"#utility.yul\":20476:20536   */\n    tag_333:\n        /* \"#utility.yul\":20504:20507   */\n      0x00\n        /* \"#utility.yul\":20525:20530   */\n      dup2\n        /* \"#utility.yul\":20518:20530   */\n      swap1\n      pop\n        /* \"#utility.yul\":20476:20536   */\n      swap2\n      swap1\n      pop\n      jump\t// out\n        /* \"#utility.yul\":20542:20684   */\n    tag_334:\n        /* \"#utility.yul\":20592:20601   */\n      0x00\n        /* \"#utility.yul\":20625:20678   */\n      tag_547\n        /* \"#utility.yul\":20643:20677   */\n      tag_548\n        /* \"#utility.yul\":20652:20676   */\n      tag_549\n        /* \"#utility.yul\":20670:20675   */\n      dup5\n        /* \"#utility.yul\":20652:20676   */\n      tag_277\n      jump\t// in\n    tag_549:\n        /* \"#utility.yul\":20643:20677   */\n      tag_333\n      jump\t// in\n    tag_548:\n        /* \"#utility.yul\":20625:20678   */\n      tag_277\n      jump\t// in\n    tag_547:\n        /* \"#utility.yul\":20612:20678   */\n      swap1\n      pop\n        /* \"#utility.yul\":20542:20684   */\n      swap2\n      swap1\n      pop\n      jump\t// out\n        /* \"#utility.yul\":20690:20765   */\n    tag_335:\n        /* \"#utility.yul\":20733:20736   */\n      0x00\n        /* \"#utility.yul\":20754:20759   */\n      dup2\n        /* \"#utility.yul\":20747:20759   */\n      swap1\n      pop\n        /* \"#utility.yul\":20690:20765   */\n      swap2\n      swap1\n      pop\n      jump\t// out\n        /* \"#utility.yul\":20771:21040   */\n    tag_336:\n        /* \"#utility.yul\":20881:20920   */\n      tag_552\n        /* \"#utility.yul\":20912:20919   */\n      dup4\n        /* \"#utility.yul\":20881:20920   */\n      tag_334\n      jump\t// in\n    tag_552:\n        /* \"#utility.yul\":20942:21033   */\n      tag_553\n        /* \"#utility.yul\":20991:21032   */\n      tag_554\n        /* \"#utility.yul\":21015:21031   */\n      dup3\n        /* \"#utility.yul\":20991:21032   */\n      tag_335\n      jump\t// in\n    tag_554:\n        /* \"#utility.yul\":20983:20989   */\n      dup5\n        /* \"#utility.yul\":20976:20980   */\n      dup5\n        /* \"#utility.yul\":20970:20981   */\n      sload\n        /* \"#utility.yul\":20942:21033   */\n      tag_332\n      jump\t// in\n    tag_553:\n        /* \"#utility.yul\":20936:20940   */\n      dup3\n        /* \"#utility.yul\":20929:21034   */\n      sstore\n        /* \"#utility.yul\":20847:21040   */\n      pop\n        /* \"#utility.yul\":20771:21040   */\n      pop\n      pop\n      pop\n      jump\t// out\n        /* \"#utility.yul\":21046:21119   */\n    tag_337:\n        /* \"#utility.yul\":21091:21094   */\n      0x00\n        /* \"#utility.yul\":21112:21113   */\n      0x00\n        /* \"#utility.yul\":21105:21113   */\n      swap1\n      pop\n        /* \"#utility.yul\":21046:21119   */\n      swap1\n      jump\t// out\n        /* \"#utility.yul\":21125:21314   */\n    tag_338:\n        /* \"#utility.yul\":21202:21234   */\n      tag_557\n      tag_337\n      jump\t// in\n    tag_557:\n        /* \"#utility.yul\":21243:21308   */\n      tag_558\n        /* \"#utility.yul\":21301:21307   */\n      dup2\n        /* \"#utility.yul\":21293:21299   */\n      dup5\n        /* \"#utility.yul\":21287:21291   */\n      dup5\n        /* \"#utility.yul\":21243:21308   */\n      tag_336\n      jump\t// in\n    tag_558:\n        /* \"#utility.yul\":21178:21314   */\n      pop\n        /* \"#utility.yul\":21125:21314   */\n      pop\n      pop\n      jump\t// out\n        /* \"#utility.yul\":21320:21506   */\n    tag_339:\n        /* \"#utility.yul\":21380:21500   */\n    tag_560:\n        /* \"#utility.yul\":21397:21400   */\n      dup2\n        /* \"#utility.yul\":21390:21395   */\n      dup2\n        /* \"#utility.yul\":21387:21401   */\n      lt\n        /* \"#utility.yul\":21380:21500   */\n      iszero\n      tag_562\n      jumpi\n        /* \"#utility.yul\":21451:21490   */\n      tag_563\n        /* \"#utility.yul\":21488:21489   */\n      0x00\n        /* \"#utility.yul\":21481:21486   */\n      dup3\n        /* \"#utility.yul\":21451:21490   */\n      tag_338\n      jump\t// in\n    tag_563:\n        /* \"#utility.yul\":21424:21425   */\n      0x01\n        /* \"#utility.yul\":21417:21422   */\n      dup2\n        /* \"#utility.yul\":21413:21426   */\n      add\n        /* \"#utility.yul\":21404:21426   */\n      swap1\n      pop\n        /* \"#utility.yul\":21380:21500   */\n      jump(tag_560)\n    tag_562:\n        /* \"#utility.yul\":21320:21506   */\n      pop\n      pop\n      jump\t// out\n        /* \"#utility.yul\":21512:22055   */\n    tag_340:\n        /* \"#utility.yul\":21613:21615   */\n      0x1f\n        /* \"#utility.yul\":21608:21611   */\n      dup3\n        /* \"#utility.yul\":21605:21616   */\n      gt\n        /* \"#utility.yul\":21602:22048   */\n      iszero\n      tag_565\n      jumpi\n        /* \"#utility.yul\":21647:21685   */\n      tag_566\n        /* \"#utility.yul\":21679:21684   */\n      dup2\n        /* \"#utility.yul\":21647:21685   */\n      tag_329\n      jump\t// in\n    tag_566:\n        /* \"#utility.yul\":21731:21760   */\n      tag_567\n        /* \"#utility.yul\":21749:21759   */\n      dup5\n        /* \"#utility.yul\":21731:21760   */\n      tag_330\n      jump\t// in\n    tag_567:\n        /* \"#utility.yul\":21721:21729   */\n      dup2\n        /* \"#utility.yul\":21717:21761   */\n      add\n        /* \"#utility.yul\":21914:21916   */\n      0x20\n        /* \"#utility.yul\":21902:21912   */\n      dup6\n        /* \"#utility.yul\":21899:21917   */\n      lt\n        /* \"#utility.yul\":21896:21945   */\n      iszero\n      tag_568\n      jumpi\n        /* \"#utility.yul\":21935:21943   */\n      dup2\n        /* \"#utility.yul\":21920:21943   */\n      swap1\n      pop\n        /* \"#utility.yul\":21896:21945   */\n    tag_568:\n        /* \"#utility.yul\":21958:22038   */\n      tag_569\n        /* \"#utility.yul\":22014:22036   */\n      tag_570\n        /* \"#utility.yul\":22032:22035   */\n      dup6\n        /* \"#utility.yul\":22014:22036   */\n      tag_330\n      jump\t// in\n    tag_570:\n        /* \"#utility.yul\":22004:22012   */\n      dup4\n        /* \"#utility.yul\":22000:22037   */\n      add\n        /* \"#utility.yul\":21987:21998   */\n      dup3\n        /* \"#utility.yul\":21958:22038   */\n      tag_339\n      jump\t// in\n    tag_569:\n        /* \"#utility.yul\":21617:22048   */\n      pop\n      pop\n        /* \"#utility.yul\":21602:22048   */\n    tag_565:\n        /* \"#utility.yul\":21512:22055   */\n      pop\n      pop\n      pop\n      jump\t// out\n        /* \"#utility.yul\":22061:22178   */\n    tag_341:\n        /* \"#utility.yul\":22115:22123   */\n      0x00\n        /* \"#utility.yul\":22165:22170   */\n      dup3\n        /* \"#utility.yul\":22159:22163   */\n      dup3\n        /* \"#utility.yul\":22155:22171   */\n      shr\n        /* \"#utility.yul\":22134:22171   */\n      swap1\n      pop\n        /* \"#utility.yul\":22061:22178   */\n      swap3\n      swap2\n      pop\n      pop\n      jump\t// out\n        /* \"#utility.yul\":22184:22353   */\n    tag_342:\n        /* \"#utility.yul\":22228:22234   */\n      0x00\n        /* \"#utility.yul\":22261:22312   */\n      tag_573\n        /* \"#utility.yul\":22309:22310   */\n      0x00\n        /* \"#utility.yul\":22305:22311   */\n      not\n        /* \"#utility.yul\":22297:22302   */\n      dup5\n        /* \"#utility.yul\":22294:22295   */\n      0x08\n        /* \"#utility.yul\":22290:22303   */\n      mul\n        /* \"#utility.yul\":22261:22312   */\n      tag_341\n      jump\t// in\n    tag_573:\n        /* \"#utility.yul\":22257:22313   */\n      not\n        /* \"#utility.yul\":22342:22346   */\n      dup1\n        /* \"#utility.yul\":22336:22340   */\n      dup4\n        /* \"#utility.yul\":22332:22347   */\n      and\n        /* \"#utility.yul\":22322:22347   */\n      swap2\n      pop\n        /* \"#utility.yul\":22235:22353   */\n      pop\n        /* \"#utility.yul\":22184:22353   */\n      swap3\n      swap2\n      pop\n      pop\n      jump\t// out\n        /* \"#utility.yul\":22358:22653   */\n    tag_343:\n        /* \"#utility.yul\":22434:22438   */\n      0x00\n        /* \"#utility.yul\":22580:22609   */\n      tag_575\n        /* \"#utility.yul\":22605:22608   */\n      dup4\n        /* \"#utility.yul\":22599:22603   */\n      dup4\n        /* \"#utility.yul\":22580:22609   */\n      tag_342\n      jump\t// in\n    tag_575:\n        /* \"#utility.yul\":22572:22609   */\n      swap2\n      pop\n        /* \"#utility.yul\":22642:22645   */\n      dup3\n        /* \"#utility.yul\":22639:22640   */\n      0x02\n        /* \"#utility.yul\":22635:22646   */\n      mul\n        /* \"#utility.yul\":22629:22633   */\n      dup3\n        /* \"#utility.yul\":22626:22647   */\n      or\n        /* \"#utility.yul\":22618:22647   */\n      swap1\n      pop\n        /* \"#utility.yul\":22358:22653   */\n      swap3\n      swap2\n      pop\n      pop\n      jump\t// out\n        /* \"#utility.yul\":22658:24109   */\n    tag_192:\n        /* \"#utility.yul\":22769:22772   */\n      dup2\n        /* \"#utility.yul\":22763:22767   */\n      dup2\n        /* \"#utility.yul\":22760:22773   */\n      sub\n        /* \"#utility.yul\":22757:22783   */\n      tag_577\n      jumpi\n        /* \"#utility.yul\":22776:22781   */\n      pop\n      pop\n      jump(tag_576)\n        /* \"#utility.yul\":22757:22783   */\n    tag_577:\n        /* \"#utility.yul\":22807:22841   */\n      tag_578\n        /* \"#utility.yul\":22837:22840   */\n      dup3\n        /* \"#utility.yul\":22807:22841   */\n      tag_328\n      jump\t// in\n    tag_578:\n        /* \"#utility.yul\":22906:22924   */\n      0xffffffffffffffff\n        /* \"#utility.yul\":22898:22904   */\n      dup2\n        /* \"#utility.yul\":22895:22925   */\n      gt\n        /* \"#utility.yul\":22892:22948   */\n      iszero\n      tag_579\n      jumpi\n        /* \"#utility.yul\":22928:22946   */\n      tag_580\n      tag_299\n      jump\t// in\n    tag_580:\n        /* \"#utility.yul\":22892:22948   */\n    tag_579:\n        /* \"#utility.yul\":22972:23010   */\n      tag_581\n        /* \"#utility.yul\":23004:23008   */\n      dup3\n        /* \"#utility.yul\":22998:23009   */\n      sload\n        /* \"#utility.yul\":22972:23010   */\n      tag_114\n      jump\t// in\n    tag_581:\n        /* \"#utility.yul\":23057:23124   */\n      tag_582\n        /* \"#utility.yul\":23117:23123   */\n      dup3\n        /* \"#utility.yul\":23109:23115   */\n      dup3\n        /* \"#utility.yul\":23103:23107   */\n      dup6\n        /* \"#utility.yul\":23057:23124   */\n      tag_340\n      jump\t// in\n    tag_582:\n        /* \"#utility.yul\":23151:23152   */\n      0x00\n        /* \"#utility.yul\":23180:23182   */\n      0x1f\n        /* \"#utility.yul\":23172:23178   */\n      dup4\n        /* \"#utility.yul\":23169:23183   */\n      gt\n        /* \"#utility.yul\":23197:23198   */\n      0x01\n        /* \"#utility.yul\":23192:23864   */\n      dup2\n      eq\n      tag_584\n      jumpi\n        /* \"#utility.yul\":23908:23909   */\n      0x00\n        /* \"#utility.yul\":23925:23931   */\n      dup5\n        /* \"#utility.yul\":23922:23999   */\n      iszero\n      tag_585\n      jumpi\n        /* \"#utility.yul\":23974:23983   */\n      dup3\n        /* \"#utility.yul\":23969:23972   */\n      dup8\n        /* \"#utility.yul\":23965:23984   */\n      add\n        /* \"#utility.yul\":23959:23985   */\n      sload\n        /* \"#utility.yul\":23950:23985   */\n      swap1\n      pop\n        /* \"#utility.yul\":23922:23999   */\n    tag_585:\n        /* \"#utility.yul\":24025:24092   */\n      tag_586\n        /* \"#utility.yul\":24085:24091   */\n      dup6\n        /* \"#utility.yul\":24078:24083   */\n      dup3\n        /* \"#utility.yul\":24025:24092   */\n      tag_343\n      jump\t// in\n    tag_586:\n        /* \"#utility.yul\":24019:24023   */\n      dup7\n        /* \"#utility.yul\":24012:24093   */\n      sstore\n        /* \"#utility.yul\":23881:24103   */\n      pop\n        /* \"#utility.yul\":23162:24103   */\n      jump(tag_583)\n        /* \"#utility.yul\":23192:23864   */\n    tag_584:\n        /* \"#utility.yul\":23244:23248   */\n      0x1f\n        /* \"#utility.yul\":23240:23249   */\n      not\n        /* \"#utility.yul\":23232:23238   */\n      dup5\n        /* \"#utility.yul\":23228:23250   */\n      and\n        /* \"#utility.yul\":23270:23306   */\n      tag_587\n        /* \"#utility.yul\":23302:23305   */\n      dup8\n        /* \"#utility.yul\":23270:23306   */\n      tag_329\n      jump\t// in\n    tag_587:\n        /* \"#utility.yul\":23263:23306   */\n      swap7\n      pop\n        /* \"#utility.yul\":23333:23370   */\n      tag_588\n        /* \"#utility.yul\":23365:23369   */\n      dup7\n        /* \"#utility.yul\":23333:23370   */\n      tag_329\n      jump\t// in\n    tag_588:\n        /* \"#utility.yul\":23392:23393   */\n      0x00\n        /* \"#utility.yul\":23406:23613   */\n    tag_589:\n        /* \"#utility.yul\":23420:23427   */\n      dup3\n        /* \"#utility.yul\":23417:23418   */\n      dup2\n        /* \"#utility.yul\":23414:23428   */\n      lt\n        /* \"#utility.yul\":23406:23613   */\n      iszero\n      tag_591\n      jumpi\n        /* \"#utility.yul\":23499:23508   */\n      dup5\n        /* \"#utility.yul\":23494:23497   */\n      dup10\n        /* \"#utility.yul\":23490:23509   */\n      add\n        /* \"#utility.yul\":23484:23510   */\n      sload\n        /* \"#utility.yul\":23476:23482   */\n      dup3\n        /* \"#utility.yul\":23469:23511   */\n      sstore\n        /* \"#utility.yul\":23550:23551   */\n      0x01\n        /* \"#utility.yul\":23542:23548   */\n      dup3\n        /* \"#utility.yul\":23538:23552   */\n      add\n        /* \"#utility.yul\":23528:23552   */\n      swap2\n      pop\n        /* \"#utility.yul\":23597:23598   */\n      0x01\n        /* \"#utility.yul\":23586:23595   */\n      dup6\n        /* \"#utility.yul\":23582:23599   */\n      add\n        /* \"#utility.yul\":23569:23599   */\n      swap5\n      pop\n        /* \"#utility.yul\":23443:23447   */\n      0x20\n        /* \"#utility.yul\":23440:23441   */\n      dup2\n        /* \"#utility.yul\":23436:23448   */\n      add\n        /* \"#utility.yul\":23431:23448   */\n      swap1\n      pop\n        /* \"#utility.yul\":23406:23613   */\n      jump(tag_589)\n    tag_591:\n        /* \"#utility.yul\":23641:23647   */\n      dup7\n        /* \"#utility.yul\":23632:23639   */\n      dup4\n        /* \"#utility.yul\":23629:23648   */\n      lt\n        /* \"#utility.yul\":23626:23805   */\n      iszero\n      tag_592\n      jumpi\n        /* \"#utility.yul\":23699:23708   */\n      dup5\n        /* \"#utility.yul\":23694:23697   */\n      dup10\n        /* \"#utility.yul\":23690:23709   */\n      add\n        /* \"#utility.yul\":23684:23710   */\n      sload\n        /* \"#utility.yul\":23742:23790   */\n      tag_593\n        /* \"#utility.yul\":23784:23788   */\n      0x1f\n        /* \"#utility.yul\":23776:23782   */\n      dup10\n        /* \"#utility.yul\":23772:23789   */\n      and\n        /* \"#utility.yul\":23761:23770   */\n      dup3\n        /* \"#utility.yul\":23742:23790   */\n      tag_342\n      jump\t// in\n    tag_593:\n        /* \"#utility.yul\":23734:23740   */\n      dup4\n        /* \"#utility.yul\":23727:23791   */\n      sstore\n        /* \"#utility.yul\":23649:23805   */\n      pop\n        /* \"#utility.yul\":23626:23805   */\n    tag_592:\n        /* \"#utility.yul\":23851:23852   */\n      0x01\n        /* \"#utility.yul\":23847:23848   */\n      0x02\n        /* \"#utility.yul\":23839:23845   */\n      dup9\n        /* \"#utility.yul\":23835:23849   */\n      mul\n        /* \"#utility.yul\":23831:23853   */\n      add\n        /* \"#utility.yul\":23825:23829   */\n      dup9\n        /* \"#utility.yul\":23818:23854   */\n      sstore\n        /* \"#utility.yul\":23199:23864   */\n      pop\n      pop\n      pop\n        /* \"#utility.yul\":23162:24103   */\n    tag_583:\n      pop\n        /* \"#utility.yul\":22747:24109   */\n      pop\n      pop\n      pop\n        /* \"#utility.yul\":22658:24109   */\n      pop\n      pop\n    tag_576:\n      jump\t// out\n        /* \"#utility.yul\":24115:24295   */\n    tag_195:\n        /* \"#utility.yul\":24163:24240   */\n      0x4e487b7100000000000000000000000000000000000000000000000000000000\n        /* \"#utility.yul\":24160:24161   */\n      0x00\n        /* \"#utility.yul\":24153:24241   */\n      mstore\n        /* \"#utility.yul\":24260:24264   */\n      0x31\n        /* \"#utility.yul\":24257:24258   */\n      0x04\n        /* \"#utility.yul\":24250:24265   */\n      mstore\n        /* \"#utility.yul\":24284:24288   */\n      0x24\n        /* \"#utility.yul\":24281:24282   */\n      0x00\n        /* \"#utility.yul\":24274:24289   */\n      revert\n        /* \"#utility.yul\":24301:24481   */\n    tag_344:\n        /* \"#utility.yul\":24441:24473   */\n      0x416d6f756e74206d7573742062652067726561746572207468616e20302e0000\n        /* \"#utility.yul\":24437:24438   */\n      0x00\n        /* \"#utility.yul\":24429:24435   */\n      dup3\n        /* \"#utility.yul\":24425:24439   */\n      add\n        /* \"#utility.yul\":24418:24474   */\n      mstore\n        /* \"#utility.yul\":24301:24481   */\n      pop\n      jump\t// out\n        /* \"#utility.yul\":24487:24853   */\n    tag_345:\n        /* \"#utility.yul\":24629:24632   */\n      0x00\n        /* \"#utility.yul\":24650:24717   */\n      tag_597\n        /* \"#utility.yul\":24714:24716   */\n      0x1e\n        /* \"#utility.yul\":24709:24712   */\n      dup4\n        /* \"#utility.yul\":24650:24717   */\n      tag_281\n      jump\t// in\n    tag_597:\n        /* \"#utility.yul\":24643:24717   */\n      swap2\n      pop\n        /* \"#utility.yul\":24726:24819   */\n      tag_598\n        /* \"#utility.yul\":24815:24818   */\n      dup3\n        /* \"#utility.yul\":24726:24819   */\n      tag_344\n      jump\t// in\n    tag_598:\n        /* \"#utility.yul\":24844:24846   */\n      0x20\n        /* \"#utility.yul\":24839:24842   */\n      dup3\n        /* \"#utility.yul\":24835:24847   */\n      add\n        /* \"#utility.yul\":24828:24847   */\n      swap1\n      pop\n        /* \"#utility.yul\":24487:24853   */\n      swap2\n      swap1\n      pop\n      jump\t// out\n        /* \"#utility.yul\":24859:25278   */\n    tag_206:\n        /* \"#utility.yul\":25025:25029   */\n      0x00\n        /* \"#utility.yul\":25063:25065   */\n      0x20\n        /* \"#utility.yul\":25052:25061   */\n      dup3\n        /* \"#utility.yul\":25048:25066   */\n      add\n        /* \"#utility.yul\":25040:25066   */\n      swap1\n      pop\n        /* \"#utility.yul\":25112:25121   */\n      dup2\n        /* \"#utility.yul\":25106:25110   */\n      dup2\n        /* \"#utility.yul\":25102:25122   */\n      sub\n        /* \"#utility.yul\":25098:25099   */\n      0x00\n        /* \"#utility.yul\":25087:25096   */\n      dup4\n        /* \"#utility.yul\":25083:25100   */\n      add\n        /* \"#utility.yul\":25076:25123   */\n      mstore\n        /* \"#utility.yul\":25140:25271   */\n      tag_600\n        /* \"#utility.yul\":25266:25270   */\n      dup2\n        /* \"#utility.yul\":25140:25271   */\n      tag_345\n      jump\t// in\n    tag_600:\n        /* \"#utility.yul\":25132:25271   */\n      swap1\n      pop\n        /* \"#utility.yul\":24859:25278   */\n      swap2\n      swap1\n      pop\n      jump\t// out\n        /* \"#utility.yul\":25284:26679   */\n    tag_209:\n        /* \"#utility.yul\":25401:25438   */\n      tag_602\n        /* \"#utility.yul\":25434:25437   */\n      dup3\n        /* \"#utility.yul\":25401:25438   */\n      tag_280\n      jump\t// in\n    tag_602:\n        /* \"#utility.yul\":25503:25521   */\n      0xffffffffffffffff\n        /* \"#utility.yul\":25495:25501   */\n      dup2\n        /* \"#utility.yul\":25492:25522   */\n      gt\n        /* \"#utility.yul\":25489:25545   */\n      iszero\n      tag_603\n      jumpi\n        /* \"#utility.yul\":25525:25543   */\n      tag_604\n      tag_299\n      jump\t// in\n    tag_604:\n        /* \"#utility.yul\":25489:25545   */\n    tag_603:\n        /* \"#utility.yul\":25569:25607   */\n      tag_605\n        /* \"#utility.yul\":25601:25605   */\n      dup3\n        /* \"#utility.yul\":25595:25606   */\n      sload\n        /* \"#utility.yul\":25569:25607   */\n      tag_114\n      jump\t// in\n    tag_605:\n        /* \"#utility.yul\":25654:25721   */\n      tag_606\n        /* \"#utility.yul\":25714:25720   */\n      dup3\n        /* \"#utility.yul\":25706:25712   */\n      dup3\n        /* \"#utility.yul\":25700:25704   */\n      dup6\n        /* \"#utility.yul\":25654:25721   */\n      tag_340\n      jump\t// in\n    tag_606:\n        /* \"#utility.yul\":25748:25749   */\n      0x00\n        /* \"#utility.yul\":25772:25776   */\n      0x20\n        /* \"#utility.yul\":25759:25776   */\n      swap1\n      pop\n        /* \"#utility.yul\":25804:25806   */\n      0x1f\n        /* \"#utility.yul\":25796:25802   */\n      dup4\n        /* \"#utility.yul\":25793:25807   */\n      gt\n        /* \"#utility.yul\":25821:25822   */\n      0x01\n        /* \"#utility.yul\":25816:26434   */\n      dup2\n      eq\n      tag_608\n      jumpi\n        /* \"#utility.yul\":26478:26479   */\n      0x00\n        /* \"#utility.yul\":26495:26501   */\n      dup5\n        /* \"#utility.yul\":26492:26569   */\n      iszero\n      tag_609\n      jumpi\n        /* \"#utility.yul\":26544:26553   */\n      dup3\n        /* \"#utility.yul\":26539:26542   */\n      dup8\n        /* \"#utility.yul\":26535:26554   */\n      add\n        /* \"#utility.yul\":26529:26555   */\n      mload\n        /* \"#utility.yul\":26520:26555   */\n      swap1\n      pop\n        /* \"#utility.yul\":26492:26569   */\n    tag_609:\n        /* \"#utility.yul\":26595:26662   */\n      tag_610\n        /* \"#utility.yul\":26655:26661   */\n      dup6\n        /* \"#utility.yul\":26648:26653   */\n      dup3\n        /* \"#utility.yul\":26595:26662   */\n      tag_343\n      jump\t// in\n    tag_610:\n        /* \"#utility.yul\":26589:26593   */\n      dup7\n        /* \"#utility.yul\":26582:26663   */\n      sstore\n        /* \"#utility.yul\":26451:26673   */\n      pop\n        /* \"#utility.yul\":25786:26673   */\n      jump(tag_607)\n        /* \"#utility.yul\":25816:26434   */\n    tag_608:\n        /* \"#utility.yul\":25868:25872   */\n      0x1f\n        /* \"#utility.yul\":25864:25873   */\n      not\n        /* \"#utility.yul\":25856:25862   */\n      dup5\n        /* \"#utility.yul\":25852:25874   */\n      and\n        /* \"#utility.yul\":25902:25939   */\n      tag_611\n        /* \"#utility.yul\":25934:25938   */\n      dup7\n        /* \"#utility.yul\":25902:25939   */\n      tag_329\n      jump\t// in\n    tag_611:\n        /* \"#utility.yul\":25961:25962   */\n      0x00\n        /* \"#utility.yul\":25975:26183   */\n    tag_612:\n        /* \"#utility.yul\":25989:25996   */\n      dup3\n        /* \"#utility.yul\":25986:25987   */\n      dup2\n        /* \"#utility.yul\":25983:25997   */\n      lt\n        /* \"#utility.yul\":25975:26183   */\n      iszero\n      tag_614\n      jumpi\n        /* \"#utility.yul\":26068:26077   */\n      dup5\n        /* \"#utility.yul\":26063:26066   */\n      dup10\n        /* \"#utility.yul\":26059:26078   */\n      add\n        /* \"#utility.yul\":26053:26079   */\n      mload\n        /* \"#utility.yul\":26045:26051   */\n      dup3\n        /* \"#utility.yul\":26038:26080   */\n      sstore\n        /* \"#utility.yul\":26119:26120   */\n      0x01\n        /* \"#utility.yul\":26111:26117   */\n      dup3\n        /* \"#utility.yul\":26107:26121   */\n      add\n        /* \"#utility.yul\":26097:26121   */\n      swap2\n      pop\n        /* \"#utility.yul\":26166:26168   */\n      0x20\n        /* \"#utility.yul\":26155:26164   */\n      dup6\n        /* \"#utility.yul\":26151:26169   */\n      add\n        /* \"#utility.yul\":26138:26169   */\n      swap5\n      pop\n        /* \"#utility.yul\":26012:26016   */\n      0x20\n        /* \"#utility.yul\":26009:26010   */\n      dup2\n        /* \"#utility.yul\":26005:26017   */\n      add\n        /* \"#utility.yul\":26000:26017   */\n      swap1\n      pop\n        /* \"#utility.yul\":25975:26183   */\n      jump(tag_612)\n    tag_614:\n        /* \"#utility.yul\":26211:26217   */\n      dup7\n        /* \"#utility.yul\":26202:26209   */\n      dup4\n        /* \"#utility.yul\":26199:26218   */\n      lt\n        /* \"#utility.yul\":26196:26375   */\n      iszero\n      tag_615\n      jumpi\n        /* \"#utility.yul\":26269:26278   */\n      dup5\n        /* \"#utility.yul\":26264:26267   */\n      dup10\n        /* \"#utility.yul\":26260:26279   */\n      add\n        /* \"#utility.yul\":26254:26280   */\n      mload\n        /* \"#utility.yul\":26312:26360   */\n      tag_616\n        /* \"#utility.yul\":26354:26358   */\n      0x1f\n        /* \"#utility.yul\":26346:26352   */\n      dup10\n        /* \"#utility.yul\":26342:26359   */\n      and\n        /* \"#utility.yul\":26331:26340   */\n      dup3\n        /* \"#utility.yul\":26312:26360   */\n      tag_342\n      jump\t// in\n    tag_616:\n        /* \"#utility.yul\":26304:26310   */\n      dup4\n        /* \"#utility.yul\":26297:26361   */\n      sstore\n        /* \"#utility.yul\":26219:26375   */\n      pop\n        /* \"#utility.yul\":26196:26375   */\n    tag_615:\n        /* \"#utility.yul\":26421:26422   */\n      0x01\n        /* \"#utility.yul\":26417:26418   */\n      0x02\n        /* \"#utility.yul\":26409:26415   */\n      dup9\n        /* \"#utility.yul\":26405:26419   */\n      mul\n        /* \"#utility.yul\":26401:26423   */\n      add\n        /* \"#utility.yul\":26395:26399   */\n      dup9\n        /* \"#utility.yul\":26388:26424   */\n      sstore\n        /* \"#utility.yul\":25823:26434   */\n      pop\n      pop\n      pop\n        /* \"#utility.yul\":25786:26673   */\n    tag_607:\n      pop\n        /* \"#utility.yul\":25376:26679   */\n      pop\n      pop\n      pop\n        /* \"#utility.yul\":25284:26679   */\n      pop\n      pop\n      jump\t// out\n        /* \"#utility.yul\":26685:26854   */\n    tag_346:\n        /* \"#utility.yul\":26825:26846   */\n      0x436f6e7472616374206973207061757365642e00000000000000000000000000\n        /* \"#utility.yul\":26821:26822   */\n      0x00\n        /* \"#utility.yul\":26813:26819   */\n      dup3\n        /* \"#utility.yul\":26809:26823   */\n      add\n        /* \"#utility.yul\":26802:26847   */\n      mstore\n        /* \"#utility.yul\":26685:26854   */\n      pop\n      jump\t// out\n        /* \"#utility.yul\":26860:27226   */\n    tag_347:\n        /* \"#utility.yul\":27002:27005   */\n      0x00\n        /* \"#utility.yul\":27023:27090   */\n      tag_619\n        /* \"#utility.yul\":27087:27089   */\n      0x13\n        /* \"#utility.yul\":27082:27085   */\n      dup4\n        /* \"#utility.yul\":27023:27090   */\n      tag_281\n      jump\t// in\n    tag_619:\n        /* \"#utility.yul\":27016:27090   */\n      swap2\n      pop\n        /* \"#utility.yul\":27099:27192   */\n      tag_620\n        /* \"#utility.yul\":27188:27191   */\n      dup3\n        /* \"#utility.yul\":27099:27192   */\n      tag_346\n      jump\t// in\n    tag_620:\n        /* \"#utility.yul\":27217:27219   */\n      0x20\n        /* \"#utility.yul\":27212:27215   */\n      dup3\n        /* \"#utility.yul\":27208:27220   */\n      add\n        /* \"#utility.yul\":27201:27220   */\n      swap1\n      pop\n        /* \"#utility.yul\":26860:27226   */\n      swap2\n      swap1\n      pop\n      jump\t// out\n        /* \"#utility.yul\":27232:27651   */\n    tag_224:\n        /* \"#utility.yul\":27398:27402   */\n      0x00\n        /* \"#utility.yul\":27436:27438   */\n      0x20\n        /* \"#utility.yul\":27425:27434   */\n      dup3\n        /* \"#utility.yul\":27421:27439   */\n      add\n        /* \"#utility.yul\":27413:27439   */\n      swap1\n      pop\n        /* \"#utility.yul\":27485:27494   */\n      dup2\n        /* \"#utility.yul\":27479:27483   */\n      dup2\n        /* \"#utility.yul\":27475:27495   */\n      sub\n        /* \"#utility.yul\":27471:27472   */\n      0x00\n        /* \"#utility.yul\":27460:27469   */\n      dup4\n        /* \"#utility.yul\":27456:27473   */\n      add\n        /* \"#utility.yul\":27449:27496   */\n      mstore\n        /* \"#utility.yul\":27513:27644   */\n      tag_622\n        /* \"#utility.yul\":27639:27643   */\n      dup2\n        /* \"#utility.yul\":27513:27644   */\n      tag_347\n      jump\t// in\n    tag_622:\n        /* \"#utility.yul\":27505:27644   */\n      swap1\n      pop\n        /* \"#utility.yul\":27232:27651   */\n      swap2\n      swap1\n      pop\n      jump\t// out\n        /* \"#utility.yul\":27657:27820   */\n    tag_348:\n        /* \"#utility.yul\":27797:27812   */\n      0x496e76616c696420746965722e00000000000000000000000000000000000000\n        /* \"#utility.yul\":27793:27794   */\n      0x00\n        /* \"#utility.yul\":27785:27791   */\n      dup3\n        /* \"#utility.yul\":27781:27795   */\n      add\n        /* \"#utility.yul\":27774:27813   */\n      mstore\n        /* \"#utility.yul\":27657:27820   */\n      pop\n      jump\t// out\n        /* \"#utility.yul\":27826:28192   */\n    tag_349:\n        /* \"#utility.yul\":27968:27971   */\n      0x00\n        /* \"#utility.yul\":27989:28056   */\n      tag_625\n        /* \"#utility.yul\":28053:28055   */\n      0x0d\n        /* \"#utility.yul\":28048:28051   */\n      dup4\n        /* \"#utility.yul\":27989:28056   */\n      tag_281\n      jump\t// in\n    tag_625:\n        /* \"#utility.yul\":27982:28056   */\n      swap2\n      pop\n        /* \"#utility.yul\":28065:28158   */\n      tag_626\n        /* \"#utility.yul\":28154:28157   */\n      dup3\n        /* \"#utility.yul\":28065:28158   */\n      tag_348\n      jump\t// in\n    tag_626:\n        /* \"#utility.yul\":28183:28185   */\n      0x20\n        /* \"#utility.yul\":28178:28181   */\n      dup3\n        /* \"#utility.yul\":28174:28186   */\n      add\n        /* \"#utility.yul\":28167:28186   */\n      swap1\n      pop\n        /* \"#utility.yul\":27826:28192   */\n      swap2\n      swap1\n      pop\n      jump\t// out\n        /* \"#utility.yul\":28198:28617   */\n    tag_228:\n        /* \"#utility.yul\":28364:28368   */\n      0x00\n        /* \"#utility.yul\":28402:28404   */\n      0x20\n        /* \"#utility.yul\":28391:28400   */\n      dup3\n        /* \"#utility.yul\":28387:28405   */\n      add\n        /* \"#utility.yul\":28379:28405   */\n      swap1\n      pop\n        /* \"#utility.yul\":28451:28460   */\n      dup2\n        /* \"#utility.yul\":28445:28449   */\n      dup2\n        /* \"#utility.yul\":28441:28461   */\n      sub\n        /* \"#utility.yul\":28437:28438   */\n      0x00\n        /* \"#utility.yul\":28426:28435   */\n      dup4\n        /* \"#utility.yul\":28422:28439   */\n      add\n        /* \"#utility.yul\":28415:28462   */\n      mstore\n        /* \"#utility.yul\":28479:28610   */\n      tag_628\n        /* \"#utility.yul\":28605:28609   */\n      dup2\n        /* \"#utility.yul\":28479:28610   */\n      tag_349\n      jump\t// in\n    tag_628:\n        /* \"#utility.yul\":28471:28610   */\n      swap1\n      pop\n        /* \"#utility.yul\":28198:28617   */\n      swap2\n      swap1\n      pop\n      jump\t// out\n        /* \"#utility.yul\":28623:28790   */\n    tag_350:\n        /* \"#utility.yul\":28763:28782   */\n      0x496e636f727265637420616d6f756e742e000000000000000000000000000000\n        /* \"#utility.yul\":28759:28760   */\n      0x00\n        /* \"#utility.yul\":28751:28757   */\n      dup3\n        /* \"#utility.yul\":28747:28761   */\n      add\n        /* \"#utility.yul\":28740:28783   */\n      mstore\n        /* \"#utility.yul\":28623:28790   */\n      pop\n      jump\t// out\n        /* \"#utility.yul\":28796:29162   */\n    tag_351:\n        /* \"#utility.yul\":28938:28941   */\n      0x00\n        /* \"#utility.yul\":28959:29026   */\n      tag_631\n        /* \"#utility.yul\":29023:29025   */\n      0x11\n        /* \"#utility.yul\":29018:29021   */\n      dup4\n        /* \"#utility.yul\":28959:29026   */\n      tag_281\n      jump\t// in\n    tag_631:\n        /* \"#utility.yul\":28952:29026   */\n      swap2\n      pop\n        /* \"#utility.yul\":29035:29128   */\n      tag_632\n        /* \"#utility.yul\":29124:29127   */\n      dup3\n        /* \"#utility.yul\":29035:29128   */\n      tag_350\n      jump\t// in\n    tag_632:\n        /* \"#utility.yul\":29153:29155   */\n      0x20\n        /* \"#utility.yul\":29148:29151   */\n      dup3\n        /* \"#utility.yul\":29144:29156   */\n      add\n        /* \"#utility.yul\":29137:29156   */\n      swap1\n      pop\n        /* \"#utility.yul\":28796:29162   */\n      swap2\n      swap1\n      pop\n      jump\t// out\n        /* \"#utility.yul\":29168:29587   */\n    tag_234:\n        /* \"#utility.yul\":29334:29338   */\n      0x00\n        /* \"#utility.yul\":29372:29374   */\n      0x20\n        /* \"#utility.yul\":29361:29370   */\n      dup3\n        /* \"#utility.yul\":29357:29375   */\n      add\n        /* \"#utility.yul\":29349:29375   */\n      swap1\n      pop\n        /* \"#utility.yul\":29421:29430   */\n      dup2\n        /* \"#utility.yul\":29415:29419   */\n      dup2\n        /* \"#utility.yul\":29411:29431   */\n      sub\n        /* \"#utility.yul\":29407:29408   */\n      0x00\n        /* \"#utility.yul\":29396:29405   */\n      dup4\n        /* \"#utility.yul\":29392:29409   */\n      add\n        /* \"#utility.yul\":29385:29432   */\n      mstore\n        /* \"#utility.yul\":29449:29580   */\n      tag_634\n        /* \"#utility.yul\":29575:29579   */\n      dup2\n        /* \"#utility.yul\":29449:29580   */\n      tag_351\n      jump\t// in\n    tag_634:\n        /* \"#utility.yul\":29441:29580   */\n      swap1\n      pop\n        /* \"#utility.yul\":29168:29587   */\n      swap2\n      swap1\n      pop\n      jump\t// out\n        /* \"#utility.yul\":29593:29826   */\n    tag_239:\n        /* \"#utility.yul\":29632:29635   */\n      0x00\n        /* \"#utility.yul\":29655:29679   */\n      tag_636\n        /* \"#utility.yul\":29673:29678   */\n      dup3\n        /* \"#utility.yul\":29655:29679   */\n      tag_277\n      jump\t// in\n    tag_636:\n        /* \"#utility.yul\":29646:29679   */\n      swap2\n      pop\n        /* \"#utility.yul\":29701:29767   */\n      0xffffffffffffffffffffffffffffffffffffffffffffffffffffffffffffffff\n        /* \"#utility.yul\":29694:29699   */\n      dup3\n        /* \"#utility.yul\":29691:29768   */\n      sub\n        /* \"#utility.yul\":29688:29791   */\n      tag_637\n      jumpi\n        /* \"#utility.yul\":29771:29789   */\n      tag_638\n      tag_321\n      jump\t// in\n    tag_638:\n        /* \"#utility.yul\":29688:29791   */\n    tag_637:\n        /* \"#utility.yul\":29818:29819   */\n      0x01\n        /* \"#utility.yul\":29811:29816   */\n      dup3\n        /* \"#utility.yul\":29807:29820   */\n      add\n        /* \"#utility.yul\":29800:29820   */\n      swap1\n      pop\n        /* \"#utility.yul\":29593:29826   */\n      swap2\n      swap1\n      pop\n      jump\t// out\n\n    auxdata: 0xa2646970667358221220fb183a9b1e8cdfc291a910bfa5297f640ff5f6e8844cc03c50181a95fe53d6ab64736f6c634300081e0033\n}\n",
				"bytecode": {
					"linkReferences": {},
					"object": "608060405234801561000f575f5ffd5b506040516128b43803806128b4833981810160405281019061003191906102c5565b835f908161003f919061057b565b50826001908161004f919061057b565b508160028190555062015180816100669190610677565b4261007191906106b8565b6003819055508460045f6101000a81548173ffffffffffffffffffffffffffffffffffffffff021916908373ffffffffffffffffffffffffffffffffffffffff1602179055505f600460156101000a81548160ff021916908360028111156100dc576100db6106eb565b5b02179055505050505050610718565b5f604051905090565b5f5ffd5b5f5ffd5b5f73ffffffffffffffffffffffffffffffffffffffff82169050919050565b5f610125826100fc565b9050919050565b6101358161011b565b811461013f575f5ffd5b50565b5f815190506101508161012c565b92915050565b5f5ffd5b5f5ffd5b5f601f19601f8301169050919050565b7f4e487b71000000000000000000000000000000000000000000000000000000005f52604160045260245ffd5b6101a48261015e565b810181811067ffffffffffffffff821117156101c3576101c261016e565b5b80604052505050565b5f6101d56100eb565b90506101e1828261019b565b919050565b5f67ffffffffffffffff821115610200576101ff61016e565b5b6102098261015e565b9050602081019050919050565b8281835e5f83830152505050565b5f610236610231846101e6565b6101cc565b9050828152602081018484840111156102525761025161015a565b5b61025d848285610216565b509392505050565b5f82601f83011261027957610278610156565b5b8151610289848260208601610224565b91505092915050565b5f819050919050565b6102a481610292565b81146102ae575f5ffd5b50565b5f815190506102bf8161029b565b92915050565b5f5f5f5f5f60a086880312156102de576102dd6100f4565b5b5f6102eb88828901610142565b955050602086015167ffffffffffffffff81111561030c5761030b6100f8565b5b61031888828901610265565b945050604086015167ffffffffffffffff811115610339576103386100f8565b5b61034588828901610265565b9350506060610356888289016102b1565b9250506080610367888289016102b1565b9150509295509295909350565b5f81519050919050565b7f4e487b71000000000000000000000000000000000000000000000000000000005f52602260045260245ffd5b5f60028204905060018216806103c257607f821691505b6020821081036103d5576103d461037e565b5b50919050565b5f819050815f5260205f209050919050565b5f6020601f8301049050919050565b5f82821b905092915050565b5f600883026104377fffffffffffffffffffffffffffffffffffffffffffffffffffffffffffffffff826103fc565b61044186836103fc565b95508019841693508086168417925050509392505050565b5f819050919050565b5f61047c61047761047284610292565b610459565b610292565b9050919050565b5f819050919050565b61049583610462565b6104a96104a182610483565b848454610408565b825550505050565b5f5f905090565b6104c06104b1565b6104cb81848461048c565b505050565b5b818110156104ee576104e35f826104b8565b6001810190506104d1565b5050565b601f82111561053357610504816103db565b61050d846103ed565b8101602085101561051c578190505b610530610528856103ed565b8301826104d0565b50505b505050565b5f82821c905092915050565b5f6105535f1984600802610538565b1980831691505092915050565b5f61056b8383610544565b9150826002028217905092915050565b61058482610374565b67ffffffffffffffff81111561059d5761059c61016e565b5b6105a782546103ab565b6105b28282856104f2565b5f60209050601f8311600181146105e3575f84156105d1578287015190505b6105db8582610560565b865550610642565b601f1984166105f1866103db565b5f5b82811015610618578489015182556001820191506020850194506020810190506105f3565b868310156106355784890151610631601f891682610544565b8355505b6001600288020188555050505b505050505050565b7f4e487b71000000000000000000000000000000000000000000000000000000005f52601160045260245ffd5b5f61068182610292565b915061068c83610292565b925082820261069a81610292565b915082820484148315176106b1576106b061064a565b5b5092915050565b5f6106c282610292565b91506106cd83610292565b92508282019050808211156106e5576106e461064a565b5b92915050565b7f4e487b71000000000000000000000000000000000000000000000000000000005f52602160045260245ffd5b61218f806107255f395ff3fe608060405260043610610113575f3560e01c80637284e4161161009f578063b85dfb8011610063578063b85dfb801461036f578063c19d93fb146103ab578063c4ae3168146103d5578063ca1d209d146103eb578063de1705701461040757610113565b80637284e4161461028f5780637497211b146102b95780637adba527146102e15780638da5cb5b1461031d5780638ece7b911461034757610113565b8063389b7533116100e6578063389b7533146101d35780633ccfd60b146101fb57806340193883146102115780635c975abb1461023b5780636f9fb98a1461026557610113565b8063039af9eb1461011757806306fdde0314610155578063105505151461017f57806329dcb0cf146101a9575b5f5ffd5b348015610122575f5ffd5b5061013d600480360381019061013891906112a8565b610431565b60405161014c93929190611352565b60405180910390f35b348015610160575f5ffd5b506101696104ec565b604051610176919061138e565b60405180910390f35b34801561018a575f5ffd5b50610193610577565b6040516101a09190611421565b60405180910390f35b3480156101b4575f5ffd5b506101bd6105f1565b6040516101ca919061143a565b60405180910390f35b3480156101de575f5ffd5b506101f960048036038101906101f491906112a8565b6105f7565b005b348015610206575f5ffd5b5061020f610724565b005b34801561021c575f5ffd5b506102256108df565b604051610232919061143a565b60405180910390f35b348015610246575f5ffd5b5061024f6108e5565b60405161025c919061146d565b60405180910390f35b348015610270575f5ffd5b506102796108f8565b604051610286919061143a565b60405180910390f35b34801561029a575f5ffd5b506102a36108ff565b6040516102b0919061138e565b60405180910390f35b3480156102c4575f5ffd5b506102df60048036038101906102da91906112a8565b61098b565b005b3480156102ec575f5ffd5b50610307600480360381019061030291906114e0565b610b24565b604051610314919061146d565b60405180910390f35b348015610328575f5ffd5b50610331610b89565b60405161033e919061152d565b60405180910390f35b348015610352575f5ffd5b5061036d60048036038101906103689190611672565b610bae565b005b34801561037a575f5ffd5b50610395600480360381019061039091906116cc565b610cf0565b6040516103a2919061143a565b60405180910390f35b3480156103b6575f5ffd5b506103bf610d0a565b6040516103cc9190611421565b60405180910390f35b3480156103e0575f5ffd5b506103e9610d1d565b005b610405600480360381019061040091906112a8565b610dd8565b005b348015610412575f5ffd5b5061041b611048565b6040516104289190611856565b60405180910390f35b60058181548110610440575f80fd5b905f5260205f2090600302015f91509050805f01805461045f906118a3565b80601f016020809104026020016040519081016040528092919081815260200182805461048b906118a3565b80156104d65780601f106104ad576101008083540402835291602001916104d6565b820191905f5260205f20905b8154815290600101906020018083116104b957829003601f168201915b5050505050908060010154908060020154905083565b5f80546104f8906118a3565b80601f0160208091040260200160405190810160405280929190818152602001828054610524906118a3565b801561056f5780601f106105465761010080835404028352916020019161056f565b820191905f5260205f20905b81548152906001019060200180831161055257829003601f168201915b505050505081565b5f5f600281111561058b5761058a6113ae565b5b600460159054906101000a900460ff1660028111156105ad576105ac6113ae565b5b1480156105bb575060035442115b156105db576002544710156105d15760026105d4565b60015b90506105ee565b600460159054906101000a900460ff1690505b90565b60035481565b60045f9054906101000a900473ffffffffffffffffffffffffffffffffffffffff1673ffffffffffffffffffffffffffffffffffffffff163373ffffffffffffffffffffffffffffffffffffffff1614610686576040517f08c379a000000000000000000000000000000000000000000000000000000000815260040161067d9061191d565b60405180910390fd5b5f6002811115610699576106986113ae565b5b600460159054906101000a900460ff1660028111156106bb576106ba6113ae565b5b146106fb576040517f08c379a00000000000000000000000000000000000000000000000000000000081526004016106f290611985565b60405180910390fd5b620151808161070a91906119d0565b60035f82825461071a9190611a11565b9250508190555050565b60045f9054906101000a900473ffffffffffffffffffffffffffffffffffffffff1673ffffffffffffffffffffffffffffffffffffffff163373ffffffffffffffffffffffffffffffffffffffff16146107b3576040517f08c379a00000000000000000000000000000000000000000000000000000000081526004016107aa9061191d565b60405180910390fd5b6107bb611147565b600160028111156107cf576107ce6113ae565b5b600460159054906101000a900460ff1660028111156107f1576107f06113ae565b5b14610831576040517f08c379a000000000000000000000000000000000000000000000000000000000815260040161082890611a8e565b60405180910390fd5b5f4790505f8111610877576040517f08c379a000000000000000000000000000000000000000000000000000000000815260040161086e90611af6565b60405180910390fd5b60045f9054906101000a900473ffffffffffffffffffffffffffffffffffffffff1673ffffffffffffffffffffffffffffffffffffffff166108fc8290811502906040515f60405180830381858888f193505050501580156108db573d5f5f3e3d5ffd5b5050565b60025481565b600460149054906101000a900460ff1681565b5f47905090565b6001805461090c906118a3565b80601f0160208091040260200160405190810160405280929190818152602001828054610938906118a3565b80156109835780601f1061095a57610100808354040283529160200191610983565b820191905f5260205f20905b81548152906001019060200180831161096657829003601f168201915b505050505081565b60045f9054906101000a900473ffffffffffffffffffffffffffffffffffffffff1673ffffffffffffffffffffffffffffffffffffffff163373ffffffffffffffffffffffffffffffffffffffff1614610a1a576040517f08c379a0000000000000000000000000000000000000000000000000000000008152600401610a119061191d565b60405180910390fd5b6005805490508110610a61576040517f08c379a0000000000000000000000000000000000000000000000000000000008152600401610a5890611b5e565b60405180910390fd5b60056001600580549050610a759190611b7c565b81548110610a8657610a85611baf565b5b905f5260205f20906003020160058281548110610aa657610aa5611baf565b5b905f5260205f2090600302015f8201815f019081610ac49190611d91565b5060018201548160010155600282015481600201559050506005805480610aee57610aed611e76565b5b600190038181905f5260205f2090600302015f5f82015f610b0f919061120c565b600182015f9055600282015f90555050905550565b5f60065f8473ffffffffffffffffffffffffffffffffffffffff1673ffffffffffffffffffffffffffffffffffffffff1681526020019081526020015f206001015f8381526020019081526020015f205f9054906101000a900460ff16905092915050565b60045f9054906101000a900473ffffffffffffffffffffffffffffffffffffffff1681565b60045f9054906101000a900473ffffffffffffffffffffffffffffffffffffffff1673ffffffffffffffffffffffffffffffffffffffff163373ffffffffffffffffffffffffffffffffffffffff1614610c3d576040517f08c379a0000000000000000000000000000000000000000000000000000000008152600401610c349061191d565b60405180910390fd5b5f8111610c7f576040517f08c379a0000000000000000000000000000000000000000000000000000000008152600401610c7690611eed565b60405180910390fd5b600560405180606001604052808481526020018381526020015f815250908060018154018082558091505060019003905f5260205f2090600302015f909190919091505f820151815f019081610cd59190611f0b565b50602082015181600101556040820151816002015550505050565b6006602052805f5260405f205f91509050805f0154905081565b600460159054906101000a900460ff1681565b60045f9054906101000a900473ffffffffffffffffffffffffffffffffffffffff1673ffffffffffffffffffffffffffffffffffffffff163373ffffffffffffffffffffffffffffffffffffffff1614610dac576040517f08c379a0000000000000000000000000000000000000000000000000000000008152600401610da39061191d565b60405180910390fd5b600460149054906101000a900460ff1615600460146101000a81548160ff021916908315150217905550565b5f6002811115610deb57610dea6113ae565b5b600460159054906101000a900460ff166002811115610e0d57610e0c6113ae565b5b14610e4d576040517f08c379a0000000000000000000000000000000000000000000000000000000008152600401610e4490611985565b60405180910390fd5b600460149054906101000a900460ff1615610e9d576040517f08c379a0000000000000000000000000000000000000000000000000000000008152600401610e9490612024565b60405180910390fd5b6005805490508110610ee4576040517f08c379a0000000000000000000000000000000000000000000000000000000008152600401610edb9061208c565b60405180910390fd5b60058181548110610ef857610ef7611baf565b5b905f5260205f209060030201600101543414610f49576040517f08c379a0000000000000000000000000000000000000000000000000000000008152600401610f40906120f4565b60405180910390fd5b60058181548110610f5d57610f5c611baf565b5b905f5260205f2090600302016002015f815480929190610f7c90612112565b91905055503460065f3373ffffffffffffffffffffffffffffffffffffffff1673ffffffffffffffffffffffffffffffffffffffff1681526020019081526020015f205f015f828254610fcf9190611a11565b92505081905550600160065f3373ffffffffffffffffffffffffffffffffffffffff1673ffffffffffffffffffffffffffffffffffffffff1681526020019081526020015f206001015f8381526020019081526020015f205f6101000a81548160ff021916908315150217905550611045611147565b50565b60606005805480602002602001604051908101604052809291908181526020015f905b8282101561113e578382905f5260205f2090600302016040518060600160405290815f8201805461109b906118a3565b80601f01602080910402602001604051908101604052809291908181526020018280546110c7906118a3565b80156111125780601f106110e957610100808354040283529160200191611112565b820191905f5260205f20905b8154815290600101906020018083116110f557829003601f168201915b50505050508152602001600182015481526020016002820154815250508152602001906001019061106b565b50505050905090565b5f600281111561115a576111596113ae565b5b600460159054906101000a900460ff16600281111561117c5761117b6113ae565b5b0361120a5760035442106111cc5760025447101561119b57600261119e565b60015b600460156101000a81548160ff021916908360028111156111c2576111c16113ae565b5b0217905550611209565b6002544710156111dc575f6111df565b60015b600460156101000a81548160ff02191690836002811115611203576112026113ae565b5b02179055505b5b565b508054611218906118a3565b5f825580601f106112295750611246565b601f0160209004905f5260205f20908101906112459190611249565b5b50565b5b80821115611260575f815f90555060010161124a565b5090565b5f604051905090565b5f5ffd5b5f5ffd5b5f819050919050565b61128781611275565b8114611291575f5ffd5b50565b5f813590506112a28161127e565b92915050565b5f602082840312156112bd576112bc61126d565b5b5f6112ca84828501611294565b91505092915050565b5f81519050919050565b5f82825260208201905092915050565b8281835e5f83830152505050565b5f601f19601f8301169050919050565b5f611315826112d3565b61131f81856112dd565b935061132f8185602086016112ed565b611338816112fb565b840191505092915050565b61134c81611275565b82525050565b5f6060820190508181035f83015261136a818661130b565b90506113796020830185611343565b6113866040830184611343565b949350505050565b5f6020820190508181035f8301526113a6818461130b565b905092915050565b7f4e487b71000000000000000000000000000000000000000000000000000000005f52602160045260245ffd5b600381106113ec576113eb6113ae565b5b50565b5f8190506113fc826113db565b919050565b5f61140b826113ef565b9050919050565b61141b81611401565b82525050565b5f6020820190506114345f830184611412565b92915050565b5f60208201905061144d5f830184611343565b92915050565b5f8115159050919050565b61146781611453565b82525050565b5f6020820190506114805f83018461145e565b92915050565b5f73ffffffffffffffffffffffffffffffffffffffff82169050919050565b5f6114af82611486565b9050919050565b6114bf816114a5565b81146114c9575f5ffd5b50565b5f813590506114da816114b6565b92915050565b5f5f604083850312156114f6576114f561126d565b5b5f611503858286016114cc565b925050602061151485828601611294565b9150509250929050565b611527816114a5565b82525050565b5f6020820190506115405f83018461151e565b92915050565b5f5ffd5b5f5ffd5b7f4e487b71000000000000000000000000000000000000000000000000000000005f52604160045260245ffd5b611584826112fb565b810181811067ffffffffffffffff821117156115a3576115a261154e565b5b80604052505050565b5f6115b5611264565b90506115c1828261157b565b919050565b5f67ffffffffffffffff8211156115e0576115df61154e565b5b6115e9826112fb565b9050602081019050919050565b828183375f83830152505050565b5f611616611611846115c6565b6115ac565b9050828152602081018484840111156116325761163161154a565b5b61163d8482856115f6565b509392505050565b5f82601f83011261165957611658611546565b5b8135611669848260208601611604565b91505092915050565b5f5f604083850312156116885761168761126d565b5b5f83013567ffffffffffffffff8111156116a5576116a4611271565b5b6116b185828601611645565b92505060206116c285828601611294565b9150509250929050565b5f602082840312156116e1576116e061126d565b5b5f6116ee848285016114cc565b91505092915050565b5f81519050919050565b5f82825260208201905092915050565b5f819050602082019050919050565b5f82825260208201905092915050565b5f61173a826112d3565b6117448185611720565b93506117548185602086016112ed565b61175d816112fb565b840191505092915050565b61177181611275565b82525050565b5f606083015f8301518482035f8601526117918282611730565b91505060208301516117a66020860182611768565b5060408301516117b96040860182611768565b508091505092915050565b5f6117cf8383611777565b905092915050565b5f602082019050919050565b5f6117ed826116f7565b6117f78185611701565b93508360208202850161180985611711565b805f5b85811015611844578484038952815161182585826117c4565b9450611830836117d7565b925060208a0199505060018101905061180c565b50829750879550505050505092915050565b5f6020820190508181035f83015261186e81846117e3565b905092915050565b7f4e487b71000000000000000000000000000000000000000000000000000000005f52602260045260245ffd5b5f60028204905060018216806118ba57607f821691505b6020821081036118cd576118cc611876565b5b50919050565b7f4e6f7420746865206f776e6572000000000000000000000000000000000000005f82015250565b5f611907600d836112dd565b9150611912826118d3565b602082019050919050565b5f6020820190508181035f830152611934816118fb565b9050919050565b7f43616d706169676e206973206e6f74206163746976652e0000000000000000005f82015250565b5f61196f6017836112dd565b915061197a8261193b565b602082019050919050565b5f6020820190508181035f83015261199c81611963565b9050919050565b7f4e487b71000000000000000000000000000000000000000000000000000000005f52601160045260245ffd5b5f6119da82611275565b91506119e583611275565b92508282026119f381611275565b91508282048414831517611a0a57611a096119a3565b5b5092915050565b5f611a1b82611275565b9150611a2683611275565b9250828201905080821115611a3e57611a3d6119a3565b5b92915050565b7f43616d706169676e206e6f74207375636365737366756c2e00000000000000005f82015250565b5f611a786018836112dd565b9150611a8382611a44565b602082019050919050565b5f6020820190508181035f830152611aa581611a6c565b9050919050565b7f4e6f2062616c616e636520746f207769746864726177000000000000000000005f82015250565b5f611ae06016836112dd565b9150611aeb82611aac565b602082019050919050565b5f6020820190508181035f830152611b0d81611ad4565b9050919050565b7f5469657220646f6573206e6f742065786973742e0000000000000000000000005f82015250565b5f611b486014836112dd565b9150611b5382611b14565b602082019050919050565b5f6020820190508181035f830152611b7581611b3c565b9050919050565b5f611b8682611275565b9150611b9183611275565b9250828203905081811115611ba957611ba86119a3565b5b92915050565b7f4e487b71000000000000000000000000000000000000000000000000000000005f52603260045260245ffd5b5f81549050611bea816118a3565b9050919050565b5f819050815f5260205f209050919050565b5f6020601f8301049050919050565b5f82821b905092915050565b5f60088302611c4d7fffffffffffffffffffffffffffffffffffffffffffffffffffffffffffffffff82611c12565b611c578683611c12565b95508019841693508086168417925050509392505050565b5f819050919050565b5f611c92611c8d611c8884611275565b611c6f565b611275565b9050919050565b5f819050919050565b611cab83611c78565b611cbf611cb782611c99565b848454611c1e565b825550505050565b5f5f905090565b611cd6611cc7565b611ce1818484611ca2565b505050565b5b81811015611d0457611cf95f82611cce565b600181019050611ce7565b5050565b601f821115611d4957611d1a81611bf1565b611d2384611c03565b81016020851015611d32578190505b611d46611d3e85611c03565b830182611ce6565b50505b505050565b5f82821c905092915050565b5f611d695f1984600802611d4e565b1980831691505092915050565b5f611d818383611d5a565b9150826002028217905092915050565b818103611d9f575050611e74565b611da882611bdc565b67ffffffffffffffff811115611dc157611dc061154e565b5b611dcb82546118a3565b611dd6828285611d08565b5f601f831160018114611e03575f8415611df1578287015490505b611dfb8582611d76565b865550611e6d565b601f198416611e1187611bf1565b9650611e1c86611bf1565b5f5b82811015611e4357848901548255600182019150600185019450602081019050611e1e565b86831015611e605784890154611e5c601f891682611d5a565b8355505b6001600288020188555050505b5050505050505b565b7f4e487b71000000000000000000000000000000000000000000000000000000005f52603160045260245ffd5b7f416d6f756e74206d7573742062652067726561746572207468616e20302e00005f82015250565b5f611ed7601e836112dd565b9150611ee282611ea3565b602082019050919050565b5f6020820190508181035f830152611f0481611ecb565b9050919050565b611f14826112d3565b67ffffffffffffffff811115611f2d57611f2c61154e565b5b611f3782546118a3565b611f42828285611d08565b5f60209050601f831160018114611f73575f8415611f61578287015190505b611f6b8582611d76565b865550611fd2565b601f198416611f8186611bf1565b5f5b82811015611fa857848901518255600182019150602085019450602081019050611f83565b86831015611fc55784890151611fc1601f891682611d5a565b8355505b6001600288020188555050505b505050505050565b7f436f6e7472616374206973207061757365642e000000000000000000000000005f82015250565b5f61200e6013836112dd565b915061201982611fda565b602082019050919050565b5f6020820190508181035f83015261203b81612002565b9050919050565b7f496e76616c696420746965722e000000000000000000000000000000000000005f82015250565b5f612076600d836112dd565b915061208182612042565b602082019050919050565b5f6020820190508181035f8301526120a38161206a565b9050919050565b7f496e636f727265637420616d6f756e742e0000000000000000000000000000005f82015250565b5f6120de6011836112dd565b91506120e9826120aa565b602082019050919050565b5f6020820190508181035f83015261210b816120d2565b9050919050565b5f61211c82611275565b91507fffffffffffffffffffffffffffffffffffffffffffffffffffffffffffffffff820361214e5761214d6119a3565b5b60018201905091905056fea2646970667358221220fb183a9b1e8cdfc291a910bfa5297f640ff5f6e8844cc03c50181a95fe53d6ab64736f6c634300081e0033",
					"opcodes": "PUSH1 0x80 PUSH1 0x40 MSTORE CALLVALUE DUP1 ISZERO PUSH2 0xF JUMPI PUSH0 PUSH0 REVERT JUMPDEST POP PUSH1 0x40 MLOAD PUSH2 0x28B4 CODESIZE SUB DUP1 PUSH2 0x28B4 DUP4 CODECOPY DUP2 DUP2 ADD PUSH1 0x40 MSTORE DUP2 ADD SWAP1 PUSH2 0x31 SWAP2 SWAP1 PUSH2 0x2C5 JUMP JUMPDEST DUP4 PUSH0 SWAP1 DUP2 PUSH2 0x3F SWAP2 SWAP1 PUSH2 0x57B JUMP JUMPDEST POP DUP3 PUSH1 0x1 SWAP1 DUP2 PUSH2 0x4F SWAP2 SWAP1 PUSH2 0x57B JUMP JUMPDEST POP DUP2 PUSH1 0x2 DUP2 SWAP1 SSTORE POP PUSH3 0x15180 DUP2 PUSH2 0x66 SWAP2 SWAP1 PUSH2 0x677 JUMP JUMPDEST TIMESTAMP PUSH2 0x71 SWAP2 SWAP1 PUSH2 0x6B8 JUMP JUMPDEST PUSH1 0x3 DUP2 SWAP1 SSTORE POP DUP5 PUSH1 0x4 PUSH0 PUSH2 0x100 EXP DUP2 SLOAD DUP2 PUSH20 0xFFFFFFFFFFFFFFFFFFFFFFFFFFFFFFFFFFFFFFFF MUL NOT AND SWAP1 DUP4 PUSH20 0xFFFFFFFFFFFFFFFFFFFFFFFFFFFFFFFFFFFFFFFF AND MUL OR SWAP1 SSTORE POP PUSH0 PUSH1 0x4 PUSH1 0x15 PUSH2 0x100 EXP DUP2 SLOAD DUP2 PUSH1 0xFF MUL NOT AND SWAP1 DUP4 PUSH1 0x2 DUP2 GT ISZERO PUSH2 0xDC JUMPI PUSH2 0xDB PUSH2 0x6EB JUMP JUMPDEST JUMPDEST MUL OR SWAP1 SSTORE POP POP POP POP POP POP PUSH2 0x718 JUMP JUMPDEST PUSH0 PUSH1 0x40 MLOAD SWAP1 POP SWAP1 JUMP JUMPDEST PUSH0 PUSH0 REVERT JUMPDEST PUSH0 PUSH0 REVERT JUMPDEST PUSH0 PUSH20 0xFFFFFFFFFFFFFFFFFFFFFFFFFFFFFFFFFFFFFFFF DUP3 AND SWAP1 POP SWAP2 SWAP1 POP JUMP JUMPDEST PUSH0 PUSH2 0x125 DUP3 PUSH2 0xFC JUMP JUMPDEST SWAP1 POP SWAP2 SWAP1 POP JUMP JUMPDEST PUSH2 0x135 DUP2 PUSH2 0x11B JUMP JUMPDEST DUP2 EQ PUSH2 0x13F JUMPI PUSH0 PUSH0 REVERT JUMPDEST POP JUMP JUMPDEST PUSH0 DUP2 MLOAD SWAP1 POP PUSH2 0x150 DUP2 PUSH2 0x12C JUMP JUMPDEST SWAP3 SWAP2 POP POP JUMP JUMPDEST PUSH0 PUSH0 REVERT JUMPDEST PUSH0 PUSH0 REVERT JUMPDEST PUSH0 PUSH1 0x1F NOT PUSH1 0x1F DUP4 ADD AND SWAP1 POP SWAP2 SWAP1 POP JUMP JUMPDEST PUSH32 0x4E487B7100000000000000000000000000000000000000000000000000000000 PUSH0 MSTORE PUSH1 0x41 PUSH1 0x4 MSTORE PUSH1 0x24 PUSH0 REVERT JUMPDEST PUSH2 0x1A4 DUP3 PUSH2 0x15E JUMP JUMPDEST DUP2 ADD DUP2 DUP2 LT PUSH8 0xFFFFFFFFFFFFFFFF DUP3 GT OR ISZERO PUSH2 0x1C3 JUMPI PUSH2 0x1C2 PUSH2 0x16E JUMP JUMPDEST JUMPDEST DUP1 PUSH1 0x40 MSTORE POP POP POP JUMP JUMPDEST PUSH0 PUSH2 0x1D5 PUSH2 0xEB JUMP JUMPDEST SWAP1 POP PUSH2 0x1E1 DUP3 DUP3 PUSH2 0x19B JUMP JUMPDEST SWAP2 SWAP1 POP JUMP JUMPDEST PUSH0 PUSH8 0xFFFFFFFFFFFFFFFF DUP3 GT ISZERO PUSH2 0x200 JUMPI PUSH2 0x1FF PUSH2 0x16E JUMP JUMPDEST JUMPDEST PUSH2 0x209 DUP3 PUSH2 0x15E JUMP JUMPDEST SWAP1 POP PUSH1 0x20 DUP2 ADD SWAP1 POP SWAP2 SWAP1 POP JUMP JUMPDEST DUP3 DUP2 DUP4 MCOPY PUSH0 DUP4 DUP4 ADD MSTORE POP POP POP JUMP JUMPDEST PUSH0 PUSH2 0x236 PUSH2 0x231 DUP5 PUSH2 0x1E6 JUMP JUMPDEST PUSH2 0x1CC JUMP JUMPDEST SWAP1 POP DUP3 DUP2 MSTORE PUSH1 0x20 DUP2 ADD DUP5 DUP5 DUP5 ADD GT ISZERO PUSH2 0x252 JUMPI PUSH2 0x251 PUSH2 0x15A JUMP JUMPDEST JUMPDEST PUSH2 0x25D DUP5 DUP3 DUP6 PUSH2 0x216 JUMP JUMPDEST POP SWAP4 SWAP3 POP POP POP JUMP JUMPDEST PUSH0 DUP3 PUSH1 0x1F DUP4 ADD SLT PUSH2 0x279 JUMPI PUSH2 0x278 PUSH2 0x156 JUMP JUMPDEST JUMPDEST DUP2 MLOAD PUSH2 0x289 DUP5 DUP3 PUSH1 0x20 DUP7 ADD PUSH2 0x224 JUMP JUMPDEST SWAP2 POP POP SWAP3 SWAP2 POP POP JUMP JUMPDEST PUSH0 DUP2 SWAP1 POP SWAP2 SWAP1 POP JUMP JUMPDEST PUSH2 0x2A4 DUP2 PUSH2 0x292 JUMP JUMPDEST DUP2 EQ PUSH2 0x2AE JUMPI PUSH0 PUSH0 REVERT JUMPDEST POP JUMP JUMPDEST PUSH0 DUP2 MLOAD SWAP1 POP PUSH2 0x2BF DUP2 PUSH2 0x29B JUMP JUMPDEST SWAP3 SWAP2 POP POP JUMP JUMPDEST PUSH0 PUSH0 PUSH0 PUSH0 PUSH0 PUSH1 0xA0 DUP7 DUP9 SUB SLT ISZERO PUSH2 0x2DE JUMPI PUSH2 0x2DD PUSH2 0xF4 JUMP JUMPDEST JUMPDEST PUSH0 PUSH2 0x2EB DUP9 DUP3 DUP10 ADD PUSH2 0x142 JUMP JUMPDEST SWAP6 POP POP PUSH1 0x20 DUP7 ADD MLOAD PUSH8 0xFFFFFFFFFFFFFFFF DUP2 GT ISZERO PUSH2 0x30C JUMPI PUSH2 0x30B PUSH2 0xF8 JUMP JUMPDEST JUMPDEST PUSH2 0x318 DUP9 DUP3 DUP10 ADD PUSH2 0x265 JUMP JUMPDEST SWAP5 POP POP PUSH1 0x40 DUP7 ADD MLOAD PUSH8 0xFFFFFFFFFFFFFFFF DUP2 GT ISZERO PUSH2 0x339 JUMPI PUSH2 0x338 PUSH2 0xF8 JUMP JUMPDEST JUMPDEST PUSH2 0x345 DUP9 DUP3 DUP10 ADD PUSH2 0x265 JUMP JUMPDEST SWAP4 POP POP PUSH1 0x60 PUSH2 0x356 DUP9 DUP3 DUP10 ADD PUSH2 0x2B1 JUMP JUMPDEST SWAP3 POP POP PUSH1 0x80 PUSH2 0x367 DUP9 DUP3 DUP10 ADD PUSH2 0x2B1 JUMP JUMPDEST SWAP2 POP POP SWAP3 SWAP6 POP SWAP3 SWAP6 SWAP1 SWAP4 POP JUMP JUMPDEST PUSH0 DUP2 MLOAD SWAP1 POP SWAP2 SWAP1 POP JUMP JUMPDEST PUSH32 0x4E487B7100000000000000000000000000000000000000000000000000000000 PUSH0 MSTORE PUSH1 0x22 PUSH1 0x4 MSTORE PUSH1 0x24 PUSH0 REVERT JUMPDEST PUSH0 PUSH1 0x2 DUP3 DIV SWAP1 POP PUSH1 0x1 DUP3 AND DUP1 PUSH2 0x3C2 JUMPI PUSH1 0x7F DUP3 AND SWAP2 POP JUMPDEST PUSH1 0x20 DUP3 LT DUP2 SUB PUSH2 0x3D5 JUMPI PUSH2 0x3D4 PUSH2 0x37E JUMP JUMPDEST JUMPDEST POP SWAP2 SWAP1 POP JUMP JUMPDEST PUSH0 DUP2 SWAP1 POP DUP2 PUSH0 MSTORE PUSH1 0x20 PUSH0 KECCAK256 SWAP1 POP SWAP2 SWAP1 POP JUMP JUMPDEST PUSH0 PUSH1 0x20 PUSH1 0x1F DUP4 ADD DIV SWAP1 POP SWAP2 SWAP1 POP JUMP JUMPDEST PUSH0 DUP3 DUP3 SHL SWAP1 POP SWAP3 SWAP2 POP POP JUMP JUMPDEST PUSH0 PUSH1 0x8 DUP4 MUL PUSH2 0x437 PUSH32 0xFFFFFFFFFFFFFFFFFFFFFFFFFFFFFFFFFFFFFFFFFFFFFFFFFFFFFFFFFFFFFFFF DUP3 PUSH2 0x3FC JUMP JUMPDEST PUSH2 0x441 DUP7 DUP4 PUSH2 0x3FC JUMP JUMPDEST SWAP6 POP DUP1 NOT DUP5 AND SWAP4 POP DUP1 DUP7 AND DUP5 OR SWAP3 POP POP POP SWAP4 SWAP3 POP POP POP JUMP JUMPDEST PUSH0 DUP2 SWAP1 POP SWAP2 SWAP1 POP JUMP JUMPDEST PUSH0 PUSH2 0x47C PUSH2 0x477 PUSH2 0x472 DUP5 PUSH2 0x292 JUMP JUMPDEST PUSH2 0x459 JUMP JUMPDEST PUSH2 0x292 JUMP JUMPDEST SWAP1 POP SWAP2 SWAP1 POP JUMP JUMPDEST PUSH0 DUP2 SWAP1 POP SWAP2 SWAP1 POP JUMP JUMPDEST PUSH2 0x495 DUP4 PUSH2 0x462 JUMP JUMPDEST PUSH2 0x4A9 PUSH2 0x4A1 DUP3 PUSH2 0x483 JUMP JUMPDEST DUP5 DUP5 SLOAD PUSH2 0x408 JUMP JUMPDEST DUP3 SSTORE POP POP POP POP JUMP JUMPDEST PUSH0 PUSH0 SWAP1 POP SWAP1 JUMP JUMPDEST PUSH2 0x4C0 PUSH2 0x4B1 JUMP JUMPDEST PUSH2 0x4CB DUP2 DUP5 DUP5 PUSH2 0x48C JUMP JUMPDEST POP POP POP JUMP JUMPDEST JUMPDEST DUP2 DUP2 LT ISZERO PUSH2 0x4EE JUMPI PUSH2 0x4E3 PUSH0 DUP3 PUSH2 0x4B8 JUMP JUMPDEST PUSH1 0x1 DUP2 ADD SWAP1 POP PUSH2 0x4D1 JUMP JUMPDEST POP POP JUMP JUMPDEST PUSH1 0x1F DUP3 GT ISZERO PUSH2 0x533 JUMPI PUSH2 0x504 DUP2 PUSH2 0x3DB JUMP JUMPDEST PUSH2 0x50D DUP5 PUSH2 0x3ED JUMP JUMPDEST DUP2 ADD PUSH1 0x20 DUP6 LT ISZERO PUSH2 0x51C JUMPI DUP2 SWAP1 POP JUMPDEST PUSH2 0x530 PUSH2 0x528 DUP6 PUSH2 0x3ED JUMP JUMPDEST DUP4 ADD DUP3 PUSH2 0x4D0 JUMP JUMPDEST POP POP JUMPDEST POP POP POP JUMP JUMPDEST PUSH0 DUP3 DUP3 SHR SWAP1 POP SWAP3 SWAP2 POP POP JUMP JUMPDEST PUSH0 PUSH2 0x553 PUSH0 NOT DUP5 PUSH1 0x8 MUL PUSH2 0x538 JUMP JUMPDEST NOT DUP1 DUP4 AND SWAP2 POP POP SWAP3 SWAP2 POP POP JUMP JUMPDEST PUSH0 PUSH2 0x56B DUP4 DUP4 PUSH2 0x544 JUMP JUMPDEST SWAP2 POP DUP3 PUSH1 0x2 MUL DUP3 OR SWAP1 POP SWAP3 SWAP2 POP POP JUMP JUMPDEST PUSH2 0x584 DUP3 PUSH2 0x374 JUMP JUMPDEST PUSH8 0xFFFFFFFFFFFFFFFF DUP2 GT ISZERO PUSH2 0x59D JUMPI PUSH2 0x59C PUSH2 0x16E JUMP JUMPDEST JUMPDEST PUSH2 0x5A7 DUP3 SLOAD PUSH2 0x3AB JUMP JUMPDEST PUSH2 0x5B2 DUP3 DUP3 DUP6 PUSH2 0x4F2 JUMP JUMPDEST PUSH0 PUSH1 0x20 SWAP1 POP PUSH1 0x1F DUP4 GT PUSH1 0x1 DUP2 EQ PUSH2 0x5E3 JUMPI PUSH0 DUP5 ISZERO PUSH2 0x5D1 JUMPI DUP3 DUP8 ADD MLOAD SWAP1 POP JUMPDEST PUSH2 0x5DB DUP6 DUP3 PUSH2 0x560 JUMP JUMPDEST DUP7 SSTORE POP PUSH2 0x642 JUMP JUMPDEST PUSH1 0x1F NOT DUP5 AND PUSH2 0x5F1 DUP7 PUSH2 0x3DB JUMP JUMPDEST PUSH0 JUMPDEST DUP3 DUP2 LT ISZERO PUSH2 0x618 JUMPI DUP5 DUP10 ADD MLOAD DUP3 SSTORE PUSH1 0x1 DUP3 ADD SWAP2 POP PUSH1 0x20 DUP6 ADD SWAP5 POP PUSH1 0x20 DUP2 ADD SWAP1 POP PUSH2 0x5F3 JUMP JUMPDEST DUP7 DUP4 LT ISZERO PUSH2 0x635 JUMPI DUP5 DUP10 ADD MLOAD PUSH2 0x631 PUSH1 0x1F DUP10 AND DUP3 PUSH2 0x544 JUMP JUMPDEST DUP4 SSTORE POP JUMPDEST PUSH1 0x1 PUSH1 0x2 DUP9 MUL ADD DUP9 SSTORE POP POP POP JUMPDEST POP POP POP POP POP POP JUMP JUMPDEST PUSH32 0x4E487B7100000000000000000000000000000000000000000000000000000000 PUSH0 MSTORE PUSH1 0x11 PUSH1 0x4 MSTORE PUSH1 0x24 PUSH0 REVERT JUMPDEST PUSH0 PUSH2 0x681 DUP3 PUSH2 0x292 JUMP JUMPDEST SWAP2 POP PUSH2 0x68C DUP4 PUSH2 0x292 JUMP JUMPDEST SWAP3 POP DUP3 DUP3 MUL PUSH2 0x69A DUP2 PUSH2 0x292 JUMP JUMPDEST SWAP2 POP DUP3 DUP3 DIV DUP5 EQ DUP4 ISZERO OR PUSH2 0x6B1 JUMPI PUSH2 0x6B0 PUSH2 0x64A JUMP JUMPDEST JUMPDEST POP SWAP3 SWAP2 POP POP JUMP JUMPDEST PUSH0 PUSH2 0x6C2 DUP3 PUSH2 0x292 JUMP JUMPDEST SWAP2 POP PUSH2 0x6CD DUP4 PUSH2 0x292 JUMP JUMPDEST SWAP3 POP DUP3 DUP3 ADD SWAP1 POP DUP1 DUP3 GT ISZERO PUSH2 0x6E5 JUMPI PUSH2 0x6E4 PUSH2 0x64A JUMP JUMPDEST JUMPDEST SWAP3 SWAP2 POP POP JUMP JUMPDEST PUSH32 0x4E487B7100000000000000000000000000000000000000000000000000000000 PUSH0 MSTORE PUSH1 0x21 PUSH1 0x4 MSTORE PUSH1 0x24 PUSH0 REVERT JUMPDEST PUSH2 0x218F DUP1 PUSH2 0x725 PUSH0 CODECOPY PUSH0 RETURN INVALID PUSH1 0x80 PUSH1 0x40 MSTORE PUSH1 0x4 CALLDATASIZE LT PUSH2 0x113 JUMPI PUSH0 CALLDATALOAD PUSH1 0xE0 SHR DUP1 PUSH4 0x7284E416 GT PUSH2 0x9F JUMPI DUP1 PUSH4 0xB85DFB80 GT PUSH2 0x63 JUMPI DUP1 PUSH4 0xB85DFB80 EQ PUSH2 0x36F JUMPI DUP1 PUSH4 0xC19D93FB EQ PUSH2 0x3AB JUMPI DUP1 PUSH4 0xC4AE3168 EQ PUSH2 0x3D5 JUMPI DUP1 PUSH4 0xCA1D209D EQ PUSH2 0x3EB JUMPI DUP1 PUSH4 0xDE170570 EQ PUSH2 0x407 JUMPI PUSH2 0x113 JUMP JUMPDEST DUP1 PUSH4 0x7284E416 EQ PUSH2 0x28F JUMPI DUP1 PUSH4 0x7497211B EQ PUSH2 0x2B9 JUMPI DUP1 PUSH4 0x7ADBA527 EQ PUSH2 0x2E1 JUMPI DUP1 PUSH4 0x8DA5CB5B EQ PUSH2 0x31D JUMPI DUP1 PUSH4 0x8ECE7B91 EQ PUSH2 0x347 JUMPI PUSH2 0x113 JUMP JUMPDEST DUP1 PUSH4 0x389B7533 GT PUSH2 0xE6 JUMPI DUP1 PUSH4 0x389B7533 EQ PUSH2 0x1D3 JUMPI DUP1 PUSH4 0x3CCFD60B EQ PUSH2 0x1FB JUMPI DUP1 PUSH4 0x40193883 EQ PUSH2 0x211 JUMPI DUP1 PUSH4 0x5C975ABB EQ PUSH2 0x23B JUMPI DUP1 PUSH4 0x6F9FB98A EQ PUSH2 0x265 JUMPI PUSH2 0x113 JUMP JUMPDEST DUP1 PUSH4 0x39AF9EB EQ PUSH2 0x117 JUMPI DUP1 PUSH4 0x6FDDE03 EQ PUSH2 0x155 JUMPI DUP1 PUSH4 0x10550515 EQ PUSH2 0x17F JUMPI DUP1 PUSH4 0x29DCB0CF EQ PUSH2 0x1A9 JUMPI JUMPDEST PUSH0 PUSH0 REVERT JUMPDEST CALLVALUE DUP1 ISZERO PUSH2 0x122 JUMPI PUSH0 PUSH0 REVERT JUMPDEST POP PUSH2 0x13D PUSH1 0x4 DUP1 CALLDATASIZE SUB DUP2 ADD SWAP1 PUSH2 0x138 SWAP2 SWAP1 PUSH2 0x12A8 JUMP JUMPDEST PUSH2 0x431 JUMP JUMPDEST PUSH1 0x40 MLOAD PUSH2 0x14C SWAP4 SWAP3 SWAP2 SWAP1 PUSH2 0x1352 JUMP JUMPDEST PUSH1 0x40 MLOAD DUP1 SWAP2 SUB SWAP1 RETURN JUMPDEST CALLVALUE DUP1 ISZERO PUSH2 0x160 JUMPI PUSH0 PUSH0 REVERT JUMPDEST POP PUSH2 0x169 PUSH2 0x4EC JUMP JUMPDEST PUSH1 0x40 MLOAD PUSH2 0x176 SWAP2 SWAP1 PUSH2 0x138E JUMP JUMPDEST PUSH1 0x40 MLOAD DUP1 SWAP2 SUB SWAP1 RETURN JUMPDEST CALLVALUE DUP1 ISZERO PUSH2 0x18A JUMPI PUSH0 PUSH0 REVERT JUMPDEST POP PUSH2 0x193 PUSH2 0x577 JUMP JUMPDEST PUSH1 0x40 MLOAD PUSH2 0x1A0 SWAP2 SWAP1 PUSH2 0x1421 JUMP JUMPDEST PUSH1 0x40 MLOAD DUP1 SWAP2 SUB SWAP1 RETURN JUMPDEST CALLVALUE DUP1 ISZERO PUSH2 0x1B4 JUMPI PUSH0 PUSH0 REVERT JUMPDEST POP PUSH2 0x1BD PUSH2 0x5F1 JUMP JUMPDEST PUSH1 0x40 MLOAD PUSH2 0x1CA SWAP2 SWAP1 PUSH2 0x143A JUMP JUMPDEST PUSH1 0x40 MLOAD DUP1 SWAP2 SUB SWAP1 RETURN JUMPDEST CALLVALUE DUP1 ISZERO PUSH2 0x1DE JUMPI PUSH0 PUSH0 REVERT JUMPDEST POP PUSH2 0x1F9 PUSH1 0x4 DUP1 CALLDATASIZE SUB DUP2 ADD SWAP1 PUSH2 0x1F4 SWAP2 SWAP1 PUSH2 0x12A8 JUMP JUMPDEST PUSH2 0x5F7 JUMP JUMPDEST STOP JUMPDEST CALLVALUE DUP1 ISZERO PUSH2 0x206 JUMPI PUSH0 PUSH0 REVERT JUMPDEST POP PUSH2 0x20F PUSH2 0x724 JUMP JUMPDEST STOP JUMPDEST CALLVALUE DUP1 ISZERO PUSH2 0x21C JUMPI PUSH0 PUSH0 REVERT JUMPDEST POP PUSH2 0x225 PUSH2 0x8DF JUMP JUMPDEST PUSH1 0x40 MLOAD PUSH2 0x232 SWAP2 SWAP1 PUSH2 0x143A JUMP JUMPDEST PUSH1 0x40 MLOAD DUP1 SWAP2 SUB SWAP1 RETURN JUMPDEST CALLVALUE DUP1 ISZERO PUSH2 0x246 JUMPI PUSH0 PUSH0 REVERT JUMPDEST POP PUSH2 0x24F PUSH2 0x8E5 JUMP JUMPDEST PUSH1 0x40 MLOAD PUSH2 0x25C SWAP2 SWAP1 PUSH2 0x146D JUMP JUMPDEST PUSH1 0x40 MLOAD DUP1 SWAP2 SUB SWAP1 RETURN JUMPDEST CALLVALUE DUP1 ISZERO PUSH2 0x270 JUMPI PUSH0 PUSH0 REVERT JUMPDEST POP PUSH2 0x279 PUSH2 0x8F8 JUMP JUMPDEST PUSH1 0x40 MLOAD PUSH2 0x286 SWAP2 SWAP1 PUSH2 0x143A JUMP JUMPDEST PUSH1 0x40 MLOAD DUP1 SWAP2 SUB SWAP1 RETURN JUMPDEST CALLVALUE DUP1 ISZERO PUSH2 0x29A JUMPI PUSH0 PUSH0 REVERT JUMPDEST POP PUSH2 0x2A3 PUSH2 0x8FF JUMP JUMPDEST PUSH1 0x40 MLOAD PUSH2 0x2B0 SWAP2 SWAP1 PUSH2 0x138E JUMP JUMPDEST PUSH1 0x40 MLOAD DUP1 SWAP2 SUB SWAP1 RETURN JUMPDEST CALLVALUE DUP1 ISZERO PUSH2 0x2C4 JUMPI PUSH0 PUSH0 REVERT JUMPDEST POP PUSH2 0x2DF PUSH1 0x4 DUP1 CALLDATASIZE SUB DUP2 ADD SWAP1 PUSH2 0x2DA SWAP2 SWAP1 PUSH2 0x12A8 JUMP JUMPDEST PUSH2 0x98B JUMP JUMPDEST STOP JUMPDEST CALLVALUE DUP1 ISZERO PUSH2 0x2EC JUMPI PUSH0 PUSH0 REVERT JUMPDEST POP PUSH2 0x307 PUSH1 0x4 DUP1 CALLDATASIZE SUB DUP2 ADD SWAP1 PUSH2 0x302 SWAP2 SWAP1 PUSH2 0x14E0 JUMP JUMPDEST PUSH2 0xB24 JUMP JUMPDEST PUSH1 0x40 MLOAD PUSH2 0x314 SWAP2 SWAP1 PUSH2 0x146D JUMP JUMPDEST PUSH1 0x40 MLOAD DUP1 SWAP2 SUB SWAP1 RETURN JUMPDEST CALLVALUE DUP1 ISZERO PUSH2 0x328 JUMPI PUSH0 PUSH0 REVERT JUMPDEST POP PUSH2 0x331 PUSH2 0xB89 JUMP JUMPDEST PUSH1 0x40 MLOAD PUSH2 0x33E SWAP2 SWAP1 PUSH2 0x152D JUMP JUMPDEST PUSH1 0x40 MLOAD DUP1 SWAP2 SUB SWAP1 RETURN JUMPDEST CALLVALUE DUP1 ISZERO PUSH2 0x352 JUMPI PUSH0 PUSH0 REVERT JUMPDEST POP PUSH2 0x36D PUSH1 0x4 DUP1 CALLDATASIZE SUB DUP2 ADD SWAP1 PUSH2 0x368 SWAP2 SWAP1 PUSH2 0x1672 JUMP JUMPDEST PUSH2 0xBAE JUMP JUMPDEST STOP JUMPDEST CALLVALUE DUP1 ISZERO PUSH2 0x37A JUMPI PUSH0 PUSH0 REVERT JUMPDEST POP PUSH2 0x395 PUSH1 0x4 DUP1 CALLDATASIZE SUB DUP2 ADD SWAP1 PUSH2 0x390 SWAP2 SWAP1 PUSH2 0x16CC JUMP JUMPDEST PUSH2 0xCF0 JUMP JUMPDEST PUSH1 0x40 MLOAD PUSH2 0x3A2 SWAP2 SWAP1 PUSH2 0x143A JUMP JUMPDEST PUSH1 0x40 MLOAD DUP1 SWAP2 SUB SWAP1 RETURN JUMPDEST CALLVALUE DUP1 ISZERO PUSH2 0x3B6 JUMPI PUSH0 PUSH0 REVERT JUMPDEST POP PUSH2 0x3BF PUSH2 0xD0A JUMP JUMPDEST PUSH1 0x40 MLOAD PUSH2 0x3CC SWAP2 SWAP1 PUSH2 0x1421 JUMP JUMPDEST PUSH1 0x40 MLOAD DUP1 SWAP2 SUB SWAP1 RETURN JUMPDEST CALLVALUE DUP1 ISZERO PUSH2 0x3E0 JUMPI PUSH0 PUSH0 REVERT JUMPDEST POP PUSH2 0x3E9 PUSH2 0xD1D JUMP JUMPDEST STOP JUMPDEST PUSH2 0x405 PUSH1 0x4 DUP1 CALLDATASIZE SUB DUP2 ADD SWAP1 PUSH2 0x400 SWAP2 SWAP1 PUSH2 0x12A8 JUMP JUMPDEST PUSH2 0xDD8 JUMP JUMPDEST STOP JUMPDEST CALLVALUE DUP1 ISZERO PUSH2 0x412 JUMPI PUSH0 PUSH0 REVERT JUMPDEST POP PUSH2 0x41B PUSH2 0x1048 JUMP JUMPDEST PUSH1 0x40 MLOAD PUSH2 0x428 SWAP2 SWAP1 PUSH2 0x1856 JUMP JUMPDEST PUSH1 0x40 MLOAD DUP1 SWAP2 SUB SWAP1 RETURN JUMPDEST PUSH1 0x5 DUP2 DUP2 SLOAD DUP2 LT PUSH2 0x440 JUMPI PUSH0 DUP1 REVERT JUMPDEST SWAP1 PUSH0 MSTORE PUSH1 0x20 PUSH0 KECCAK256 SWAP1 PUSH1 0x3 MUL ADD PUSH0 SWAP2 POP SWAP1 POP DUP1 PUSH0 ADD DUP1 SLOAD PUSH2 0x45F SWAP1 PUSH2 0x18A3 JUMP JUMPDEST DUP1 PUSH1 0x1F ADD PUSH1 0x20 DUP1 SWAP2 DIV MUL PUSH1 0x20 ADD PUSH1 0x40 MLOAD SWAP1 DUP2 ADD PUSH1 0x40 MSTORE DUP1 SWAP3 SWAP2 SWAP1 DUP2 DUP2 MSTORE PUSH1 0x20 ADD DUP3 DUP1 SLOAD PUSH2 0x48B SWAP1 PUSH2 0x18A3 JUMP JUMPDEST DUP1 ISZERO PUSH2 0x4D6 JUMPI DUP1 PUSH1 0x1F LT PUSH2 0x4AD JUMPI PUSH2 0x100 DUP1 DUP4 SLOAD DIV MUL DUP4 MSTORE SWAP2 PUSH1 0x20 ADD SWAP2 PUSH2 0x4D6 JUMP JUMPDEST DUP3 ADD SWAP2 SWAP1 PUSH0 MSTORE PUSH1 0x20 PUSH0 KECCAK256 SWAP1 JUMPDEST DUP2 SLOAD DUP2 MSTORE SWAP1 PUSH1 0x1 ADD SWAP1 PUSH1 0x20 ADD DUP1 DUP4 GT PUSH2 0x4B9 JUMPI DUP3 SWAP1 SUB PUSH1 0x1F AND DUP3 ADD SWAP2 JUMPDEST POP POP POP POP POP SWAP1 DUP1 PUSH1 0x1 ADD SLOAD SWAP1 DUP1 PUSH1 0x2 ADD SLOAD SWAP1 POP DUP4 JUMP JUMPDEST PUSH0 DUP1 SLOAD PUSH2 0x4F8 SWAP1 PUSH2 0x18A3 JUMP JUMPDEST DUP1 PUSH1 0x1F ADD PUSH1 0x20 DUP1 SWAP2 DIV MUL PUSH1 0x20 ADD PUSH1 0x40 MLOAD SWAP1 DUP2 ADD PUSH1 0x40 MSTORE DUP1 SWAP3 SWAP2 SWAP1 DUP2 DUP2 MSTORE PUSH1 0x20 ADD DUP3 DUP1 SLOAD PUSH2 0x524 SWAP1 PUSH2 0x18A3 JUMP JUMPDEST DUP1 ISZERO PUSH2 0x56F JUMPI DUP1 PUSH1 0x1F LT PUSH2 0x546 JUMPI PUSH2 0x100 DUP1 DUP4 SLOAD DIV MUL DUP4 MSTORE SWAP2 PUSH1 0x20 ADD SWAP2 PUSH2 0x56F JUMP JUMPDEST DUP3 ADD SWAP2 SWAP1 PUSH0 MSTORE PUSH1 0x20 PUSH0 KECCAK256 SWAP1 JUMPDEST DUP2 SLOAD DUP2 MSTORE SWAP1 PUSH1 0x1 ADD SWAP1 PUSH1 0x20 ADD DUP1 DUP4 GT PUSH2 0x552 JUMPI DUP3 SWAP1 SUB PUSH1 0x1F AND DUP3 ADD SWAP2 JUMPDEST POP POP POP POP POP DUP2 JUMP JUMPDEST PUSH0 PUSH0 PUSH1 0x2 DUP2 GT ISZERO PUSH2 0x58B JUMPI PUSH2 0x58A PUSH2 0x13AE JUMP JUMPDEST JUMPDEST PUSH1 0x4 PUSH1 0x15 SWAP1 SLOAD SWAP1 PUSH2 0x100 EXP SWAP1 DIV PUSH1 0xFF AND PUSH1 0x2 DUP2 GT ISZERO PUSH2 0x5AD JUMPI PUSH2 0x5AC PUSH2 0x13AE JUMP JUMPDEST JUMPDEST EQ DUP1 ISZERO PUSH2 0x5BB JUMPI POP PUSH1 0x3 SLOAD TIMESTAMP GT JUMPDEST ISZERO PUSH2 0x5DB JUMPI PUSH1 0x2 SLOAD SELFBALANCE LT ISZERO PUSH2 0x5D1 JUMPI PUSH1 0x2 PUSH2 0x5D4 JUMP JUMPDEST PUSH1 0x1 JUMPDEST SWAP1 POP PUSH2 0x5EE JUMP JUMPDEST PUSH1 0x4 PUSH1 0x15 SWAP1 SLOAD SWAP1 PUSH2 0x100 EXP SWAP1 DIV PUSH1 0xFF AND SWAP1 POP JUMPDEST SWAP1 JUMP JUMPDEST PUSH1 0x3 SLOAD DUP2 JUMP JUMPDEST PUSH1 0x4 PUSH0 SWAP1 SLOAD SWAP1 PUSH2 0x100 EXP SWAP1 DIV PUSH20 0xFFFFFFFFFFFFFFFFFFFFFFFFFFFFFFFFFFFFFFFF AND PUSH20 0xFFFFFFFFFFFFFFFFFFFFFFFFFFFFFFFFFFFFFFFF AND CALLER PUSH20 0xFFFFFFFFFFFFFFFFFFFFFFFFFFFFFFFFFFFFFFFF AND EQ PUSH2 0x686 JUMPI PUSH1 0x40 MLOAD PUSH32 0x8C379A000000000000000000000000000000000000000000000000000000000 DUP2 MSTORE PUSH1 0x4 ADD PUSH2 0x67D SWAP1 PUSH2 0x191D JUMP JUMPDEST PUSH1 0x40 MLOAD DUP1 SWAP2 SUB SWAP1 REVERT JUMPDEST PUSH0 PUSH1 0x2 DUP2 GT ISZERO PUSH2 0x699 JUMPI PUSH2 0x698 PUSH2 0x13AE JUMP JUMPDEST JUMPDEST PUSH1 0x4 PUSH1 0x15 SWAP1 SLOAD SWAP1 PUSH2 0x100 EXP SWAP1 DIV PUSH1 0xFF AND PUSH1 0x2 DUP2 GT ISZERO PUSH2 0x6BB JUMPI PUSH2 0x6BA PUSH2 0x13AE JUMP JUMPDEST JUMPDEST EQ PUSH2 0x6FB JUMPI PUSH1 0x40 MLOAD PUSH32 0x8C379A000000000000000000000000000000000000000000000000000000000 DUP2 MSTORE PUSH1 0x4 ADD PUSH2 0x6F2 SWAP1 PUSH2 0x1985 JUMP JUMPDEST PUSH1 0x40 MLOAD DUP1 SWAP2 SUB SWAP1 REVERT JUMPDEST PUSH3 0x15180 DUP2 PUSH2 0x70A SWAP2 SWAP1 PUSH2 0x19D0 JUMP JUMPDEST PUSH1 0x3 PUSH0 DUP3 DUP3 SLOAD PUSH2 0x71A SWAP2 SWAP1 PUSH2 0x1A11 JUMP JUMPDEST SWAP3 POP POP DUP2 SWAP1 SSTORE POP POP JUMP JUMPDEST PUSH1 0x4 PUSH0 SWAP1 SLOAD SWAP1 PUSH2 0x100 EXP SWAP1 DIV PUSH20 0xFFFFFFFFFFFFFFFFFFFFFFFFFFFFFFFFFFFFFFFF AND PUSH20 0xFFFFFFFFFFFFFFFFFFFFFFFFFFFFFFFFFFFFFFFF AND CALLER PUSH20 0xFFFFFFFFFFFFFFFFFFFFFFFFFFFFFFFFFFFFFFFF AND EQ PUSH2 0x7B3 JUMPI PUSH1 0x40 MLOAD PUSH32 0x8C379A000000000000000000000000000000000000000000000000000000000 DUP2 MSTORE PUSH1 0x4 ADD PUSH2 0x7AA SWAP1 PUSH2 0x191D JUMP JUMPDEST PUSH1 0x40 MLOAD DUP1 SWAP2 SUB SWAP1 REVERT JUMPDEST PUSH2 0x7BB PUSH2 0x1147 JUMP JUMPDEST PUSH1 0x1 PUSH1 0x2 DUP2 GT ISZERO PUSH2 0x7CF JUMPI PUSH2 0x7CE PUSH2 0x13AE JUMP JUMPDEST JUMPDEST PUSH1 0x4 PUSH1 0x15 SWAP1 SLOAD SWAP1 PUSH2 0x100 EXP SWAP1 DIV PUSH1 0xFF AND PUSH1 0x2 DUP2 GT ISZERO PUSH2 0x7F1 JUMPI PUSH2 0x7F0 PUSH2 0x13AE JUMP JUMPDEST JUMPDEST EQ PUSH2 0x831 JUMPI PUSH1 0x40 MLOAD PUSH32 0x8C379A000000000000000000000000000000000000000000000000000000000 DUP2 MSTORE PUSH1 0x4 ADD PUSH2 0x828 SWAP1 PUSH2 0x1A8E JUMP JUMPDEST PUSH1 0x40 MLOAD DUP1 SWAP2 SUB SWAP1 REVERT JUMPDEST PUSH0 SELFBALANCE SWAP1 POP PUSH0 DUP2 GT PUSH2 0x877 JUMPI PUSH1 0x40 MLOAD PUSH32 0x8C379A000000000000000000000000000000000000000000000000000000000 DUP2 MSTORE PUSH1 0x4 ADD PUSH2 0x86E SWAP1 PUSH2 0x1AF6 JUMP JUMPDEST PUSH1 0x40 MLOAD DUP1 SWAP2 SUB SWAP1 REVERT JUMPDEST PUSH1 0x4 PUSH0 SWAP1 SLOAD SWAP1 PUSH2 0x100 EXP SWAP1 DIV PUSH20 0xFFFFFFFFFFFFFFFFFFFFFFFFFFFFFFFFFFFFFFFF AND PUSH20 0xFFFFFFFFFFFFFFFFFFFFFFFFFFFFFFFFFFFFFFFF AND PUSH2 0x8FC DUP3 SWAP1 DUP2 ISZERO MUL SWAP1 PUSH1 0x40 MLOAD PUSH0 PUSH1 0x40 MLOAD DUP1 DUP4 SUB DUP2 DUP6 DUP9 DUP9 CALL SWAP4 POP POP POP POP ISZERO DUP1 ISZERO PUSH2 0x8DB JUMPI RETURNDATASIZE PUSH0 PUSH0 RETURNDATACOPY RETURNDATASIZE PUSH0 REVERT JUMPDEST POP POP JUMP JUMPDEST PUSH1 0x2 SLOAD DUP2 JUMP JUMPDEST PUSH1 0x4 PUSH1 0x14 SWAP1 SLOAD SWAP1 PUSH2 0x100 EXP SWAP1 DIV PUSH1 0xFF AND DUP2 JUMP JUMPDEST PUSH0 SELFBALANCE SWAP1 POP SWAP1 JUMP JUMPDEST PUSH1 0x1 DUP1 SLOAD PUSH2 0x90C SWAP1 PUSH2 0x18A3 JUMP JUMPDEST DUP1 PUSH1 0x1F ADD PUSH1 0x20 DUP1 SWAP2 DIV MUL PUSH1 0x20 ADD PUSH1 0x40 MLOAD SWAP1 DUP2 ADD PUSH1 0x40 MSTORE DUP1 SWAP3 SWAP2 SWAP1 DUP2 DUP2 MSTORE PUSH1 0x20 ADD DUP3 DUP1 SLOAD PUSH2 0x938 SWAP1 PUSH2 0x18A3 JUMP JUMPDEST DUP1 ISZERO PUSH2 0x983 JUMPI DUP1 PUSH1 0x1F LT PUSH2 0x95A JUMPI PUSH2 0x100 DUP1 DUP4 SLOAD DIV MUL DUP4 MSTORE SWAP2 PUSH1 0x20 ADD SWAP2 PUSH2 0x983 JUMP JUMPDEST DUP3 ADD SWAP2 SWAP1 PUSH0 MSTORE PUSH1 0x20 PUSH0 KECCAK256 SWAP1 JUMPDEST DUP2 SLOAD DUP2 MSTORE SWAP1 PUSH1 0x1 ADD SWAP1 PUSH1 0x20 ADD DUP1 DUP4 GT PUSH2 0x966 JUMPI DUP3 SWAP1 SUB PUSH1 0x1F AND DUP3 ADD SWAP2 JUMPDEST POP POP POP POP POP DUP2 JUMP JUMPDEST PUSH1 0x4 PUSH0 SWAP1 SLOAD SWAP1 PUSH2 0x100 EXP SWAP1 DIV PUSH20 0xFFFFFFFFFFFFFFFFFFFFFFFFFFFFFFFFFFFFFFFF AND PUSH20 0xFFFFFFFFFFFFFFFFFFFFFFFFFFFFFFFFFFFFFFFF AND CALLER PUSH20 0xFFFFFFFFFFFFFFFFFFFFFFFFFFFFFFFFFFFFFFFF AND EQ PUSH2 0xA1A JUMPI PUSH1 0x40 MLOAD PUSH32 0x8C379A000000000000000000000000000000000000000000000000000000000 DUP2 MSTORE PUSH1 0x4 ADD PUSH2 0xA11 SWAP1 PUSH2 0x191D JUMP JUMPDEST PUSH1 0x40 MLOAD DUP1 SWAP2 SUB SWAP1 REVERT JUMPDEST PUSH1 0x5 DUP1 SLOAD SWAP1 POP DUP2 LT PUSH2 0xA61 JUMPI PUSH1 0x40 MLOAD PUSH32 0x8C379A000000000000000000000000000000000000000000000000000000000 DUP2 MSTORE PUSH1 0x4 ADD PUSH2 0xA58 SWAP1 PUSH2 0x1B5E JUMP JUMPDEST PUSH1 0x40 MLOAD DUP1 SWAP2 SUB SWAP1 REVERT JUMPDEST PUSH1 0x5 PUSH1 0x1 PUSH1 0x5 DUP1 SLOAD SWAP1 POP PUSH2 0xA75 SWAP2 SWAP1 PUSH2 0x1B7C JUMP JUMPDEST DUP2 SLOAD DUP2 LT PUSH2 0xA86 JUMPI PUSH2 0xA85 PUSH2 0x1BAF JUMP JUMPDEST JUMPDEST SWAP1 PUSH0 MSTORE PUSH1 0x20 PUSH0 KECCAK256 SWAP1 PUSH1 0x3 MUL ADD PUSH1 0x5 DUP3 DUP2 SLOAD DUP2 LT PUSH2 0xAA6 JUMPI PUSH2 0xAA5 PUSH2 0x1BAF JUMP JUMPDEST JUMPDEST SWAP1 PUSH0 MSTORE PUSH1 0x20 PUSH0 KECCAK256 SWAP1 PUSH1 0x3 MUL ADD PUSH0 DUP3 ADD DUP2 PUSH0 ADD SWAP1 DUP2 PUSH2 0xAC4 SWAP2 SWAP1 PUSH2 0x1D91 JUMP JUMPDEST POP PUSH1 0x1 DUP3 ADD SLOAD DUP2 PUSH1 0x1 ADD SSTORE PUSH1 0x2 DUP3 ADD SLOAD DUP2 PUSH1 0x2 ADD SSTORE SWAP1 POP POP PUSH1 0x5 DUP1 SLOAD DUP1 PUSH2 0xAEE JUMPI PUSH2 0xAED PUSH2 0x1E76 JUMP JUMPDEST JUMPDEST PUSH1 0x1 SWAP1 SUB DUP2 DUP2 SWAP1 PUSH0 MSTORE PUSH1 0x20 PUSH0 KECCAK256 SWAP1 PUSH1 0x3 MUL ADD PUSH0 PUSH0 DUP3 ADD PUSH0 PUSH2 0xB0F SWAP2 SWAP1 PUSH2 0x120C JUMP JUMPDEST PUSH1 0x1 DUP3 ADD PUSH0 SWAP1 SSTORE PUSH1 0x2 DUP3 ADD PUSH0 SWAP1 SSTORE POP POP SWAP1 SSTORE POP JUMP JUMPDEST PUSH0 PUSH1 0x6 PUSH0 DUP5 PUSH20 0xFFFFFFFFFFFFFFFFFFFFFFFFFFFFFFFFFFFFFFFF AND PUSH20 0xFFFFFFFFFFFFFFFFFFFFFFFFFFFFFFFFFFFFFFFF AND DUP2 MSTORE PUSH1 0x20 ADD SWAP1 DUP2 MSTORE PUSH1 0x20 ADD PUSH0 KECCAK256 PUSH1 0x1 ADD PUSH0 DUP4 DUP2 MSTORE PUSH1 0x20 ADD SWAP1 DUP2 MSTORE PUSH1 0x20 ADD PUSH0 KECCAK256 PUSH0 SWAP1 SLOAD SWAP1 PUSH2 0x100 EXP SWAP1 DIV PUSH1 0xFF AND SWAP1 POP SWAP3 SWAP2 POP POP JUMP JUMPDEST PUSH1 0x4 PUSH0 SWAP1 SLOAD SWAP1 PUSH2 0x100 EXP SWAP1 DIV PUSH20 0xFFFFFFFFFFFFFFFFFFFFFFFFFFFFFFFFFFFFFFFF AND DUP2 JUMP JUMPDEST PUSH1 0x4 PUSH0 SWAP1 SLOAD SWAP1 PUSH2 0x100 EXP SWAP1 DIV PUSH20 0xFFFFFFFFFFFFFFFFFFFFFFFFFFFFFFFFFFFFFFFF AND PUSH20 0xFFFFFFFFFFFFFFFFFFFFFFFFFFFFFFFFFFFFFFFF AND CALLER PUSH20 0xFFFFFFFFFFFFFFFFFFFFFFFFFFFFFFFFFFFFFFFF AND EQ PUSH2 0xC3D JUMPI PUSH1 0x40 MLOAD PUSH32 0x8C379A000000000000000000000000000000000000000000000000000000000 DUP2 MSTORE PUSH1 0x4 ADD PUSH2 0xC34 SWAP1 PUSH2 0x191D JUMP JUMPDEST PUSH1 0x40 MLOAD DUP1 SWAP2 SUB SWAP1 REVERT JUMPDEST PUSH0 DUP2 GT PUSH2 0xC7F JUMPI PUSH1 0x40 MLOAD PUSH32 0x8C379A000000000000000000000000000000000000000000000000000000000 DUP2 MSTORE PUSH1 0x4 ADD PUSH2 0xC76 SWAP1 PUSH2 0x1EED JUMP JUMPDEST PUSH1 0x40 MLOAD DUP1 SWAP2 SUB SWAP1 REVERT JUMPDEST PUSH1 0x5 PUSH1 0x40 MLOAD DUP1 PUSH1 0x60 ADD PUSH1 0x40 MSTORE DUP1 DUP5 DUP2 MSTORE PUSH1 0x20 ADD DUP4 DUP2 MSTORE PUSH1 0x20 ADD PUSH0 DUP2 MSTORE POP SWAP1 DUP1 PUSH1 0x1 DUP2 SLOAD ADD DUP1 DUP3 SSTORE DUP1 SWAP2 POP POP PUSH1 0x1 SWAP1 SUB SWAP1 PUSH0 MSTORE PUSH1 0x20 PUSH0 KECCAK256 SWAP1 PUSH1 0x3 MUL ADD PUSH0 SWAP1 SWAP2 SWAP1 SWAP2 SWAP1 SWAP2 POP PUSH0 DUP3 ADD MLOAD DUP2 PUSH0 ADD SWAP1 DUP2 PUSH2 0xCD5 SWAP2 SWAP1 PUSH2 0x1F0B JUMP JUMPDEST POP PUSH1 0x20 DUP3 ADD MLOAD DUP2 PUSH1 0x1 ADD SSTORE PUSH1 0x40 DUP3 ADD MLOAD DUP2 PUSH1 0x2 ADD SSTORE POP POP POP POP JUMP JUMPDEST PUSH1 0x6 PUSH1 0x20 MSTORE DUP1 PUSH0 MSTORE PUSH1 0x40 PUSH0 KECCAK256 PUSH0 SWAP2 POP SWAP1 POP DUP1 PUSH0 ADD SLOAD SWAP1 POP DUP2 JUMP JUMPDEST PUSH1 0x4 PUSH1 0x15 SWAP1 SLOAD SWAP1 PUSH2 0x100 EXP SWAP1 DIV PUSH1 0xFF AND DUP2 JUMP JUMPDEST PUSH1 0x4 PUSH0 SWAP1 SLOAD SWAP1 PUSH2 0x100 EXP SWAP1 DIV PUSH20 0xFFFFFFFFFFFFFFFFFFFFFFFFFFFFFFFFFFFFFFFF AND PUSH20 0xFFFFFFFFFFFFFFFFFFFFFFFFFFFFFFFFFFFFFFFF AND CALLER PUSH20 0xFFFFFFFFFFFFFFFFFFFFFFFFFFFFFFFFFFFFFFFF AND EQ PUSH2 0xDAC JUMPI PUSH1 0x40 MLOAD PUSH32 0x8C379A000000000000000000000000000000000000000000000000000000000 DUP2 MSTORE PUSH1 0x4 ADD PUSH2 0xDA3 SWAP1 PUSH2 0x191D JUMP JUMPDEST PUSH1 0x40 MLOAD DUP1 SWAP2 SUB SWAP1 REVERT JUMPDEST PUSH1 0x4 PUSH1 0x14 SWAP1 SLOAD SWAP1 PUSH2 0x100 EXP SWAP1 DIV PUSH1 0xFF AND ISZERO PUSH1 0x4 PUSH1 0x14 PUSH2 0x100 EXP DUP2 SLOAD DUP2 PUSH1 0xFF MUL NOT AND SWAP1 DUP4 ISZERO ISZERO MUL OR SWAP1 SSTORE POP JUMP JUMPDEST PUSH0 PUSH1 0x2 DUP2 GT ISZERO PUSH2 0xDEB JUMPI PUSH2 0xDEA PUSH2 0x13AE JUMP JUMPDEST JUMPDEST PUSH1 0x4 PUSH1 0x15 SWAP1 SLOAD SWAP1 PUSH2 0x100 EXP SWAP1 DIV PUSH1 0xFF AND PUSH1 0x2 DUP2 GT ISZERO PUSH2 0xE0D JUMPI PUSH2 0xE0C PUSH2 0x13AE JUMP JUMPDEST JUMPDEST EQ PUSH2 0xE4D JUMPI PUSH1 0x40 MLOAD PUSH32 0x8C379A000000000000000000000000000000000000000000000000000000000 DUP2 MSTORE PUSH1 0x4 ADD PUSH2 0xE44 SWAP1 PUSH2 0x1985 JUMP JUMPDEST PUSH1 0x40 MLOAD DUP1 SWAP2 SUB SWAP1 REVERT JUMPDEST PUSH1 0x4 PUSH1 0x14 SWAP1 SLOAD SWAP1 PUSH2 0x100 EXP SWAP1 DIV PUSH1 0xFF AND ISZERO PUSH2 0xE9D JUMPI PUSH1 0x40 MLOAD PUSH32 0x8C379A000000000000000000000000000000000000000000000000000000000 DUP2 MSTORE PUSH1 0x4 ADD PUSH2 0xE94 SWAP1 PUSH2 0x2024 JUMP JUMPDEST PUSH1 0x40 MLOAD DUP1 SWAP2 SUB SWAP1 REVERT JUMPDEST PUSH1 0x5 DUP1 SLOAD SWAP1 POP DUP2 LT PUSH2 0xEE4 JUMPI PUSH1 0x40 MLOAD PUSH32 0x8C379A000000000000000000000000000000000000000000000000000000000 DUP2 MSTORE PUSH1 0x4 ADD PUSH2 0xEDB SWAP1 PUSH2 0x208C JUMP JUMPDEST PUSH1 0x40 MLOAD DUP1 SWAP2 SUB SWAP1 REVERT JUMPDEST PUSH1 0x5 DUP2 DUP2 SLOAD DUP2 LT PUSH2 0xEF8 JUMPI PUSH2 0xEF7 PUSH2 0x1BAF JUMP JUMPDEST JUMPDEST SWAP1 PUSH0 MSTORE PUSH1 0x20 PUSH0 KECCAK256 SWAP1 PUSH1 0x3 MUL ADD PUSH1 0x1 ADD SLOAD CALLVALUE EQ PUSH2 0xF49 JUMPI PUSH1 0x40 MLOAD PUSH32 0x8C379A000000000000000000000000000000000000000000000000000000000 DUP2 MSTORE PUSH1 0x4 ADD PUSH2 0xF40 SWAP1 PUSH2 0x20F4 JUMP JUMPDEST PUSH1 0x40 MLOAD DUP1 SWAP2 SUB SWAP1 REVERT JUMPDEST PUSH1 0x5 DUP2 DUP2 SLOAD DUP2 LT PUSH2 0xF5D JUMPI PUSH2 0xF5C PUSH2 0x1BAF JUMP JUMPDEST JUMPDEST SWAP1 PUSH0 MSTORE PUSH1 0x20 PUSH0 KECCAK256 SWAP1 PUSH1 0x3 MUL ADD PUSH1 0x2 ADD PUSH0 DUP2 SLOAD DUP1 SWAP3 SWAP2 SWAP1 PUSH2 0xF7C SWAP1 PUSH2 0x2112 JUMP JUMPDEST SWAP2 SWAP1 POP SSTORE POP CALLVALUE PUSH1 0x6 PUSH0 CALLER PUSH20 0xFFFFFFFFFFFFFFFFFFFFFFFFFFFFFFFFFFFFFFFF AND PUSH20 0xFFFFFFFFFFFFFFFFFFFFFFFFFFFFFFFFFFFFFFFF AND DUP2 MSTORE PUSH1 0x20 ADD SWAP1 DUP2 MSTORE PUSH1 0x20 ADD PUSH0 KECCAK256 PUSH0 ADD PUSH0 DUP3 DUP3 SLOAD PUSH2 0xFCF SWAP2 SWAP1 PUSH2 0x1A11 JUMP JUMPDEST SWAP3 POP POP DUP2 SWAP1 SSTORE POP PUSH1 0x1 PUSH1 0x6 PUSH0 CALLER PUSH20 0xFFFFFFFFFFFFFFFFFFFFFFFFFFFFFFFFFFFFFFFF AND PUSH20 0xFFFFFFFFFFFFFFFFFFFFFFFFFFFFFFFFFFFFFFFF AND DUP2 MSTORE PUSH1 0x20 ADD SWAP1 DUP2 MSTORE PUSH1 0x20 ADD PUSH0 KECCAK256 PUSH1 0x1 ADD PUSH0 DUP4 DUP2 MSTORE PUSH1 0x20 ADD SWAP1 DUP2 MSTORE PUSH1 0x20 ADD PUSH0 KECCAK256 PUSH0 PUSH2 0x100 EXP DUP2 SLOAD DUP2 PUSH1 0xFF MUL NOT AND SWAP1 DUP4 ISZERO ISZERO MUL OR SWAP1 SSTORE POP PUSH2 0x1045 PUSH2 0x1147 JUMP JUMPDEST POP JUMP JUMPDEST PUSH1 0x60 PUSH1 0x5 DUP1 SLOAD DUP1 PUSH1 0x20 MUL PUSH1 0x20 ADD PUSH1 0x40 MLOAD SWAP1 DUP2 ADD PUSH1 0x40 MSTORE DUP1 SWAP3 SWAP2 SWAP1 DUP2 DUP2 MSTORE PUSH1 0x20 ADD PUSH0 SWAP1 JUMPDEST DUP3 DUP3 LT ISZERO PUSH2 0x113E JUMPI DUP4 DUP3 SWAP1 PUSH0 MSTORE PUSH1 0x20 PUSH0 KECCAK256 SWAP1 PUSH1 0x3 MUL ADD PUSH1 0x40 MLOAD DUP1 PUSH1 0x60 ADD PUSH1 0x40 MSTORE SWAP1 DUP2 PUSH0 DUP3 ADD DUP1 SLOAD PUSH2 0x109B SWAP1 PUSH2 0x18A3 JUMP JUMPDEST DUP1 PUSH1 0x1F ADD PUSH1 0x20 DUP1 SWAP2 DIV MUL PUSH1 0x20 ADD PUSH1 0x40 MLOAD SWAP1 DUP2 ADD PUSH1 0x40 MSTORE DUP1 SWAP3 SWAP2 SWAP1 DUP2 DUP2 MSTORE PUSH1 0x20 ADD DUP3 DUP1 SLOAD PUSH2 0x10C7 SWAP1 PUSH2 0x18A3 JUMP JUMPDEST DUP1 ISZERO PUSH2 0x1112 JUMPI DUP1 PUSH1 0x1F LT PUSH2 0x10E9 JUMPI PUSH2 0x100 DUP1 DUP4 SLOAD DIV MUL DUP4 MSTORE SWAP2 PUSH1 0x20 ADD SWAP2 PUSH2 0x1112 JUMP JUMPDEST DUP3 ADD SWAP2 SWAP1 PUSH0 MSTORE PUSH1 0x20 PUSH0 KECCAK256 SWAP1 JUMPDEST DUP2 SLOAD DUP2 MSTORE SWAP1 PUSH1 0x1 ADD SWAP1 PUSH1 0x20 ADD DUP1 DUP4 GT PUSH2 0x10F5 JUMPI DUP3 SWAP1 SUB PUSH1 0x1F AND DUP3 ADD SWAP2 JUMPDEST POP POP POP POP POP DUP2 MSTORE PUSH1 0x20 ADD PUSH1 0x1 DUP3 ADD SLOAD DUP2 MSTORE PUSH1 0x20 ADD PUSH1 0x2 DUP3 ADD SLOAD DUP2 MSTORE POP POP DUP2 MSTORE PUSH1 0x20 ADD SWAP1 PUSH1 0x1 ADD SWAP1 PUSH2 0x106B JUMP JUMPDEST POP POP POP POP SWAP1 POP SWAP1 JUMP JUMPDEST PUSH0 PUSH1 0x2 DUP2 GT ISZERO PUSH2 0x115A JUMPI PUSH2 0x1159 PUSH2 0x13AE JUMP JUMPDEST JUMPDEST PUSH1 0x4 PUSH1 0x15 SWAP1 SLOAD SWAP1 PUSH2 0x100 EXP SWAP1 DIV PUSH1 0xFF AND PUSH1 0x2 DUP2 GT ISZERO PUSH2 0x117C JUMPI PUSH2 0x117B PUSH2 0x13AE JUMP JUMPDEST JUMPDEST SUB PUSH2 0x120A JUMPI PUSH1 0x3 SLOAD TIMESTAMP LT PUSH2 0x11CC JUMPI PUSH1 0x2 SLOAD SELFBALANCE LT ISZERO PUSH2 0x119B JUMPI PUSH1 0x2 PUSH2 0x119E JUMP JUMPDEST PUSH1 0x1 JUMPDEST PUSH1 0x4 PUSH1 0x15 PUSH2 0x100 EXP DUP2 SLOAD DUP2 PUSH1 0xFF MUL NOT AND SWAP1 DUP4 PUSH1 0x2 DUP2 GT ISZERO PUSH2 0x11C2 JUMPI PUSH2 0x11C1 PUSH2 0x13AE JUMP JUMPDEST JUMPDEST MUL OR SWAP1 SSTORE POP PUSH2 0x1209 JUMP JUMPDEST PUSH1 0x2 SLOAD SELFBALANCE LT ISZERO PUSH2 0x11DC JUMPI PUSH0 PUSH2 0x11DF JUMP JUMPDEST PUSH1 0x1 JUMPDEST PUSH1 0x4 PUSH1 0x15 PUSH2 0x100 EXP DUP2 SLOAD DUP2 PUSH1 0xFF MUL NOT AND SWAP1 DUP4 PUSH1 0x2 DUP2 GT ISZERO PUSH2 0x1203 JUMPI PUSH2 0x1202 PUSH2 0x13AE JUMP JUMPDEST JUMPDEST MUL OR SWAP1 SSTORE POP JUMPDEST JUMPDEST JUMP JUMPDEST POP DUP1 SLOAD PUSH2 0x1218 SWAP1 PUSH2 0x18A3 JUMP JUMPDEST PUSH0 DUP3 SSTORE DUP1 PUSH1 0x1F LT PUSH2 0x1229 JUMPI POP PUSH2 0x1246 JUMP JUMPDEST PUSH1 0x1F ADD PUSH1 0x20 SWAP1 DIV SWAP1 PUSH0 MSTORE PUSH1 0x20 PUSH0 KECCAK256 SWAP1 DUP2 ADD SWAP1 PUSH2 0x1245 SWAP2 SWAP1 PUSH2 0x1249 JUMP JUMPDEST JUMPDEST POP JUMP JUMPDEST JUMPDEST DUP1 DUP3 GT ISZERO PUSH2 0x1260 JUMPI PUSH0 DUP2 PUSH0 SWAP1 SSTORE POP PUSH1 0x1 ADD PUSH2 0x124A JUMP JUMPDEST POP SWAP1 JUMP JUMPDEST PUSH0 PUSH1 0x40 MLOAD SWAP1 POP SWAP1 JUMP JUMPDEST PUSH0 PUSH0 REVERT JUMPDEST PUSH0 PUSH0 REVERT JUMPDEST PUSH0 DUP2 SWAP1 POP SWAP2 SWAP1 POP JUMP JUMPDEST PUSH2 0x1287 DUP2 PUSH2 0x1275 JUMP JUMPDEST DUP2 EQ PUSH2 0x1291 JUMPI PUSH0 PUSH0 REVERT JUMPDEST POP JUMP JUMPDEST PUSH0 DUP2 CALLDATALOAD SWAP1 POP PUSH2 0x12A2 DUP2 PUSH2 0x127E JUMP JUMPDEST SWAP3 SWAP2 POP POP JUMP JUMPDEST PUSH0 PUSH1 0x20 DUP3 DUP5 SUB SLT ISZERO PUSH2 0x12BD JUMPI PUSH2 0x12BC PUSH2 0x126D JUMP JUMPDEST JUMPDEST PUSH0 PUSH2 0x12CA DUP5 DUP3 DUP6 ADD PUSH2 0x1294 JUMP JUMPDEST SWAP2 POP POP SWAP3 SWAP2 POP POP JUMP JUMPDEST PUSH0 DUP2 MLOAD SWAP1 POP SWAP2 SWAP1 POP JUMP JUMPDEST PUSH0 DUP3 DUP3 MSTORE PUSH1 0x20 DUP3 ADD SWAP1 POP SWAP3 SWAP2 POP POP JUMP JUMPDEST DUP3 DUP2 DUP4 MCOPY PUSH0 DUP4 DUP4 ADD MSTORE POP POP POP JUMP JUMPDEST PUSH0 PUSH1 0x1F NOT PUSH1 0x1F DUP4 ADD AND SWAP1 POP SWAP2 SWAP1 POP JUMP JUMPDEST PUSH0 PUSH2 0x1315 DUP3 PUSH2 0x12D3 JUMP JUMPDEST PUSH2 0x131F DUP2 DUP6 PUSH2 0x12DD JUMP JUMPDEST SWAP4 POP PUSH2 0x132F DUP2 DUP6 PUSH1 0x20 DUP7 ADD PUSH2 0x12ED JUMP JUMPDEST PUSH2 0x1338 DUP2 PUSH2 0x12FB JUMP JUMPDEST DUP5 ADD SWAP2 POP POP SWAP3 SWAP2 POP POP JUMP JUMPDEST PUSH2 0x134C DUP2 PUSH2 0x1275 JUMP JUMPDEST DUP3 MSTORE POP POP JUMP JUMPDEST PUSH0 PUSH1 0x60 DUP3 ADD SWAP1 POP DUP2 DUP2 SUB PUSH0 DUP4 ADD MSTORE PUSH2 0x136A DUP2 DUP7 PUSH2 0x130B JUMP JUMPDEST SWAP1 POP PUSH2 0x1379 PUSH1 0x20 DUP4 ADD DUP6 PUSH2 0x1343 JUMP JUMPDEST PUSH2 0x1386 PUSH1 0x40 DUP4 ADD DUP5 PUSH2 0x1343 JUMP JUMPDEST SWAP5 SWAP4 POP POP POP POP JUMP JUMPDEST PUSH0 PUSH1 0x20 DUP3 ADD SWAP1 POP DUP2 DUP2 SUB PUSH0 DUP4 ADD MSTORE PUSH2 0x13A6 DUP2 DUP5 PUSH2 0x130B JUMP JUMPDEST SWAP1 POP SWAP3 SWAP2 POP POP JUMP JUMPDEST PUSH32 0x4E487B7100000000000000000000000000000000000000000000000000000000 PUSH0 MSTORE PUSH1 0x21 PUSH1 0x4 MSTORE PUSH1 0x24 PUSH0 REVERT JUMPDEST PUSH1 0x3 DUP2 LT PUSH2 0x13EC JUMPI PUSH2 0x13EB PUSH2 0x13AE JUMP JUMPDEST JUMPDEST POP JUMP JUMPDEST PUSH0 DUP2 SWAP1 POP PUSH2 0x13FC DUP3 PUSH2 0x13DB JUMP JUMPDEST SWAP2 SWAP1 POP JUMP JUMPDEST PUSH0 PUSH2 0x140B DUP3 PUSH2 0x13EF JUMP JUMPDEST SWAP1 POP SWAP2 SWAP1 POP JUMP JUMPDEST PUSH2 0x141B DUP2 PUSH2 0x1401 JUMP JUMPDEST DUP3 MSTORE POP POP JUMP JUMPDEST PUSH0 PUSH1 0x20 DUP3 ADD SWAP1 POP PUSH2 0x1434 PUSH0 DUP4 ADD DUP5 PUSH2 0x1412 JUMP JUMPDEST SWAP3 SWAP2 POP POP JUMP JUMPDEST PUSH0 PUSH1 0x20 DUP3 ADD SWAP1 POP PUSH2 0x144D PUSH0 DUP4 ADD DUP5 PUSH2 0x1343 JUMP JUMPDEST SWAP3 SWAP2 POP POP JUMP JUMPDEST PUSH0 DUP2 ISZERO ISZERO SWAP1 POP SWAP2 SWAP1 POP JUMP JUMPDEST PUSH2 0x1467 DUP2 PUSH2 0x1453 JUMP JUMPDEST DUP3 MSTORE POP POP JUMP JUMPDEST PUSH0 PUSH1 0x20 DUP3 ADD SWAP1 POP PUSH2 0x1480 PUSH0 DUP4 ADD DUP5 PUSH2 0x145E JUMP JUMPDEST SWAP3 SWAP2 POP POP JUMP JUMPDEST PUSH0 PUSH20 0xFFFFFFFFFFFFFFFFFFFFFFFFFFFFFFFFFFFFFFFF DUP3 AND SWAP1 POP SWAP2 SWAP1 POP JUMP JUMPDEST PUSH0 PUSH2 0x14AF DUP3 PUSH2 0x1486 JUMP JUMPDEST SWAP1 POP SWAP2 SWAP1 POP JUMP JUMPDEST PUSH2 0x14BF DUP2 PUSH2 0x14A5 JUMP JUMPDEST DUP2 EQ PUSH2 0x14C9 JUMPI PUSH0 PUSH0 REVERT JUMPDEST POP JUMP JUMPDEST PUSH0 DUP2 CALLDATALOAD SWAP1 POP PUSH2 0x14DA DUP2 PUSH2 0x14B6 JUMP JUMPDEST SWAP3 SWAP2 POP POP JUMP JUMPDEST PUSH0 PUSH0 PUSH1 0x40 DUP4 DUP6 SUB SLT ISZERO PUSH2 0x14F6 JUMPI PUSH2 0x14F5 PUSH2 0x126D JUMP JUMPDEST JUMPDEST PUSH0 PUSH2 0x1503 DUP6 DUP3 DUP7 ADD PUSH2 0x14CC JUMP JUMPDEST SWAP3 POP POP PUSH1 0x20 PUSH2 0x1514 DUP6 DUP3 DUP7 ADD PUSH2 0x1294 JUMP JUMPDEST SWAP2 POP POP SWAP3 POP SWAP3 SWAP1 POP JUMP JUMPDEST PUSH2 0x1527 DUP2 PUSH2 0x14A5 JUMP JUMPDEST DUP3 MSTORE POP POP JUMP JUMPDEST PUSH0 PUSH1 0x20 DUP3 ADD SWAP1 POP PUSH2 0x1540 PUSH0 DUP4 ADD DUP5 PUSH2 0x151E JUMP JUMPDEST SWAP3 SWAP2 POP POP JUMP JUMPDEST PUSH0 PUSH0 REVERT JUMPDEST PUSH0 PUSH0 REVERT JUMPDEST PUSH32 0x4E487B7100000000000000000000000000000000000000000000000000000000 PUSH0 MSTORE PUSH1 0x41 PUSH1 0x4 MSTORE PUSH1 0x24 PUSH0 REVERT JUMPDEST PUSH2 0x1584 DUP3 PUSH2 0x12FB JUMP JUMPDEST DUP2 ADD DUP2 DUP2 LT PUSH8 0xFFFFFFFFFFFFFFFF DUP3 GT OR ISZERO PUSH2 0x15A3 JUMPI PUSH2 0x15A2 PUSH2 0x154E JUMP JUMPDEST JUMPDEST DUP1 PUSH1 0x40 MSTORE POP POP POP JUMP JUMPDEST PUSH0 PUSH2 0x15B5 PUSH2 0x1264 JUMP JUMPDEST SWAP1 POP PUSH2 0x15C1 DUP3 DUP3 PUSH2 0x157B JUMP JUMPDEST SWAP2 SWAP1 POP JUMP JUMPDEST PUSH0 PUSH8 0xFFFFFFFFFFFFFFFF DUP3 GT ISZERO PUSH2 0x15E0 JUMPI PUSH2 0x15DF PUSH2 0x154E JUMP JUMPDEST JUMPDEST PUSH2 0x15E9 DUP3 PUSH2 0x12FB JUMP JUMPDEST SWAP1 POP PUSH1 0x20 DUP2 ADD SWAP1 POP SWAP2 SWAP1 POP JUMP JUMPDEST DUP3 DUP2 DUP4 CALLDATACOPY PUSH0 DUP4 DUP4 ADD MSTORE POP POP POP JUMP JUMPDEST PUSH0 PUSH2 0x1616 PUSH2 0x1611 DUP5 PUSH2 0x15C6 JUMP JUMPDEST PUSH2 0x15AC JUMP JUMPDEST SWAP1 POP DUP3 DUP2 MSTORE PUSH1 0x20 DUP2 ADD DUP5 DUP5 DUP5 ADD GT ISZERO PUSH2 0x1632 JUMPI PUSH2 0x1631 PUSH2 0x154A JUMP JUMPDEST JUMPDEST PUSH2 0x163D DUP5 DUP3 DUP6 PUSH2 0x15F6 JUMP JUMPDEST POP SWAP4 SWAP3 POP POP POP JUMP JUMPDEST PUSH0 DUP3 PUSH1 0x1F DUP4 ADD SLT PUSH2 0x1659 JUMPI PUSH2 0x1658 PUSH2 0x1546 JUMP JUMPDEST JUMPDEST DUP2 CALLDATALOAD PUSH2 0x1669 DUP5 DUP3 PUSH1 0x20 DUP7 ADD PUSH2 0x1604 JUMP JUMPDEST SWAP2 POP POP SWAP3 SWAP2 POP POP JUMP JUMPDEST PUSH0 PUSH0 PUSH1 0x40 DUP4 DUP6 SUB SLT ISZERO PUSH2 0x1688 JUMPI PUSH2 0x1687 PUSH2 0x126D JUMP JUMPDEST JUMPDEST PUSH0 DUP4 ADD CALLDATALOAD PUSH8 0xFFFFFFFFFFFFFFFF DUP2 GT ISZERO PUSH2 0x16A5 JUMPI PUSH2 0x16A4 PUSH2 0x1271 JUMP JUMPDEST JUMPDEST PUSH2 0x16B1 DUP6 DUP3 DUP7 ADD PUSH2 0x1645 JUMP JUMPDEST SWAP3 POP POP PUSH1 0x20 PUSH2 0x16C2 DUP6 DUP3 DUP7 ADD PUSH2 0x1294 JUMP JUMPDEST SWAP2 POP POP SWAP3 POP SWAP3 SWAP1 POP JUMP JUMPDEST PUSH0 PUSH1 0x20 DUP3 DUP5 SUB SLT ISZERO PUSH2 0x16E1 JUMPI PUSH2 0x16E0 PUSH2 0x126D JUMP JUMPDEST JUMPDEST PUSH0 PUSH2 0x16EE DUP5 DUP3 DUP6 ADD PUSH2 0x14CC JUMP JUMPDEST SWAP2 POP POP SWAP3 SWAP2 POP POP JUMP JUMPDEST PUSH0 DUP2 MLOAD SWAP1 POP SWAP2 SWAP1 POP JUMP JUMPDEST PUSH0 DUP3 DUP3 MSTORE PUSH1 0x20 DUP3 ADD SWAP1 POP SWAP3 SWAP2 POP POP JUMP JUMPDEST PUSH0 DUP2 SWAP1 POP PUSH1 0x20 DUP3 ADD SWAP1 POP SWAP2 SWAP1 POP JUMP JUMPDEST PUSH0 DUP3 DUP3 MSTORE PUSH1 0x20 DUP3 ADD SWAP1 POP SWAP3 SWAP2 POP POP JUMP JUMPDEST PUSH0 PUSH2 0x173A DUP3 PUSH2 0x12D3 JUMP JUMPDEST PUSH2 0x1744 DUP2 DUP6 PUSH2 0x1720 JUMP JUMPDEST SWAP4 POP PUSH2 0x1754 DUP2 DUP6 PUSH1 0x20 DUP7 ADD PUSH2 0x12ED JUMP JUMPDEST PUSH2 0x175D DUP2 PUSH2 0x12FB JUMP JUMPDEST DUP5 ADD SWAP2 POP POP SWAP3 SWAP2 POP POP JUMP JUMPDEST PUSH2 0x1771 DUP2 PUSH2 0x1275 JUMP JUMPDEST DUP3 MSTORE POP POP JUMP JUMPDEST PUSH0 PUSH1 0x60 DUP4 ADD PUSH0 DUP4 ADD MLOAD DUP5 DUP3 SUB PUSH0 DUP7 ADD MSTORE PUSH2 0x1791 DUP3 DUP3 PUSH2 0x1730 JUMP JUMPDEST SWAP2 POP POP PUSH1 0x20 DUP4 ADD MLOAD PUSH2 0x17A6 PUSH1 0x20 DUP7 ADD DUP3 PUSH2 0x1768 JUMP JUMPDEST POP PUSH1 0x40 DUP4 ADD MLOAD PUSH2 0x17B9 PUSH1 0x40 DUP7 ADD DUP3 PUSH2 0x1768 JUMP JUMPDEST POP DUP1 SWAP2 POP POP SWAP3 SWAP2 POP POP JUMP JUMPDEST PUSH0 PUSH2 0x17CF DUP4 DUP4 PUSH2 0x1777 JUMP JUMPDEST SWAP1 POP SWAP3 SWAP2 POP POP JUMP JUMPDEST PUSH0 PUSH1 0x20 DUP3 ADD SWAP1 POP SWAP2 SWAP1 POP JUMP JUMPDEST PUSH0 PUSH2 0x17ED DUP3 PUSH2 0x16F7 JUMP JUMPDEST PUSH2 0x17F7 DUP2 DUP6 PUSH2 0x1701 JUMP JUMPDEST SWAP4 POP DUP4 PUSH1 0x20 DUP3 MUL DUP6 ADD PUSH2 0x1809 DUP6 PUSH2 0x1711 JUMP JUMPDEST DUP1 PUSH0 JUMPDEST DUP6 DUP2 LT ISZERO PUSH2 0x1844 JUMPI DUP5 DUP5 SUB DUP10 MSTORE DUP2 MLOAD PUSH2 0x1825 DUP6 DUP3 PUSH2 0x17C4 JUMP JUMPDEST SWAP5 POP PUSH2 0x1830 DUP4 PUSH2 0x17D7 JUMP JUMPDEST SWAP3 POP PUSH1 0x20 DUP11 ADD SWAP10 POP POP PUSH1 0x1 DUP2 ADD SWAP1 POP PUSH2 0x180C JUMP JUMPDEST POP DUP3 SWAP8 POP DUP8 SWAP6 POP POP POP POP POP POP SWAP3 SWAP2 POP POP JUMP JUMPDEST PUSH0 PUSH1 0x20 DUP3 ADD SWAP1 POP DUP2 DUP2 SUB PUSH0 DUP4 ADD MSTORE PUSH2 0x186E DUP2 DUP5 PUSH2 0x17E3 JUMP JUMPDEST SWAP1 POP SWAP3 SWAP2 POP POP JUMP JUMPDEST PUSH32 0x4E487B7100000000000000000000000000000000000000000000000000000000 PUSH0 MSTORE PUSH1 0x22 PUSH1 0x4 MSTORE PUSH1 0x24 PUSH0 REVERT JUMPDEST PUSH0 PUSH1 0x2 DUP3 DIV SWAP1 POP PUSH1 0x1 DUP3 AND DUP1 PUSH2 0x18BA JUMPI PUSH1 0x7F DUP3 AND SWAP2 POP JUMPDEST PUSH1 0x20 DUP3 LT DUP2 SUB PUSH2 0x18CD JUMPI PUSH2 0x18CC PUSH2 0x1876 JUMP JUMPDEST JUMPDEST POP SWAP2 SWAP1 POP JUMP JUMPDEST PUSH32 0x4E6F7420746865206F776E657200000000000000000000000000000000000000 PUSH0 DUP3 ADD MSTORE POP JUMP JUMPDEST PUSH0 PUSH2 0x1907 PUSH1 0xD DUP4 PUSH2 0x12DD JUMP JUMPDEST SWAP2 POP PUSH2 0x1912 DUP3 PUSH2 0x18D3 JUMP JUMPDEST PUSH1 0x20 DUP3 ADD SWAP1 POP SWAP2 SWAP1 POP JUMP JUMPDEST PUSH0 PUSH1 0x20 DUP3 ADD SWAP1 POP DUP2 DUP2 SUB PUSH0 DUP4 ADD MSTORE PUSH2 0x1934 DUP2 PUSH2 0x18FB JUMP JUMPDEST SWAP1 POP SWAP2 SWAP1 POP JUMP JUMPDEST PUSH32 0x43616D706169676E206973206E6F74206163746976652E000000000000000000 PUSH0 DUP3 ADD MSTORE POP JUMP JUMPDEST PUSH0 PUSH2 0x196F PUSH1 0x17 DUP4 PUSH2 0x12DD JUMP JUMPDEST SWAP2 POP PUSH2 0x197A DUP3 PUSH2 0x193B JUMP JUMPDEST PUSH1 0x20 DUP3 ADD SWAP1 POP SWAP2 SWAP1 POP JUMP JUMPDEST PUSH0 PUSH1 0x20 DUP3 ADD SWAP1 POP DUP2 DUP2 SUB PUSH0 DUP4 ADD MSTORE PUSH2 0x199C DUP2 PUSH2 0x1963 JUMP JUMPDEST SWAP1 POP SWAP2 SWAP1 POP JUMP JUMPDEST PUSH32 0x4E487B7100000000000000000000000000000000000000000000000000000000 PUSH0 MSTORE PUSH1 0x11 PUSH1 0x4 MSTORE PUSH1 0x24 PUSH0 REVERT JUMPDEST PUSH0 PUSH2 0x19DA DUP3 PUSH2 0x1275 JUMP JUMPDEST SWAP2 POP PUSH2 0x19E5 DUP4 PUSH2 0x1275 JUMP JUMPDEST SWAP3 POP DUP3 DUP3 MUL PUSH2 0x19F3 DUP2 PUSH2 0x1275 JUMP JUMPDEST SWAP2 POP DUP3 DUP3 DIV DUP5 EQ DUP4 ISZERO OR PUSH2 0x1A0A JUMPI PUSH2 0x1A09 PUSH2 0x19A3 JUMP JUMPDEST JUMPDEST POP SWAP3 SWAP2 POP POP JUMP JUMPDEST PUSH0 PUSH2 0x1A1B DUP3 PUSH2 0x1275 JUMP JUMPDEST SWAP2 POP PUSH2 0x1A26 DUP4 PUSH2 0x1275 JUMP JUMPDEST SWAP3 POP DUP3 DUP3 ADD SWAP1 POP DUP1 DUP3 GT ISZERO PUSH2 0x1A3E JUMPI PUSH2 0x1A3D PUSH2 0x19A3 JUMP JUMPDEST JUMPDEST SWAP3 SWAP2 POP POP JUMP JUMPDEST PUSH32 0x43616D706169676E206E6F74207375636365737366756C2E0000000000000000 PUSH0 DUP3 ADD MSTORE POP JUMP JUMPDEST PUSH0 PUSH2 0x1A78 PUSH1 0x18 DUP4 PUSH2 0x12DD JUMP JUMPDEST SWAP2 POP PUSH2 0x1A83 DUP3 PUSH2 0x1A44 JUMP JUMPDEST PUSH1 0x20 DUP3 ADD SWAP1 POP SWAP2 SWAP1 POP JUMP JUMPDEST PUSH0 PUSH1 0x20 DUP3 ADD SWAP1 POP DUP2 DUP2 SUB PUSH0 DUP4 ADD MSTORE PUSH2 0x1AA5 DUP2 PUSH2 0x1A6C JUMP JUMPDEST SWAP1 POP SWAP2 SWAP1 POP JUMP JUMPDEST PUSH32 0x4E6F2062616C616E636520746F20776974686472617700000000000000000000 PUSH0 DUP3 ADD MSTORE POP JUMP JUMPDEST PUSH0 PUSH2 0x1AE0 PUSH1 0x16 DUP4 PUSH2 0x12DD JUMP JUMPDEST SWAP2 POP PUSH2 0x1AEB DUP3 PUSH2 0x1AAC JUMP JUMPDEST PUSH1 0x20 DUP3 ADD SWAP1 POP SWAP2 SWAP1 POP JUMP JUMPDEST PUSH0 PUSH1 0x20 DUP3 ADD SWAP1 POP DUP2 DUP2 SUB PUSH0 DUP4 ADD MSTORE PUSH2 0x1B0D DUP2 PUSH2 0x1AD4 JUMP JUMPDEST SWAP1 POP SWAP2 SWAP1 POP JUMP JUMPDEST PUSH32 0x5469657220646F6573206E6F742065786973742E000000000000000000000000 PUSH0 DUP3 ADD MSTORE POP JUMP JUMPDEST PUSH0 PUSH2 0x1B48 PUSH1 0x14 DUP4 PUSH2 0x12DD JUMP JUMPDEST SWAP2 POP PUSH2 0x1B53 DUP3 PUSH2 0x1B14 JUMP JUMPDEST PUSH1 0x20 DUP3 ADD SWAP1 POP SWAP2 SWAP1 POP JUMP JUMPDEST PUSH0 PUSH1 0x20 DUP3 ADD SWAP1 POP DUP2 DUP2 SUB PUSH0 DUP4 ADD MSTORE PUSH2 0x1B75 DUP2 PUSH2 0x1B3C JUMP JUMPDEST SWAP1 POP SWAP2 SWAP1 POP JUMP JUMPDEST PUSH0 PUSH2 0x1B86 DUP3 PUSH2 0x1275 JUMP JUMPDEST SWAP2 POP PUSH2 0x1B91 DUP4 PUSH2 0x1275 JUMP JUMPDEST SWAP3 POP DUP3 DUP3 SUB SWAP1 POP DUP2 DUP2 GT ISZERO PUSH2 0x1BA9 JUMPI PUSH2 0x1BA8 PUSH2 0x19A3 JUMP JUMPDEST JUMPDEST SWAP3 SWAP2 POP POP JUMP JUMPDEST PUSH32 0x4E487B7100000000000000000000000000000000000000000000000000000000 PUSH0 MSTORE PUSH1 0x32 PUSH1 0x4 MSTORE PUSH1 0x24 PUSH0 REVERT JUMPDEST PUSH0 DUP2 SLOAD SWAP1 POP PUSH2 0x1BEA DUP2 PUSH2 0x18A3 JUMP JUMPDEST SWAP1 POP SWAP2 SWAP1 POP JUMP JUMPDEST PUSH0 DUP2 SWAP1 POP DUP2 PUSH0 MSTORE PUSH1 0x20 PUSH0 KECCAK256 SWAP1 POP SWAP2 SWAP1 POP JUMP JUMPDEST PUSH0 PUSH1 0x20 PUSH1 0x1F DUP4 ADD DIV SWAP1 POP SWAP2 SWAP1 POP JUMP JUMPDEST PUSH0 DUP3 DUP3 SHL SWAP1 POP SWAP3 SWAP2 POP POP JUMP JUMPDEST PUSH0 PUSH1 0x8 DUP4 MUL PUSH2 0x1C4D PUSH32 0xFFFFFFFFFFFFFFFFFFFFFFFFFFFFFFFFFFFFFFFFFFFFFFFFFFFFFFFFFFFFFFFF DUP3 PUSH2 0x1C12 JUMP JUMPDEST PUSH2 0x1C57 DUP7 DUP4 PUSH2 0x1C12 JUMP JUMPDEST SWAP6 POP DUP1 NOT DUP5 AND SWAP4 POP DUP1 DUP7 AND DUP5 OR SWAP3 POP POP POP SWAP4 SWAP3 POP POP POP JUMP JUMPDEST PUSH0 DUP2 SWAP1 POP SWAP2 SWAP1 POP JUMP JUMPDEST PUSH0 PUSH2 0x1C92 PUSH2 0x1C8D PUSH2 0x1C88 DUP5 PUSH2 0x1275 JUMP JUMPDEST PUSH2 0x1C6F JUMP JUMPDEST PUSH2 0x1275 JUMP JUMPDEST SWAP1 POP SWAP2 SWAP1 POP JUMP JUMPDEST PUSH0 DUP2 SWAP1 POP SWAP2 SWAP1 POP JUMP JUMPDEST PUSH2 0x1CAB DUP4 PUSH2 0x1C78 JUMP JUMPDEST PUSH2 0x1CBF PUSH2 0x1CB7 DUP3 PUSH2 0x1C99 JUMP JUMPDEST DUP5 DUP5 SLOAD PUSH2 0x1C1E JUMP JUMPDEST DUP3 SSTORE POP POP POP POP JUMP JUMPDEST PUSH0 PUSH0 SWAP1 POP SWAP1 JUMP JUMPDEST PUSH2 0x1CD6 PUSH2 0x1CC7 JUMP JUMPDEST PUSH2 0x1CE1 DUP2 DUP5 DUP5 PUSH2 0x1CA2 JUMP JUMPDEST POP POP POP JUMP JUMPDEST JUMPDEST DUP2 DUP2 LT ISZERO PUSH2 0x1D04 JUMPI PUSH2 0x1CF9 PUSH0 DUP3 PUSH2 0x1CCE JUMP JUMPDEST PUSH1 0x1 DUP2 ADD SWAP1 POP PUSH2 0x1CE7 JUMP JUMPDEST POP POP JUMP JUMPDEST PUSH1 0x1F DUP3 GT ISZERO PUSH2 0x1D49 JUMPI PUSH2 0x1D1A DUP2 PUSH2 0x1BF1 JUMP JUMPDEST PUSH2 0x1D23 DUP5 PUSH2 0x1C03 JUMP JUMPDEST DUP2 ADD PUSH1 0x20 DUP6 LT ISZERO PUSH2 0x1D32 JUMPI DUP2 SWAP1 POP JUMPDEST PUSH2 0x1D46 PUSH2 0x1D3E DUP6 PUSH2 0x1C03 JUMP JUMPDEST DUP4 ADD DUP3 PUSH2 0x1CE6 JUMP JUMPDEST POP POP JUMPDEST POP POP POP JUMP JUMPDEST PUSH0 DUP3 DUP3 SHR SWAP1 POP SWAP3 SWAP2 POP POP JUMP JUMPDEST PUSH0 PUSH2 0x1D69 PUSH0 NOT DUP5 PUSH1 0x8 MUL PUSH2 0x1D4E JUMP JUMPDEST NOT DUP1 DUP4 AND SWAP2 POP POP SWAP3 SWAP2 POP POP JUMP JUMPDEST PUSH0 PUSH2 0x1D81 DUP4 DUP4 PUSH2 0x1D5A JUMP JUMPDEST SWAP2 POP DUP3 PUSH1 0x2 MUL DUP3 OR SWAP1 POP SWAP3 SWAP2 POP POP JUMP JUMPDEST DUP2 DUP2 SUB PUSH2 0x1D9F JUMPI POP POP PUSH2 0x1E74 JUMP JUMPDEST PUSH2 0x1DA8 DUP3 PUSH2 0x1BDC JUMP JUMPDEST PUSH8 0xFFFFFFFFFFFFFFFF DUP2 GT ISZERO PUSH2 0x1DC1 JUMPI PUSH2 0x1DC0 PUSH2 0x154E JUMP JUMPDEST JUMPDEST PUSH2 0x1DCB DUP3 SLOAD PUSH2 0x18A3 JUMP JUMPDEST PUSH2 0x1DD6 DUP3 DUP3 DUP6 PUSH2 0x1D08 JUMP JUMPDEST PUSH0 PUSH1 0x1F DUP4 GT PUSH1 0x1 DUP2 EQ PUSH2 0x1E03 JUMPI PUSH0 DUP5 ISZERO PUSH2 0x1DF1 JUMPI DUP3 DUP8 ADD SLOAD SWAP1 POP JUMPDEST PUSH2 0x1DFB DUP6 DUP3 PUSH2 0x1D76 JUMP JUMPDEST DUP7 SSTORE POP PUSH2 0x1E6D JUMP JUMPDEST PUSH1 0x1F NOT DUP5 AND PUSH2 0x1E11 DUP8 PUSH2 0x1BF1 JUMP JUMPDEST SWAP7 POP PUSH2 0x1E1C DUP7 PUSH2 0x1BF1 JUMP JUMPDEST PUSH0 JUMPDEST DUP3 DUP2 LT ISZERO PUSH2 0x1E43 JUMPI DUP5 DUP10 ADD SLOAD DUP3 SSTORE PUSH1 0x1 DUP3 ADD SWAP2 POP PUSH1 0x1 DUP6 ADD SWAP5 POP PUSH1 0x20 DUP2 ADD SWAP1 POP PUSH2 0x1E1E JUMP JUMPDEST DUP7 DUP4 LT ISZERO PUSH2 0x1E60 JUMPI DUP5 DUP10 ADD SLOAD PUSH2 0x1E5C PUSH1 0x1F DUP10 AND DUP3 PUSH2 0x1D5A JUMP JUMPDEST DUP4 SSTORE POP JUMPDEST PUSH1 0x1 PUSH1 0x2 DUP9 MUL ADD DUP9 SSTORE POP POP POP JUMPDEST POP POP POP POP POP POP JUMPDEST JUMP JUMPDEST PUSH32 0x4E487B7100000000000000000000000000000000000000000000000000000000 PUSH0 MSTORE PUSH1 0x31 PUSH1 0x4 MSTORE PUSH1 0x24 PUSH0 REVERT JUMPDEST PUSH32 0x416D6F756E74206D7573742062652067726561746572207468616E20302E0000 PUSH0 DUP3 ADD MSTORE POP JUMP JUMPDEST PUSH0 PUSH2 0x1ED7 PUSH1 0x1E DUP4 PUSH2 0x12DD JUMP JUMPDEST SWAP2 POP PUSH2 0x1EE2 DUP3 PUSH2 0x1EA3 JUMP JUMPDEST PUSH1 0x20 DUP3 ADD SWAP1 POP SWAP2 SWAP1 POP JUMP JUMPDEST PUSH0 PUSH1 0x20 DUP3 ADD SWAP1 POP DUP2 DUP2 SUB PUSH0 DUP4 ADD MSTORE PUSH2 0x1F04 DUP2 PUSH2 0x1ECB JUMP JUMPDEST SWAP1 POP SWAP2 SWAP1 POP JUMP JUMPDEST PUSH2 0x1F14 DUP3 PUSH2 0x12D3 JUMP JUMPDEST PUSH8 0xFFFFFFFFFFFFFFFF DUP2 GT ISZERO PUSH2 0x1F2D JUMPI PUSH2 0x1F2C PUSH2 0x154E JUMP JUMPDEST JUMPDEST PUSH2 0x1F37 DUP3 SLOAD PUSH2 0x18A3 JUMP JUMPDEST PUSH2 0x1F42 DUP3 DUP3 DUP6 PUSH2 0x1D08 JUMP JUMPDEST PUSH0 PUSH1 0x20 SWAP1 POP PUSH1 0x1F DUP4 GT PUSH1 0x1 DUP2 EQ PUSH2 0x1F73 JUMPI PUSH0 DUP5 ISZERO PUSH2 0x1F61 JUMPI DUP3 DUP8 ADD MLOAD SWAP1 POP JUMPDEST PUSH2 0x1F6B DUP6 DUP3 PUSH2 0x1D76 JUMP JUMPDEST DUP7 SSTORE POP PUSH2 0x1FD2 JUMP JUMPDEST PUSH1 0x1F NOT DUP5 AND PUSH2 0x1F81 DUP7 PUSH2 0x1BF1 JUMP JUMPDEST PUSH0 JUMPDEST DUP3 DUP2 LT ISZERO PUSH2 0x1FA8 JUMPI DUP5 DUP10 ADD MLOAD DUP3 SSTORE PUSH1 0x1 DUP3 ADD SWAP2 POP PUSH1 0x20 DUP6 ADD SWAP5 POP PUSH1 0x20 DUP2 ADD SWAP1 POP PUSH2 0x1F83 JUMP JUMPDEST DUP7 DUP4 LT ISZERO PUSH2 0x1FC5 JUMPI DUP5 DUP10 ADD MLOAD PUSH2 0x1FC1 PUSH1 0x1F DUP10 AND DUP3 PUSH2 0x1D5A JUMP JUMPDEST DUP4 SSTORE POP JUMPDEST PUSH1 0x1 PUSH1 0x2 DUP9 MUL ADD DUP9 SSTORE POP POP POP JUMPDEST POP POP POP POP POP POP JUMP JUMPDEST PUSH32 0x436F6E7472616374206973207061757365642E00000000000000000000000000 PUSH0 DUP3 ADD MSTORE POP JUMP JUMPDEST PUSH0 PUSH2 0x200E PUSH1 0x13 DUP4 PUSH2 0x12DD JUMP JUMPDEST SWAP2 POP PUSH2 0x2019 DUP3 PUSH2 0x1FDA JUMP JUMPDEST PUSH1 0x20 DUP3 ADD SWAP1 POP SWAP2 SWAP1 POP JUMP JUMPDEST PUSH0 PUSH1 0x20 DUP3 ADD SWAP1 POP DUP2 DUP2 SUB PUSH0 DUP4 ADD MSTORE PUSH2 0x203B DUP2 PUSH2 0x2002 JUMP JUMPDEST SWAP1 POP SWAP2 SWAP1 POP JUMP JUMPDEST PUSH32 0x496E76616C696420746965722E00000000000000000000000000000000000000 PUSH0 DUP3 ADD MSTORE POP JUMP JUMPDEST PUSH0 PUSH2 0x2076 PUSH1 0xD DUP4 PUSH2 0x12DD JUMP JUMPDEST SWAP2 POP PUSH2 0x2081 DUP3 PUSH2 0x2042 JUMP JUMPDEST PUSH1 0x20 DUP3 ADD SWAP1 POP SWAP2 SWAP1 POP JUMP JUMPDEST PUSH0 PUSH1 0x20 DUP3 ADD SWAP1 POP DUP2 DUP2 SUB PUSH0 DUP4 ADD MSTORE PUSH2 0x20A3 DUP2 PUSH2 0x206A JUMP JUMPDEST SWAP1 POP SWAP2 SWAP1 POP JUMP JUMPDEST PUSH32 0x496E636F727265637420616D6F756E742E000000000000000000000000000000 PUSH0 DUP3 ADD MSTORE POP JUMP JUMPDEST PUSH0 PUSH2 0x20DE PUSH1 0x11 DUP4 PUSH2 0x12DD JUMP JUMPDEST SWAP2 POP PUSH2 0x20E9 DUP3 PUSH2 0x20AA JUMP JUMPDEST PUSH1 0x20 DUP3 ADD SWAP1 POP SWAP2 SWAP1 POP JUMP JUMPDEST PUSH0 PUSH1 0x20 DUP3 ADD SWAP1 POP DUP2 DUP2 SUB PUSH0 DUP4 ADD MSTORE PUSH2 0x210B DUP2 PUSH2 0x20D2 JUMP JUMPDEST SWAP1 POP SWAP2 SWAP1 POP JUMP JUMPDEST PUSH0 PUSH2 0x211C DUP3 PUSH2 0x1275 JUMP JUMPDEST SWAP2 POP PUSH32 0xFFFFFFFFFFFFFFFFFFFFFFFFFFFFFFFFFFFFFFFFFFFFFFFFFFFFFFFFFFFFFFFF DUP3 SUB PUSH2 0x214E JUMPI PUSH2 0x214D PUSH2 0x19A3 JUMP JUMPDEST JUMPDEST PUSH1 0x1 DUP3 ADD SWAP1 POP SWAP2 SWAP1 POP JUMP INVALID LOG2 PUSH5 0x6970667358 0x22 SLT KECCAK256 EXTSTATICCALL XOR GASPRICE SWAP12 0x1E DUP13 0xDF 0xC2 SWAP2 0xA9 LT 0xBF 0xA5 0x29 PUSH32 0x640FF5F6E8844CC03C50181A95FE53D6AB64736F6C634300081E003300000000 "
				},
				"gasEstimates": {
					"creation": {
						"codeDepositCost": "1718200",
						"executionCost": "infinite",
						"totalCost": "infinite"
					},
					"external": {
						"addTier(string,uint256)": "infinite",
						"backers(address)": "2837",
						"deadline()": "2515",
						"description()": "infinite",
						"extendDeadline(uint256)": "infinite",
						"fund(uint256)": "infinite",
						"getCampaignStatus()": "7074",
						"getContractBalance()": "445",
						"getTiers()": "infinite",
						"goal()": "2492",
						"hasFundedTier(address,uint256)": "3189",
						"name()": "infinite",
						"owner()": "2597",
						"paused()": "2606",
						"removeTier(uint256)": "infinite",
						"state()": "2649",
						"tiers(uint256)": "infinite",
						"togglePause()": "28884",
						"withdraw()": "infinite"
					},
					"internal": {
						"checkAndUpdateCampaignState()": "30878"
					}
				},
				"methodIdentifiers": {
					"addTier(string,uint256)": "8ece7b91",
					"backers(address)": "b85dfb80",
					"deadline()": "29dcb0cf",
					"description()": "7284e416",
					"extendDeadline(uint256)": "389b7533",
					"fund(uint256)": "ca1d209d",
					"getCampaignStatus()": "10550515",
					"getContractBalance()": "6f9fb98a",
					"getTiers()": "de170570",
					"goal()": "40193883",
					"hasFundedTier(address,uint256)": "7adba527",
					"name()": "06fdde03",
					"owner()": "8da5cb5b",
					"paused()": "5c975abb",
					"removeTier(uint256)": "7497211b",
					"state()": "c19d93fb",
					"tiers(uint256)": "039af9eb",
					"togglePause()": "c4ae3168",
					"withdraw()": "3ccfd60b"
				}
			},
			"storageLayout": {
				"storage": [
					{
						"astId": 3,
						"contract": "Funding.sol:Funding",
						"label": "name",
						"offset": 0,
						"slot": "0",
						"type": "t_string_storage"
					},
					{
						"astId": 5,
						"contract": "Funding.sol:Funding",
						"label": "description",
						"offset": 0,
						"slot": "1",
						"type": "t_string_storage"
					},
					{
						"astId": 7,
						"contract": "Funding.sol:Funding",
						"label": "goal",
						"offset": 0,
						"slot": "2",
						"type": "t_uint256"
					},
					{
						"astId": 9,
						"contract": "Funding.sol:Funding",
						"label": "deadline",
						"offset": 0,
						"slot": "3",
						"type": "t_uint256"
					},
					{
						"astId": 11,
						"contract": "Funding.sol:Funding",
						"label": "owner",
						"offset": 0,
						"slot": "4",
						"type": "t_address"
					},
					{
						"astId": 13,
						"contract": "Funding.sol:Funding",
						"label": "paused",
						"offset": 20,
						"slot": "4",
						"type": "t_bool"
					},
					{
						"astId": 20,
						"contract": "Funding.sol:Funding",
						"label": "state",
						"offset": 21,
						"slot": "4",
						"type": "t_enum(CampaignState)17"
					},
					{
						"astId": 38,
						"contract": "Funding.sol:Funding",
						"label": "tiers",
						"offset": 0,
						"slot": "5",
						"type": "t_array(t_struct(Tier)27_storage)dyn_storage"
					},
					{
						"astId": 43,
						"contract": "Funding.sol:Funding",
						"label": "backers",
						"offset": 0,
						"slot": "6",
						"type": "t_mapping(t_address,t_struct(Backer)34_storage)"
					}
				],
				"types": {
					"t_address": {
						"encoding": "inplace",
						"label": "address",
						"numberOfBytes": "20"
					},
					"t_array(t_struct(Tier)27_storage)dyn_storage": {
						"base": "t_struct(Tier)27_storage",
						"encoding": "dynamic_array",
						"label": "struct Funding.Tier[]",
						"numberOfBytes": "32"
					},
					"t_bool": {
						"encoding": "inplace",
						"label": "bool",
						"numberOfBytes": "1"
					},
					"t_enum(CampaignState)17": {
						"encoding": "inplace",
						"label": "enum Funding.CampaignState",
						"numberOfBytes": "1"
					},
					"t_mapping(t_address,t_struct(Backer)34_storage)": {
						"encoding": "mapping",
						"key": "t_address",
						"label": "mapping(address => struct Funding.Backer)",
						"numberOfBytes": "32",
						"value": "t_struct(Backer)34_storage"
					},
					"t_mapping(t_uint256,t_bool)": {
						"encoding": "mapping",
						"key": "t_uint256",
						"label": "mapping(uint256 => bool)",
						"numberOfBytes": "32",
						"value": "t_bool"
					},
					"t_string_storage": {
						"encoding": "bytes",
						"label": "string",
						"numberOfBytes": "32"
					},
					"t_struct(Backer)34_storage": {
						"encoding": "inplace",
						"label": "struct Funding.Backer",
						"members": [
							{
								"astId": 29,
								"contract": "Funding.sol:Funding",
								"label": "totalContribution",
								"offset": 0,
								"slot": "0",
								"type": "t_uint256"
							},
							{
								"astId": 33,
								"contract": "Funding.sol:Funding",
								"label": "fundedTiers",
								"offset": 0,
								"slot": "1",
								"type": "t_mapping(t_uint256,t_bool)"
							}
						],
						"numberOfBytes": "64"
					},
					"t_struct(Tier)27_storage": {
						"encoding": "inplace",
						"label": "struct Funding.Tier",
						"members": [
							{
								"astId": 22,
								"contract": "Funding.sol:Funding",
								"label": "name",
								"offset": 0,
								"slot": "0",
								"type": "t_string_storage"
							},
							{
								"astId": 24,
								"contract": "Funding.sol:Funding",
								"label": "amount",
								"offset": 0,
								"slot": "1",
								"type": "t_uint256"
							},
							{
								"astId": 26,
								"contract": "Funding.sol:Funding",
								"label": "backers",
								"offset": 0,
								"slot": "2",
								"type": "t_uint256"
							}
						],
						"numberOfBytes": "96"
					},
					"t_uint256": {
						"encoding": "inplace",
						"label": "uint256",
						"numberOfBytes": "32"
					}
				}
			},
			"userdoc": {
				"kind": "user",
				"methods": {},
				"version": 1
			}
		}
	}
}